:020000040800F2
:10000000D0060020BD550008E1530008E353000866
:10001000E5530008E7530008E9530008000000001A
:10002000000000000000000000000000EB5300088A
:10003000ED53000800000000EF530008F1530008E2
:1000400025560008295600082D560008315600088C
:1000500035560008395600083D560008415600083C
:1000600045560008495600084D56000851560008EC
:1000700055560008595600085D560008615600089C
:1000800065560008695600086D560008715600084C
:1000900075560008795600087D56000881560008FC
:1000A00085560008895600088D56000891560008AC
:1000B00095560008995600089D560008F953000807
:1000C00003540008A1560008A5560008A9560008C8
:1000D000AD560008B1560008B5560008B9560008DC
:1000E000BD560008C1560008C5560008C95600088C
:1000F000CD560008D1560008D5560008D95600083C
:10010000DD560008E1560008E5560008E9560008EB
:10011000ED560008F1560008F5560008F95600089B
:10012000FD56000801570008055700080957000848
:100130000D570008115700081557000819570008F7
:100140001D570008215700082557000829570008A7
:100150002D57000831570008355700083957000857
:100160003D57000841570008455700084957000807
:100170004D5700085157000855570008000000006F
:100180005957000870B50400002C01D10120E1E0AE
:1001900094F83D00002805D1002084F83C002000A0
:1001A00001F03BFE242084F83D00206800684008F0
:1001B0004000216808602068006850F40040216811
:1001C00008602068006830F400402168086002F090
:1001D00016F90100DFF880016268824208D2DFF878
:1001E0007C21914201D2012200E00022D2B207E03C
:1001F000DFF86C21914201D2012200E00022D2B24C
:10020000012A01D10120A5E0DFF85821B1FBF2F26B
:1002100023685B689B099B01134325686B60236817
:100220001B6A6568854201D2551C08E04FF496753B
:1002300005FB02F54FF47A76B5FBF6F56D1C9B09CC
:100240009B012B4325682B622368DB696568854227
:1002500014D2481E65686D00B0FBF5F0401C000527
:10026000000D042801D204253EE0481E65686D009B
:10027000B0FBF5F56D1C2D052D0D35E0A0680028AF
:1002800009D14D1E666803204643B5FBF6F0401CBD
:100290000005000D0AE04D1E666819204643B5FBB7
:1002A000F6F0401C0005000D50F48040000501D11F
:1002B000012519E0A068002809D14D1E66680320B9
:1002C0004643B5FBF6F56D1C2D052D0D0AE04D1EC0
:1002D000666819204643B5FBF6F56D1C2D052D0DFE
:1002E00055F4804555F40045DFF87C0003402B436E
:1002F0002068C3612068036833F0C003E0690343EA
:10030000206A03432068036020688368DFF85C008C
:10031000034020690343E06803432068836020684A
:10032000C3681B0A1B02A569606905432B4320684B
:10033000C3602068006850F0010023681860002046
:100340002064202084F83D0000202063002084F8F1
:100350003E00002070BD0000A186010080841E00C8
:1003600000093D0040420F000030FFFF007CFFFF0E
:100370002DE9FE4F05000E0017009846DDF830907D
:100380000D9CDDF838A002F06DF8834695F83D002D
:10039000202840F0A180CDF800B019230122DFF819
:1003A0004414280001F07BFB002801D0022094E0D7
:1003B00095F83C00012801D102208EE0012085F84B
:1003C0003C0028680068C00705D42868006850F021
:1003D0000100296808602868006830F40060296816
:1003E0000860212085F83D00402085F83E0000206F
:1003F0002864C5F824906C85688D2885DFF8E003B3
:10040000E862CDF804B0CDF800A043469BB23A00B4
:1004100092B2310089B2280001F098F9002801D089
:1004200001205AE0288D002833D05A465146280032
:1004300001F0D7FB00280AD0286C042805D12868D1
:10044000006850F4007029680860012045E0686A7F
:10045000007829680861686A401C6862288D401E1F
:100460002885688D401E6885286840694007D9D571
:10047000288D0028D6D0686A007829680861686AE3
:10048000401C6862288D401E2885688D401E688546
:10049000C8E75A465146280001F0CFFB00280AD091
:1004A000286C042805D12868006850F40070296879
:1004B0000860012011E02868006850F40070296885
:1004C0000860202085F83D00002085F83E000020CF
:1004D00085F83C00002000E00220BDE8FE8F00000F
:1004E0002DE9F24F82B0050016001F00DDF83080C4
:1004F0000D9CDDF8389001F0B5FF824695F83D007F
:10050000202840F06A81CDF800A019230122DFF8ED
:10051000D412280001F0C3FA002801D002205DE1C6
:1005200095F83C00012801D1022057E1012085F80F
:100530003C0028680068C00705D42868006850F0AF
:100540000100296808602868006830F400602968A4
:100550000860222085F83D00402085F83E000020FC
:100560002864C5F824806C85688D2885DFF87002C2
:10057000E862CDF804A0CDF800903B009BB23200B9
:1005800092B2BDF80810280001F056F9002801D0F9
:10059000012023E1288D00280FD100200090286839
:1005A0004069009028688069009000982868006879
:1005B00050F40070296808603AE0288D012815D1B0
:1005C0002868006830F48060296808600020009086
:1005D0002868406900902868806900900098286821
:1005E000006850F400702968086021E0288D022816
:1005F00015D12868006830F4806029680860286890
:10060000006850F4006029680860002000902868A5
:1006100040690090286880690090009808E00020F8
:1006200000902868406900902868806900900098D0
:10063000288D002800F0C680288D042880F099803D
:10064000288D012816D152464946280001F04AFB60
:10065000002801D00120C1E028680069696A08709B
:10066000686A401C6862288D401E2885688D401E7F
:100670006885DDE7288D02282DD1CDF800A04B46F6
:100680000022DFF86411280001F009FA002801D0E7
:100690000120A3E02868006850F400702968086011
:1006A00028680069696A0870686A401C6862288D59
:1006B000401E2885688D401E688528680069696A23
:1006C0000870686A401C6862288D401E2885688D05
:1006D000401E6885ACE7DFF810B1CDF800A04B46AE
:1006E00000225946280001F0DAF9002801D0012043
:1006F00074E02868006830F4806029680860286821
:100700000069696A0870686A401C6862288D401E2A
:100710002885688D401E6885CDF800A04B460022D4
:100720005946280001F0BBF9002801D0012055E00E
:100730002868006850F4007029680860286800691B
:10074000696A0870686A401C6862288D401E2885A6
:10075000688D401E688528680069696A0870686A43
:10076000401C6862288D401E2885688D401E688563
:100770005EE752464946280001F0B4FA002801D04D
:1007800001202BE028680069696A0870686A401CCB
:100790006862288D401E2885688D401E68852868FF
:1007A000406940077FF544AF28680069696A0870AE
:1007B000686A401C6862288D401E2885688D401E2E
:1007C000688535E7202085F83D00002085F83E004B
:1007D000002085F83C00002000E00220BDE8FE8FEC
:1007E0000000FFFF02001000040001002DE9F047A7
:1007F0000400002520684668E76A94F83E8094F873
:100800003D904046C0B2102803D04046C0B24028B8
:1008100078D12068806905002068D0F814A05FEACC
:10082000CA700CD4B7F52A0F02D0B7F12A4F01D104
:10083000012000E00020C0B2002840F0BA801AF089
:100840000100C0B2002808D0B00506D5200001F094
:100850009EFA200000F05AFBABE05FEA0A7005D573
:10086000B00503D5200000F0AAFBA2E05FEA8A7081
:1008700005D5B00503D5200000F0BAFB99E0680764
:1008800027D520684068000500F193805FEA0A6080
:1008900008D5700506D55FEA4A7003D4200000F041
:1008A00000F986E05FEA4A7040F18380B00540F1CC
:1008B00080804846C0B2212803D1200000F065F9AD
:1008C00077E04046C0B2402873D1200000F0AFF975
:1008D0006FE02068406800056BD45FEA4A6008D585
:1008E000700506D55FEA4A7003D4200000F008FACC
:1008F0005FE05FEA4A705CD5B0055AD5200000F091
:1009000071FA56E0206C002803D02068D0F814A0BB
:1009100005E02068806905002068D0F814A05FEA2F
:100920008A700CD5B0050AD5206C002802D020684A
:10093000806905002900200000F0E7FC39E05FEA4B
:10094000CA6005D5B00503D5200000F011FD30E0E8
:100950004846C0B2212803D04846C0B2292814D145
:100960005FEA0A6008D5700506D55FEA4A7003D4CD
:10097000200000F060FC1CE05FEA4A7019D5B00569
:1009800017D5200000F07EFC13E05FEA4A6008D52E
:10099000700506D55FEA4A7003D4200000F080FCA1
:1009A00007E05FEA4A7004D5B00502D5200000F0E8
:1009B0009EFCBDE8F0872DE9F84F06003068D0F8BE
:1009C00014903068D0F804A0002596F83EB05FEA95
:1009D000C95008D55FEACA5005D555F001057FF426
:1009E0008070316848615FEA895008D55FEACA5073
:1009F00005D555F002057FF40070316848615FEA63
:100A0000495038D55FEACA5035D58DF800B0708DA1
:100A1000040096F83D000700306B80469DF800000A
:100A2000202814D1002C12D13800C0B221280AD0BD
:100A30003800C0B2292806D03800C0B2282806D114
:100A4000B8F1210F03D1300000F05FFD13E07FF417
:100A500080603168486155F004055846C0B21028DE
:100A600003D05846C0B2402805D13068006850F421
:100A70000070316808605FEA095008D55FEACA5023
:100A800005D555F008057FF4006031684861002DF8
:100A900005D0306C28433064300000F088FDBDE89C
:100AA000F18FF8B5040094F83D5094F83E60E76A81
:100AB000208D002840D12800C0B221283CD1082F29
:100AC00017D0202F15D0DFF8800C874211D0206876
:100AD000406830F4E0602168486011202063002005
:100AE00084F83E00202084F83D00200001F0C0FC86
:100AF0004AE02068406830F4E0602168486020687F
:100B0000006850F4007021680860002020632020F5
:100B100084F83D0094F83E00402806D1002084F877
:100B20003E00200001F0A5FC2EE0002084F83E00ED
:100B3000200001F09DFC27E02800C0B2212807D04A
:100B40003000C0B240281FD12800C0B222281BD1DB
:100B5000608D002806D12068406830F480602168EC
:100B6000486011E094F83E00402803D1200000F0D6
:100B70005EF809E0606A007821680861606A401CDC
:100B80006062608D401E6085F1BD38B50400E56A85
:100B900094F83D00212849D1608D00280AD0606A70
:100BA000007821680861606A401C6062608D401EA8
:100BB00060853BE0082D17D0202D15D0DFF8880B7D
:100BC000854211D02068406830F4E06021684860B8
:100BD00011202063002084F83E00202084F83D008E
:100BE000200001F045FC21E02068406830F4E0601E
:100BF000216848602068006850F40070216808602F
:100C000000202063202084F83D0094F83E00402816
:100C100006D1002084F83E00200001F02AFC05E007
:100C2000002084F83E00200001F022FC31BD38B5E0
:100C3000040094F83D50206D002814D1E06C012888
:100C400007D1A06CC0B221680861206D801C2065AE
:100C500055E0A06C80B2000AC0B221680861206D26
:100C6000401C20654BE0206D012807D1A06CC0B26C
:100C700021680861206D401C206540E0206D02283D
:100C80003DD12800C0B2222809D12068006850F464
:100C9000807021680860206D401C20652FE0608D09
:100CA00000280ED02800C0B221280AD1606A00783E
:100CB00021680861606A401C6062608D401E60852A
:100CC0001DE0608D00281AD12800C0B2212816D15D
:100CD0002068406830F4E06021684860206800685F
:100CE00050F400702168086000202063202084F800
:100CF0003D00002084F83E00200001F0BAFB31BD29
:100D000038B5050095F83D0022286AD16C8D042C79
:100D100013D328680069696A0870686A401C6862B1
:100D2000688D401E6885688D03285AD12868406800
:100D300030F480602968486053E0E86A022850D0A7
:100D4000012C01D0002C4CD1280000F0A2FF00287B
:100D50002ED12868006830F480602968086028680F
:100D6000406830F4E0602968486028680069696A72
:100D70000870686A401C6862688D401E6885202083
:100D800085F83D0095F83E00402808D1002085F800
:100D90003E0000202863280001F06CFB21E00020C9
:100DA00085F83E0012202863280001F064FB18E05B
:100DB0002868406830F4E060296848602868006965
:100DC000696A0870686A401C6862688D401E6885A0
:100DD000202085F83D00002085F83E00280001F025
:100DE0004BFB31BD38B50400E56A608D042810D195
:100DF0002068406830F4806021684860206800699D
:100E0000616A0870606A401C6062608D401E608587
:100E10007BE0608D03281AD12068406830F4806040
:100E200021684860042D07D0022D05D02068006895
:100E300030F480602168086020680069616A087089
:100E4000606A401C6062608D401E60855DE0608D60
:100E5000022850D1012D01D0102D06D12068006844
:100E600030F480602168086012E0042D01D0022D6A
:100E700006D12068006850F480602168086007E0AF
:100E8000102D05D02068006850F4007021680860BB
:100E900020680069616A0870606A401C6062608D49
:100EA000401E608520680069616A0870606A401CA5
:100EB0006062608D401E60852068406830F440703C
:100EC00021684860202084F83D0094F83E004028C6
:100ED00008D1002084F83E0000202063200001F0AB
:100EE000C9FA12E0002084F83E001220206320009E
:100EF00001F0C1FA09E020680069616A0870606A5F
:100F0000401C6062608D401E608531BD90F83E10CF
:100F100040290FD1016D002905D1416C11F0FE016E
:100F2000026811614AE0416C51F00101C9B20268E6
:100F3000116143E00169B1F5804F24D190F83D1073
:100F4000212905D1416C11F0FE010268116105E013
:100F5000416C51F00101C9B202681161416B002975
:100F600003D0416BC96B002906D1816B002925D0C4
:100F7000816BC96B002921D00168496851F4006177
:100F8000026851601AE0016D00290AD1416C11F428
:100F9000407189B2C90951F0F001C9B2026811610A
:100FA0000CE0016D012909D1416C11F4407189B245
:100FB000C90951F0F101C9B2026811617047416C71
:100FC000C9B202681161416B002903D0416BC96B42
:100FD000002906D1816B002909D0816BC96B0029DA
:100FE00005D00168496851F400610268516070479A
:100FF00038B490F83E20C36A046B90F83D10222963
:1010000040F00E81016D00290DD11100C9B24029B7
:1010100009D100210091016849690091016889693D
:101020000091009905E1016D002916D10169B1F522
:10103000404F12D100210091016849690091016877
:101040008969009100990168096851F48071056807
:101050002960016D491C0165EBE0418D00290FD12C
:101060000021009101684969009101688969009136
:1010700000990168096851F4007105682960CCE0A5
:10108000418D012968D1DFF8C0168B4229D1016852
:10109000096831F4806105682960016849680905BB
:1010A0000FD50168096831F4806105682960002165
:1010B000009101684969009101688969009100996E
:1010C000ABE00021009101684969009101688969DC
:1010D000009100990168096851F400710568296060
:1010E0009BE0082B22D0202B20D0122C01D1012BE9
:1010F0001CD1042B0AD0022B08D0102B06D001687B
:10110000096831F480610568296005E001680968B3
:1011100051F48061056829600021009101684969E6
:101120000091016889690091009976E00168096879
:1011300031F48061056829600021009101684969E6
:10114000009101688969009100990168096851F46A
:1011500000710568296060E0418D022938D1042BB7
:1011600010D0022B0ED0102B0CD00168096831F47E
:101170008061056829600168096851F400610568AB
:10118000296005E00168096851F4806105682960FB
:1011900001684968090511D5DFF8AC158B4207D005
:1011A000012B05D0082B03D0102B01D0202B05D10B
:1011B0000168496851F48051056869600021009117
:1011C000016849690091016889690091009924E0EA
:1011D0000168096851F480610568296001684968FF
:1011E000090511D5DFF860158B4207D0012B05D01A
:1011F000082B03D0102B01D0202B05D101684968A2
:1012000051F48051056869600021009101684969C5
:10121000009101688969009100990021016508E049
:101220000021009101684969009101688969009174
:10123000009931BC704738B5040094F83D50608D7A
:1012400000281ED0606A007821680861606A401C2E
:101250006062608D401E6085608D002811D128007D
:10126000C0B229280DD12068406830F48060216820
:10127000486021202063282084F83D00200001F0F0
:10128000FCF831BD418D002909D0416A0978026816
:101290001161416A491C4162418D491E4185704777
:1012A00038B5040094F83D50608D00281ED02068A9
:1012B0000069616A0870606A401C6062608D401E4F
:1012C0006085608D002811D12800C0B22A280DD178
:1012D0002068406830F480602168486022202063E4
:1012E000282084F83D00200001F0C8F831BD418D70
:1012F000002909D001680969426A1170416A491CD4
:101300004162418D491E41857047F8B505000E00C8
:10131000002795F83D0010F0280028281BD12868E8
:10132000406830F4806029684860700701D401206B
:101330000700300602D4E868040001E0A869040050
:10134000002085F83C00220092B23900C9B2280082
:1013500001F095F80BE000200090286840690090AB
:101360002868806900900098002085F83C00F1BD55
:1013700038B5040094F83D502068406830F4E060CF
:101380002168486000200090206840690090206833
:10139000006850F00100216808600098206800682B
:1013A00030F48060216808602068406800054ED5F0
:1013B0002800C0B2222803D02800C0B22A2823D196
:1013C000A06B006840686085608D002803D0206CA9
:1013D00050F0040020642068406830F40060216808
:1013E0004860A06B01F060F8012830D00FF2B950CE
:1013F000A16B0865A06B01F043F8002827D0A06B13
:10140000A16B096D884722E0606B006840686085C9
:10141000608D002803D0206C50F004002064206808
:10142000406830F4006021684860606B01F03CF86F
:1014300001280CD00FF27150616B0865606B01F0F0
:101440001FF8002803D0606B616B096D8847608DC1
:10145000002822D020684069400709D5206800692B
:10146000616A0870606A401C6062608D401E608521
:1014700020684069400609D520680069616A0870E3
:10148000606A401C6062608D401E6085608D00282F
:1014900003D0206C50F004002064206C002803D09E
:1014A000200000F084F82FE02800C0B22A2807D1DD
:1014B00000202063282084F83D00200000F0DEFF9B
:1014C00094F83D0028280DD19F48E0620020206359
:1014D000202084F83D00002084F83E00200000F029
:1014E000E6FF11E0206B222803D02800C0B222289A
:1014F0000AD100202063202084F83D00002084F8D9
:101500003E00200000F0BAFF31BD70B5040094F831
:101510003D50E66A082E01D0202E21D12800C0B20D
:1015200028281DD18848E0622068406830F4E060D7
:10153000216848607FF48060216848612068006805
:1015400030F480602168086000202063202084F847
:101550003D00002084F83E00200000F0A8FF25E0B8
:101560002800C0B221281DD17748E06221202063E5
:10157000202084F83D00002084F83E002068406868
:1015800030F4E060216848607FF480602168486141
:101590002068006830F4806021680860200000F056
:1015A0006CFF03E07FF480602168486170BD2DE925
:1015B000F041040094F83D5094F83E603000C0B211
:1015C000102803D03000C0B2402809D12800C0B292
:1015D000222805D12068006830F400602168086086
:1015E0002800C0B210F02800282805D10020206370
:1015F000282084F83D000FE020684068000509D4E9
:101600002800C0B2602805D0202084F83D000020CA
:1016100084F83E000020206320684068000543D520
:101620002068406830F4006021684860606B90F882
:101630003500012816D00FF27130616B0865606BC0
:1016400000F01EFF00285BD02068006840084000C2
:1016500021680860202084F83D00606B616B096D93
:1016600088474DE00FF24130A16B0865A06B00F098
:1016700007FF002844D020684069400606D520684E
:101680000069616A0870606A401C606220680068D6
:101690004008400021680860202084F83D00A06BCD
:1016A000A16B096D88472BE094F83D00602819D1A3
:1016B000202084F83D000020206420684069400616
:1016C00006D520680069616A0870606A401C606223
:1016D000206800684008400021680860200000F091
:1016E000E7FE0DE020684069400606D520680069E5
:1016F000616A0870606A401C6062200000F0BCFEF5
:10170000276C17F00F0F05D02068406830F4E060B8
:101710002168486094F83D80206C400710D5404611
:10172000C0B228280CD10848E062002020632020A5
:1017300084F83D00002084F83E00200000F0B7FE51
:10174000BDE8F081000000000000FFFF2DE9F84334
:1017500004000D0016001F00DDF82080DDF8249045
:101760002068006850F4807021680860CDF800900F
:10177000434600225FF00111200000F090F900289C
:1017800008D020680068C00502D54FF400702064BE
:1017900003204FE015F0FE00216808614B464246E9
:1017A000DFF83815200000F0BFF9002801D0012033
:1017B00040E0002000902068406900902068806927
:1017C000009000984A464146200000F00AFA00289E
:1017D0000AD0206C042805D12068006850F40070FD
:1017E00021680860012025E0380080B2012804D17A
:1017F0003000C0B2216808611BE0300080B2000AEE
:10180000C0B2216808614A464146200000F0E9F96B
:1018100000280AD0206C042805D12068006850F404
:10182000007021680860012004E03000C0B2216827
:1018300008610020BDE8F2832DE9FC4704000D009B
:1018400016001F00DDF82880DDF82C902068006865
:1018500050F48060216808602068006850F480704F
:1018600021680860CDF80090434600225FF0011126
:10187000200000F014F9002808D020680068C00596
:1018800002D54FF40070206403208BE015F0FE00B9
:1018900021680861DFF844A44B46424651462000C7
:1018A00000F042F9002801D001207BE000200090E8
:1018B00020684069009020688069009000984A463E
:1018C0004146200000F08DF900280AD0206C042841
:1018D00005D12068006850F400702168086001207C
:1018E00060E0380080B2012804D13000C0B2216825
:1018F00008611BE0300080B2000AC0B221680861B4
:101900004A464146200000F06CF900280AD0206CBD
:10191000042805D12068006850F400702168086030
:1019200001203FE03000C0B2216808614A464146CC
:10193000200000F056F900280AD0206C042805D1B8
:101940002068006850F4007021680860012029E0D8
:101950002068006850F4807021680860CDF800901D
:10196000434600225FF00111200000F098F80028A3
:1019700008D020680068C00502D54FF400702064CC
:1019800003200FE055F00100C0B2216808614B460A
:1019900042465146200000F0C7F8002801D001203F
:1019A00000E00020BDE8F6877CB504000020009030
:1019B000A56B95F83D60DFF8280300681921B0FB9E
:1019C000F1F04FF47A71B0FBF1F123204143009123
:1019D0000098002804D1286C50F02000286406E00C
:1019E0000098401E0090286800688005F0D4686B5D
:1019F000002802D00020696BC863A86B002802D0C1
:101A00000020A96BC8632868006830F480602968EA
:101A1000086000206885686B002802D00020696B90
:101A20000865A86B002802D00020A96B086528680B
:101A30000068400840002968086095F83D0060286B
:101A40000BD1202085F83D00002085F83E000020C5
:101A50002864280000F02CFD20E03000C0B210F017
:101A60002800282811D12868006850F00100296852
:101A700008602868006850F48060296808600020C9
:101A80002863282085F83D0005E0202085F83D00EA
:101A9000002085F83E00280000F0EEFC73BD2DE923
:101AA000F04105000E0017001C00DDF81880300022
:101AB000000CC0B201280AD128684069304080B2C9
:101AC000B1B2884201D101200BE0002009E0286872
:101AD0008069304080B2B1B2884201D1012000E07B
:101AE00000203900C9B288421BD114F1010FDED0A9
:101AF00000F0B8FCB0EB0800844201D3002CD6D132
:101B000000202863202085F83D00002085F83E0055
:101B1000286C50F020002864002085F83C0001204B
:101B200000E00020BDE8F081F8B505000E001400CB
:101B30001F003000000CC0B201280AD1286840699B
:101B4000304080B2B1B2884201D101200BE00020C8
:101B500009E028688069304080B2B1B2884201D182
:101B6000012000E00020002839D1286840694005A4
:101B70001AD52868006850F40070296808607FF45E
:101B800080602968486100202863202085F83D0096
:101B9000002085F83E00286C50F0040028640020E6
:101BA00085F83C0001201BE014F1010FC1D000F0CA
:101BB00059FCC01B844201D3002CBAD100202863F9
:101BC000202085F83D00002085F83E00286C50F06C
:101BD00020002864002085F83C00012000E000205F
:101BE000F2BD70B505000C001600286840690006BB
:101BF00021D4280000F0AFF8002801D001201BE01C
:101C000014F1010FF1D000F02DFC801B844201D3B0
:101C1000002CEAD100202863202085F83D00002018
:101C200085F83E00286C50F020002864002085F8DC
:101C30003C00012000E0002070BD70B505000C00E4
:101C4000160028684069400721D4280000F083F876
:101C5000002801D001201BE014F1010FF1D000F0A9
:101C600001FC801B844201D3002CEAD100202863B0
:101C7000202085F83D00002085F83E00286C50F0BB
:101C800020002864002085F83C00012000E00020AE
:101C900070BD81B001000020009011480068192239
:101CA000B0FBF2F04FF47A72B0FBF2F2052042433F
:101CB00000920098401E00900098002805D1086C02
:101CC00050F020000864012004E0086800688005E6
:101CD000EFD4002001B070470000000002000100B6
:101CE0000400002070B505000C001600286840694B
:101CF00040062ED428684069C00612D57FF0100037
:101D00002968486100202863202085F83D000020D4
:101D100085F83E00286C2864002085F83C000120EE
:101D200018E000F09FFB801B844201D3002CDDD122
:101D300000202863202085F83D00002085F83E0023
:101D4000286C50F020002864002085F83C00012019
:101D500000E0002070BD010008684069400514D50E
:101D60007FF480600A68506100200863202081F8B9
:101D70003D00002081F83E00086C50F0040008642B
:101D8000002081F83C00012000E000207047C16A7B
:101D9000B1F52A0F02D10121C16205E0C16AB1F19A
:101DA0002A4F01D10821C162704730B4002513E0E9
:101DB00050F8042BD30744BFA9F101039A18091F57
:101DC000042942F8045BFAD213468C0744BF1580FD
:101DD0009B1CC90748BF1D7050F8041B0029E7D1A0
:101DE00030BC704781B0002000902E48016851F44B
:101DF00080410160006810F480400090009800204D
:101E000000902948016851F080510160006810F08D
:101E100080500090009801B0704710B586B0040063
:101E20001422002101A800F044FB20681F498842C9
:101E300035D1002000901E48016851F00201016078
:101E4000006810F0020000900098C020019012205D
:101E5000029000200390032004900420059001A923
:101E6000144800F031FB002000900F48016851F445
:101E700000110160006810F400100090009800222A
:101E800000211F2000F0C0FC1F2000F0D2FC002227
:101E90000021202000F0B8FC202000F0CAFC06B091
:101EA00010BD000044380240403802400054004059
:101EB00030380240000402402DE9FC410400002CAF
:101EC00001D10120ACE12078C0073FD5DFF84C05F7
:101ED000016811F00C01042909D0006810F00C0011
:101EE00008280ED1DFF838050068400209D5DFF870
:101EF00028050068800329D56068002826D10120C4
:101F00008EE16068DFF82C150870606800280ED03C
:101F100000F0A8FA0500DFF800050068800315D47A
:101F200000F0A0FA401B6528F5D3032078E100F00B
:101F300099FA0500DFF8E0040068800306D500F098
:101F400091FA401B6528F5D3032069E120788007CA
:101F500056D5DFF8C804016811F00C0F09D00068ED
:101F600010F00C00082818D1DFF8B4040068400213
:101F700013D4DFF8A4040168890704D5E1680129B6
:101F800001D001204CE10168032231F0F8012369FE
:101F900013FA02F21143016032E0E06800281CD01D
:101FA0000120DFF89414086000F05CFA0500DFF807
:101FB00068040168890706D400F054FA401B03281E
:101FC000F5D303202CE10168032231F0F8012369E5
:101FD00013FA02F21143016012E00020DFF85814F6
:101FE000086000F03FFA0500DFF82C040068800765
:101FF00006D500F037FA401B0328F5D303200FE184
:102000002078000728D56069002812D00120DFF869
:102010002C14086000F026FA0500DFF808040068B8
:10202000800719D400F01EFA401B0328F5D30320C3
:10203000F6E00020DFF80414086000F013FA050051
:10204000DFF8E0030068800706D500F00BFA401BBC
:102050000328F5D30320E3E02078400762D500266B
:10206000DFF8DC733868C0000CD4002000903868BA
:1020700050F080503860386810F080500090009820
:1020800001200600DFF8BC83D8F8000050F480700F
:10209000C8F80000D8F80000C00513D4D8F8000034
:1020A00050F48070C8F8000000F0DCF90500D8F8A2
:1020B0000000C00506D400F0D5F9401B0328F6D374
:1020C0000320ADE0DFF88083A06888F80000A068F6
:1020D00000280FD000F0C6F90500D8F800008007EE
:1020E00018D400F0BFF9401B41F289318842F4D383
:1020F000032095E000F0B6F90500D8F8000080074D
:1021000008D500F0AFF9401B41F289318842F4D381
:10211000032085E03000C0B2012803D1386830F0D8
:1021200080503860A069002879D0DFF8F00200689C
:1021300010F00C0008284FD0A069022839D1DFF830
:102140000C830020C8F8000000F08CF90600DFF8CE
:10215000C8723868800106D500F084F9801B6528B4
:10216000F5D303205CE0DFF8B8120A68DFF8E0027C
:102170000240E0690243206A0243606A52EA801228
:10218000E06A52EA0062A06A4008401E52EA004239
:102190000A600120C8F8000000F064F90500386802
:1021A00080013CD400F05EF9401B6528F7D3032082
:1021B00036E00020DFF89412086000F053F90500C3
:1021C000DFF854020068800129D500F04BF9401B6C
:1021D0006528F5D3032023E0A069012801D101205F
:1021E0001EE0DFF83C02016811F48000E2699042D1
:1021F00013D111F03F00226A90420ED1C1F3881032
:10220000626A904209D111F44030A26A904204D12E
:1022100011F07060E26A904201D0012000E00020DD
:10222000BDE8F6812DE9F04104000D00002C01D13C
:10223000012099E0DFF81C72386810F00F00A84206
:1022400007D23D70386810F00F00A84201D001207D
:102250008AE02078800719D52078400705D5DFF877
:10226000BC01016851F4E05101602078000705D5F8
:10227000DFF8A801016851F460410160DFF89C11AA
:102280000A6832F0F002A06802430A602078C007B2
:1022900037D56068012806D1DFF87C01006880032B
:1022A00011D4012060E06068022806D1DFF86801DF
:1022B0000068800107D4012056E057480068800775
:1022C00001D4012050E0DFF85481D8F800108908CB
:1022D000890060680143C8F8001000F0C3F80600E8
:1022E000D8F8000010F00C006168B0EB810F08D046
:1022F00000F0B8F8801B41F289318842F0D3032006
:1023000032E0386810F00F00854207D23D7038681F
:1023100010F00F00A84201D0012025E020784007EE
:1023200006D53E490A6832F4E052E06802430A608A
:102330002078000707D53948016831F460412269E7
:1023400051EAC201016000F011F834490968424ABB
:1023500011F0F0010909515CC84034490860344863
:10236000006800F083FA0020BDE8F0812DE9F0411B
:1023700000240025002600272848006810F00C00E3
:10238000002804D0042804D0082804D031E02648CE
:1023900030E032482EE0DFF88880D8F8000010F0F6
:1023A0003F000400D8F8000040020CD5D8F8000027
:1023B000C0F388102949A1FB00012200002300F08E
:1023C0007BFA05000BE0D8F80000C0F3881016492E
:1023D000A1FB00012200002300F06EFA0500D8F8EE
:1023E0000000C0F30140401C40000600B5FBF6F0C1
:1023F00000E00D48BDE8F0810C480068704780B5EA
:10240000FFF7FAFF05490968154A11F4E051890AF6
:10241000515CC84002BD000000380240083802404C
:1024200004380240743802400024F4000400002004
:10243000000000200238024000004742800E474260
:10244000403802400070004070380240600047424F
:102450000080BCF0003C0240AC55000800127A003D
:102460001456000801480068704700BFC0020020F1
:1024700070477047704770477047704770477047A4
:10248000010091F83500022803D080204865012022
:1024900009E0052081F83500086800684008400020
:1024A0000A6810600020704790F835007047704748
:1024B000704710B5044610460A460146204600F013
:1024C00013FB204610BD2E00F8B403000025086859
:1024D000E840002800F0F08001260F6816FA05F0A9
:1024E00007403A00002A00F0E580087910F0030068
:1024F000012804D0087910F0030002281DD19F683C
:102500005FF0030C2800C0B240001CFA00FC37EA60
:102510000C07D1F80CC02800C0B240001CFA00FC27
:102520005CEA07079F605868AE40B0434E68C6F348
:102530000016AE40304304005C60087910F00300E0
:1025400003280ED0DE6803272800C0B24000874071
:10255000BE438F682800C0B2400087403E4334002D
:10256000DC60087910F00300022818D12800C008A8
:1025700003EB8000066A0F2715F00700C0B2800049
:102580008740BE430F6915F00700C0B28000874046
:102590003E4334002800C00803EB800004621E683C
:1025A00003272800C0B240008740BE430F7917F0D0
:1025B00003072800C0B2400087403E4334001C603F
:1025C000486810F4403F75D000200090DFF8080103
:1025D000066856F480460660006810F4804000905B
:1025E0000098DFF8F8702800800857F820605FF046
:1025F0000F0C15F00300C0B280001CFA00FC36EA94
:102600000C063748834201D1002428E03548834234
:1026100001D1012423E03448834201D102241EE089
:102620003248834201D1032419E03148834201D169
:10263000042414E02F48834201D105240FE02E48E2
:10264000834201D106240AE02C48834201D10724A9
:1026500005E02B48834201D1082400E00924E4B2BC
:1026600015F00300C0B28000844026432800800893
:1026700047F82060234C206890434F68FF0300D543
:1026800010432060204E346894434F68BF0300D548
:10269000144334601D4E306890434F68FF0200D5EC
:1026A000104330601A4E346894434F68BF0200D51F
:1026B000144334606D1C0AE7F1BC70471300DBB2B1
:1026C000002B03D00B009BB2836103E00B009BB295
:1026D0001B04836170470000443802400838014001
:1026E000000002400004024000080240000C0240CA
:1026F000001002400014024000180240001C02407A
:1027000000200240003C0140043C0140083C0140E4
:102710000C3C014010B410F00703DFF83041226890
:102720004FF6FF010A40DFF8281151EA03210A435E
:10273000226010BC7047DFF814010068C0F302206B
:102740007047010049B2002909D4012210F01F018D
:102750008A40404903005BB25B0941F8232070477F
:1027600010B4020052B2002A05D40A013A4B040008
:1027700064B21A5508E00A01384B040064B214F040
:102780000F04234403F8042C10BC704770B40300FA
:1027900013F00704D4F10700052801D3042001E059
:1027A000D4F10700251D072D01D2002500E0E51E0C
:1027B000012616FA00F0401E0140A94016FA05F560
:1027C0006D1E2A401143080070BC704710B504000C
:1027D000601EB0F1807F01D301200EE0601E204911
:1027E00008600F215FF0FF30FFF7BAFF00201D499E
:1027F000086007201C490860002010BD10B50400C7
:102800002000FFF787FF10BD2DE9F04104000D0007
:1028100016000027FFF78FFF804632002900404650
:10282000FFF7B4FF0100200040B2FFF799FFBDE8B9
:10283000F08110B50400200040B2FFF782FF10BD08
:1028400010B504002000FFF7C1FF10BD0CED00E043
:102850000000FA0500E100E000E400E018ED00E00F
:1028600014E000E018E000E010E000E010B5040023
:102870004FF47A700D490978B0FBF1F00C49096802
:10288000B1FBF0F0FFF7DCFF002801D001200CE0E5
:10289000102C09D2002221005FF0FF30FFF7B4FFB7
:1028A00004480460002000E0012010BD4001002029
:1028B0000400002000000020BBBBE1B1B2F5803F66
:1028C00080F07E80022A1ED98C46B1FBF2F102FB19
:1028D00011C31B0443EA1043B3FBF2FC02FB1C339D
:1028E00080B240EA0343B3FBF2F002FB103240EA4D
:1028F0000C4000237047022A05D98446B0FBF2F051
:1029000002FB10C270474AB105D100F0010249082C
:102910005FEA3000704700220023704700F018B9CA
:102920000B000200002100207047904271EB030C65
:10293000F6D3B3F5803F2FD2F0B5B3FA83F7B1FAEF
:1029400081F4A7F10F0E3D1B5340CEF1200602FA91
:102950000EF2F3415340B5F10F0746D80F3C2C441B
:102960004140C4F12006A040F1414140B1FBF3F6E3
:1029700003FB1611A2FB0645001BA94102D2761EDD
:102980008018594180EA010221FA0EF362FA0EF230
:1029900000215A403046F0BD30B4B1FBF3FC03FBDC
:1029A0001C11A2FB0C45001BA94103D2ACF1010C88
:1029B0008018594130BC02460B46604600217047E2
:1029C000B2F1807F65D3F0B5B2FA82F7B1FA81F443
:1029D000C7F10F063D1B22FA06F307F1110EF24173
:1029E00020355A40B5F10F07B8D94140C4F120064F
:1029F000A040F1414140B1FBF3FC03FB1C11A2FBE1
:102A00000C45001BA94103D2BCF1010C80185941AF
:102A10000F2F12D30F3FC90341EA5041B1FBF3F628
:102A200003FB1611A2FB0645D4EBC030A94102D22C
:102A3000761E8018594146EACC3C07B34140C7F1A5
:102A40002006B840F1414140B1FBF3F603FB1611FB
:102A5000A2FB0645001BA94102D2761E80185941EF
:102A600080EA010221FA0EF3C7F1200462FA0EF2A5
:102A70000CFA07F05A402CFA04F13043F0BD80EA1A
:102A8000010221FA0EF3002162FA0EF260465A406A
:102A9000F0BD8C46B1FBF2F102FB11C31B0243EA0D
:102AA0001063B3FBF2FC02FB1C331B024CEA002058
:102AB00043EA1063B3FBF2FC02FB1C331B024CEA3B
:102AC000002043EA1063B3FBF2FC02FB1C331B0241
:102AD0004CEA002043EA1063B3FBF2FC02FB1C3219
:102AE0004CEA00200023704762F30F2262F31F427A
:102AF000401810F0030308D0C91A1FD3DB0748BFE2
:102B000000F8012D28BF20F8022D130030B4144620
:102B10001546103928BF20E93C00FAD8490728BFDC
:102B200020E90C0048BF40F8042D890028BF20F898
:102B3000022D48BF00F8012D30BC7047C91818BFDE
:102B400000F8012DCB0728BF00F8012D7047800049
:102B5000704700002DE9F14FB0B0924604910DF19D
:102B600042013A9A2B9199464A7000200AE01AF8DD
:102B7000011B0498309A90470028049000F0B48616
:102B80000D98401C0D909AF8000050B12528EED108
:102B9000002100220791089209910A920B910C9250
:102BA00004E00D9800F0A2BE41F001011AF8010FF7
:102BB0002028F9D023280CD02B2804D02D2805D08C
:102BC000302809D00BE041F00201EFE741F00401A9
:102BD000ECE741F00801E9E741F01001E6E72A28B7
:102BE0000FD1D9F8002052F8040BC9F800200028B2
:102BF0000F9003D540420F9041F004010AF1010A01
:102C000014E00F92DFF824380AE00F98984205DAB2
:102C100000EB800402EB4402303A0F920AF1010A01
:102C20009AF80020A2F130000A28EED39AF80000AA
:102C30002E2803D04FF0FF320E9229E01AF8010F30
:102C40002A2809D1D9F8000050F8042BC9F800004F
:102C50000E920AF1010A1BE02D280CBF0AF1010AAD
:102C6000002000220E92DFF8C4470BE040B90E9A14
:102C7000A24205DA02EB820503EB4503303B0E93DB
:102C80000AF1010A9AF80030A3F130020A2AEDD3C2
:102C9000ADF84010DFF89807784400F294709AF885
:102CA000001000F039FF08B11AF8010B8DF842004E
:102CB0009DF84200682805D19AF8000068280CD1D8
:102CC000622106E06C2804BF9AF800006C2804D149
:102CD00071218DF842100AF1010A12A806901AF823
:102CE00001BBBBF125012CD01C3900F0D081091F9C
:102CF000022940F2CC81133900F02185093900F016
:102D0000C681891E00F0B685491E00F06385491E04
:102D1000022940F2BC81091F00F05C85491F00F0C8
:102D20002881491E00F00B85491E00F0D080C91E85
:102D30000DD0891E00F00385C91E00F0008500F04B
:102D4000A4BD25238DF84830012100F0A9BDD9F894
:102D5000000050F8044BC9F80000002C059440F026
:102D6000A3802B994878002800F099804FF0FF3419
:102D70000FF6803000F0DCFE201A40F0B58500F040
:102D800090BD6D1E40F0A7853096079D12AF75B1BE
:102D9000309E17F8012B02A9304600F071FE002882
:102DA00001D46D1EF5D10028309640F09D850A9D16
:102DB0003020002D8DF804000CDD309E012301AA87
:102DC00002A9304600F06CFE002840F08D856D1E93
:102DD000F4D13096059F089D75B1309E17F8012BF0
:102DE00002A9304600F04CFE002801D46D1EF5D13A
:102DF0000028309640F078850B9D3020002D8DF80E
:102E000004000CDD309E012301AA02A9304600F027
:102E100047FE002840F068856D1EF4D13096059875
:102E20000899099D471875B1309E17F8012B02A922
:102E3000304600F025FE002801D46D1EF5D1002893
:102E4000309640F051850C9D3020002D8DF8040007
:102E50000CDD309E012301AA02A9304600F020FEBD
:102E6000002840F041856D1EF4D130969DF8400059
:102E700041077FF588AE2020002C8DF804007FF7F5
:102E800082AE309D012301AA02A9284600F008FE67
:102E9000002840F02985641EF4D1309573E60FF6C2
:102EA0006040059000F0FDBC0E9D002D04D520462D
:102EB00000F05EFE044607E02A46204600F074FE5D
:102EC000002814BF041B2C46089400F0EABCD9F873
:102ED000001051F8040BC9F8001020F00004002184
:102EE00021F0FF3512ABCDE902450593DDE9022360
:102EF00006993C2413B90AB90E9898B102F00F054F
:102F00003035641EEEB23A2EA8BF2735120942EAC8
:102F100003721B090D5508BF002A03D005980D192F
:102F2000A842EBD308190590C4F13C020E98089210
:102F300082420ADABDF84010821A4FF6EF70014063
:102F40000A92ADF8401000F0ACBC002840F1A98412
:102F50009DF8400000F01400102840F0A2840F9B60
:102F600007990A985B1A1B1A9A1A002A40F3998447
:102F7000E3E32B99487820B14FF0FF340FF650303F
:102F8000F8E69DF84200622861D0682817D06A28C8
:102F90003FD06C2806D0712847D074282CD07A28CE
:102FA0001DD064E0D9F8001051F8040BC9F80010E6
:102FB000002868D14FF0FF340FF62C30DAE6D9F84C
:102FC000001051F8040BC9F8001020B94FF0FF347D
:102FD0000FF61430CEE60D99018000F062BCD9F8EE
:102FE000001051F8040BC9F8001000284BD14FF025
:102FF000FF340FF6F420BDE6D9F8001051F8040BA9
:10300000C9F8001000283ED14FF0FF340FF6D82049
:10301000B0E6D9F8001051F8040BC9F8001080B9D7
:103020004FF0FF340FF6C020A4E6D9F8001051F895
:10303000040BC9F8001020B94FF0FF340FF6A82098
:1030400098E60D9AD317C0E9002300F02ABCD9F8FE
:10305000001051F8040BC9F8001020B94FF0FF34EC
:103060000FF6842086E60D99017000F01ABCD9F89D
:10307000001051F8040BC9F8001020B94FF0FF34CC
:103080000FF6642076E60D99016000F00ABCD9F8CD
:103090000020D21D22F00702C9F80020D2E9000169
:1030A0000832C9F80020CDE90201C80F02D0079804
:1030B0002D210AE0BDF84000810702D507982B2199
:1030C00003E0C00705D50798202112AA1154401C1F
:1030D000079012A807994BF020024318DDE902017E
:1030E000CDE92C01612A059321AC0BD00E98002864
:1030F00002D506200E9005E001BF4BF020006728A6
:1031000001210E91DDE9020148004015401C0A46EC
:103110000DD109030BD0ABF1610503201A2D0890E6
:1031200002D20FF6E0110DE00FF6DC110AE070B9E3
:1031300012030CD1ABF1610503201A2D08901AD3AC
:103140000FF6CC110322184600F05AFDA9E3DDE981
:103150000201CDE92E01DDE92E2323F00047B7F56A
:10316000801F22F000060DD20022002F08BF002E83
:10317000009203D116E00FF69411E3E76A4600F0DF
:1031800093FD0FE0DFF8D808DFF8D81800EB1750F0
:103190000090DDE92E234FF0FF301940DFF8C878AA
:1031A00010403943CDE902014BF0200061280DD1D8
:1031B000059830210170821CBBF1610F05920CBF94
:1031C0007821582141700798801C0790DDE90201A1
:1031D00020F0000231F0004308BF002A02D100268F
:1031E000002567E14BF02008B8F1610F40F0B48092
:1031F0000E98002847BF21210191401C0190019F9A
:10320000DDE92C017F1C00220023DDE9024500F0EE
:1032100083FD00998DF8842038BF85F00045091F93
:10322000002F00910DF1850653DD2046294600222E
:10323000002300F089FD4CD24800400D00F11C0332
:1032400012D0002B10DD40F2FF70834206DBDFF866
:103250001C1805F000421143002011E06FF31E51CD
:1032600041EA035120460BE024F0000035F0004114
:1032700008BF00280FBF29461C22294600F07CFD0C
:1032800004460D4600F016FEFF1F002F804609DDA4
:1032900000F02EFE02460B462046294600F03AFE7C
:1032A00004460D46F01D0721B8F1000F0CDD491E44
:1032B0005EBF08F00F0200F8012D4FEA2818F3D581
:1032C00002E0002200F8012D491EFAD5C61D002F8C
:1032D000ABDC0DF18500361A01988642D8BF304626
:1032E00000280DF1850430D4B04206DA0DF18501D5
:1032F0000A5C082AA8BF0F2100DA0021024621AB90
:10330000134400E0401E13F80159521E8D42F9D0BB
:103310000F2904D10DF185018B5C5B1C8B54002AB5
:1033200004D50099091D21AC401C0091411E0CD40C
:103330006218ABF13A0613783033DDB23A2DA8BFEC
:10334000F318491E02F80139F5D50E99002940F10C
:10335000AF80421E0E92ABE00099DFF8142747F2CF
:103360009750414391FBF2F2DDE92C45009225F0A4
:103370000045D2F1070204DD2046294600F04DFB4E
:103380000BE052420020DFF8EC1600F046FB02464C
:103390000B462046294600F02FFE0446B8F1660F82
:1033A0000E9806BF009F0A3706273F18142FC8BF84
:1033B000142730200D468DF884000DF18506002F6E
:1033C00038DD2046294600F03BFF01460A4606F15B
:1033D000080304200A26B2FBF6F606EB860EA2EBE3
:1033E0004E02303203F8012C0A22B6FBF2F202EB55
:1033F000820EA6EB4E063036401E03F8026DE9D170
:10340000083F002F03F10806D9DD084600F02CFF25
:1034100002460B462046294600F07CFD0022DFF8DC
:10342000583600F02FFF04460D46CAE7CBCCCC0C33
:10343000EC2100000DF18500361A0DF1850404E041
:103440000098401E761E0090641C20783028F7D02B
:10345000B8F1660F02D10099491C04E0B8F1650F7C
:103460000CBF012100210E9808188642B8BF701EBB
:1034700000281DD4B04204DA215C3429C8BF3921A8
:1034800000DC30210246631E9D1800E0401E15F846
:103490000169521E8E42F9D0392902D1A15C491C22
:1034A000A154002A04D50099491C1C46401C0091D7
:1034B0000646009D00F0B8FF406A0778DDF83880C6
:1034C00030B2002802DC01260FF248644BF02000E5
:1034D000662808BF6D1C16D0672846D128B210F1A7
:1034E000040F48DB404546DA9DF840006D1C01079B
:1034F00003D430B24045B8BF804628B2B8EB0008CC
:1035000048BF4FF000080FFA85FBBBF1000F00F336
:10351000B5800898411C0891302205990A54B8F1E9
:10352000000F03DC9DF84000010704D50898411CFA
:10353000089105990F5418EB0B0FB8BFC8F100059F
:103540002DB268420B90A84432B29045B8BF4646AF
:10355000059B089836B2099632462146184400F079
:103560004FFBA8EB06000C90D2E0BBF1610F17D126
:103570004FF0700B19E030B2404504DA9DF840106E
:103580000A0758BF8046B8F1010848BF4FF000084D
:10359000BBF1670F14BF4FF0450B4FF0650B04E014
:1035A000BBF1410F08BF4FF0500B0898411C089128
:1035B000B8F1000F059914F8012B0A5403DC9DF8AB
:1035C000400001071AD50898411C0891B8F1000F76
:1035D00005990F5412DD761E30B280450598089B80
:1035E000B8BF464632B22146184400F009FB08999C
:1035F00036B271180891A8EB06000B90059808994F
:10360000084429B2002980F800B003D42B2242706C
:10361000821C04E02D2242700D46821C6D42002166
:103620002CAB28460AE004460A2094FBF0F000EB9D
:103630008005A4EB450403F8014B491C00B20028A7
:10364000F1DC012906DC4BF02000652804BF3020A6
:1036500002F8010B00292CAB08D1302002F8010B35
:1036600006E0491E585C303002F8010B0029F8DCF6
:10367000059908980844121A099249E030B229B213
:1036800088421CDA0598089B32B22146184400F0A3
:10369000B7FA089936B27118ABEB0606B8F1000F0D
:1036A00008910B9603DC9DF84000020704D50598AD
:1036B00047540999491C0991CDF8308028E00598B4
:1036C000089B2AB22146184400F09AFA0898761B03
:1036D0005844B8F1000F089003DC9DF840100A0729
:1036E00003D5411C089105990F5430B280450598C7
:1036F000089BB8BF464632B204EB0B01184400F0F9
:103700007FFA089836B230180890A8EB06000B90A4
:103710009DF8400000F01400102840F0C280079A85
:1037200008990B988A18099982180C988A18821897
:103730000F98824280F2B580821A0A92B1E09DF819
:103740004200622808D068280ED06A2814D06C285D
:103750001FD0712810D01CE0D9F8001051F8040BCC
:10376000C9F80010C0B21AE0D9F8001051F8040BE3
:10377000C9F8001080B212E0D9F80020D21D22F062
:103780000702C9F80020D2E900010832C9F8002078
:1037900006E0D9F8001051F8040BC9F80010002118
:1037A000CDE902019DF8400001075AD5DDE9022369
:1037B000002B08BF002A54D04BF02000782850D1AD
:1037C000079812A930220A54401C431C079301F8A1
:1037D00000B046E09DF84200622808D068280ED06C
:1037E0006A2814D06C281FD0712810D01CE0D9F89A
:1037F000001051F8040BC9F8001040B21AE0D9F8D3
:10380000001051F8040BC9F8001000B212E0D9F80A
:103810000020D21D22F00702C9F80020D2E90001E1
:103820000832C9F8002006E0D9F8001051F8040B5E
:10383000C9F80010C117CDE90201002902D5079887
:103840002D210AE0BDF84000810702D507982B2101
:1038500003E0C00705D50798202112AA1154401C87
:10386000079012A807990144059102A8594600F053
:103870004FF816E001200790D9F8000050F8041B1B
:10388000C9F800008DF848100BE025210122BBF19A
:10389000000F8DF84810079203D08DF849B002212F
:1038A00007910F9A07980A990C9C121A0898521AB5
:1038B0000B99121A0998521A121A9DF84000141BFB
:1038C00041073FF562AA2020002C8DF804007FF705
:1038D0005CAA309E2546012301AA02A9304600F0C9
:1038E000DFF800283FF44DAA4FF0FF3031B0BDE8BB
:1038F000F08F00007072696E74665F733A206261C7
:103900006420257320617267756D656E7400000018
:103910002DE9FC4307466F293E6908BF082405D0FE
:1039200041F02000782814BF0A2410243C25D7E950
:103930000023642918BF69299046994605D1002BB8
:1039400003D5D8F1000869EB4909B9F1000F08BFA8
:10395000B8F1000F0CD1386B50B9082C39D197F859
:103960003800010735D530203B2586F83B0030E094
:103970008DF80010404649462246E317FEF79CFFAB
:103980003032D0B26D1E3A28019504DB9DF800005C
:10399000A0F151018A187255404649462246E31764
:1039A000FEF78AFF80465FEA010908BFB8F1000F01
:1039B00003D0F86871198842DCD3082C09D197F834
:1039C0003800010705D5705D302802D06D1E30200B
:1039D0007055C5F13C02BA617119F960386B8242C9
:1039E00008DA821A3A624FF6EF70398F0140398750
:1039F000BDE8F38300280ED597F8380000F01400D6
:103A0000102808D17B6B7969386A5B1A1B1A9A1ADD
:103A1000002AC8BF3A62BDE8F3832DE9D0430646C9
:103A20000F4614464FF00008DFF8509012E0E00710
:103A300007D542464B463046394600F023FC064641
:103A40000F464046494642464B4600F01BFC641078
:103A500080468946002CEAD130463946BDE8D083FD
:103A600002FCFFFFFFFF0F800000E03F0000F07F3F
:103A7000A08601000000F03F84D797410000244059
:103A800010B503460C461146A0689847A06020B1C7
:103A9000E06A401CE062002010BD4FF0FF3010BD16
:103AA000F8B505460E4617461C4600205CB117F8CF
:103AB000011BB068A847B06030B1F06A401CF062EA
:103AC0000020641EF3D1F2BD4FF0FF30F2BD0000C4
:103AD0007072696E74665F733A20256E2064697334
:103AE000616C6C6F776564007072696E74663A2001
:103AF00062616420256E20617267756D656E740069
:103B0000000000006E616E004E414E00696E66005E
:103B1000494E460030000000C9B202788A421AB10C
:103B20001CBF10F8012FF9E718BF002070470000F4
:103B300080B500B906A005490B681BB122220021FF
:103B4000984701E000F074FC222002BDC40200206E
:103B5000636F6E73747261696E742068616E646CF9
:103B600065723A20626164206D65737361676500F8
:103B700000F10103810704D010F8011B820781B115
:103B8000FAD10268A2F10131914311F0803104BFF2
:103B900050F8042FF6E709BAB1FA81F100EBD10031
:103BA000401CC01A70470000C9B2830706D0521EDD
:103BB00022D310F8013B9942F7D11FE0083A13D302
:103BC00002F1040241EA012141EA014150F8043BBB
:103BD000121F21BF4B40A3F1013C2CEA030C1CF047
:103BE000803FF3D0C9B2001F083210F8013B521ECB
:103BF00028BF91EA030FF8D818BF0120401E704774
:103C000062B38B0708D0521E11F8013B00F8013B4C
:103C100000F024808B07F6D1830740F0208000BF9E
:103C2000103A07D330B4B1E83810103AA0E8381091
:103C3000F9D230BC530724BFB1E80810A0E808103F
:103C400044BF51F8043B40F8043BD20724BF31F88D
:103C5000022B20F8022B44BF0B7803707047121F11
:103C600017D35B0009D151F8043B20F8023B1B0C31
:103C7000121F20F8023BF6D20BE051F8043B00F88B
:103C8000013B1B0A20F8023B1B0C121F00F8013BF2
:103C9000F3D238BF121D521E24BF11F8013B00F8A9
:103CA000013BF8D87047000010B5144600F002F848
:103CB000226010BDC1F30A5343B14A0012F5001F40
:103CC00028D2A3F2FE32A1EB0251704750EA410C18
:103CD00020D001F0004C31EA0C01B1FA81F204BFAE
:103CE000B0FA80F3D2180B3AB2F120032CBF00FADD
:103CF00003F1914041EA0C013EBFC2F1200C20FAD1
:103D00000CF319439040524240F2FD33D21A01EBBA
:103D100003517047002270474FF4001C1CEB410F09
:103D200094BF1CEB430F09E041EA030C50EA4C0C32
:103D300052EA0C0C03D2994208BF9042704714BF5C
:103D40008B428242704700004FF4001C1CEB410F75
:103D500094BF1CEB430F09E041EA030C50EA4C0C02
:103D600052EA0C0C03D28B4208BF8242704714BF48
:103D70009942904270470000124254D440F2FF7CB6
:103D80001CEA11530FD0634531D09B1863453CBFEB
:103D900001EB0251704701F0004141EA0C51002053
:103DA000AFF30080704750EA410320D001F0004C8F
:103DB00091EA0C011CD0B1FA81F30B3B9A420DD968
:103DC000D21A994051EA0C01C3F1200C20FA0CFCE4
:103DD00061449840531C40F2FF7CD7E7914041EA90
:103DE0000C01C2F1200C20FA0CF3194390407047EB
:103DF000B0FA80F31533202BE0D3202AEED3203AFB
:103E0000203B9A4209D9D21A00FA03F141EA0C0187
:103E10000020531C40F2FF7CB8E700FA02F141EAAF
:103E20000C0100207047524240F2FF7C1CEA115303
:103E30000DD06345DBD0B2EB030C3CBFA1EB0251CC
:103E400070470CF1010221EA035141F4801150EA5C
:103E5000410CCCD001F0004C352A27DC30B481EA8B
:103E60000C01B2F1200309DAC2F12003044601FA81
:103E700003F5D0402843D1409C400CE0C3F1200220
:103E8000450020FA03F418BF44F0010421FA03F0BE
:103E900091400C43002174F1004550F1000051EBBA
:103EA0000C01244230BC7FF47BAF70476146002098
:103EB00076E70000C1F30A5340F2FE329B1A14DD8C
:103EC000D3F120034FEAE17208DDC90241EA505103
:103ED00041F00040D84080185040704703F2E13074
:103EE00010B1D24382F000407047002070470000BC
:103EF000C11768B14840401AB0FA80F29040D21C15
:103F0000C907C2F5846241EA025202EBD0214005A2
:103F10007047000070B44FF0004591EA030F40F184
:103F20008B826B40841A71EB030603D2001BB141F4
:103F3000121973414FF4001C1CEB410F34BF7CEB92
:103F4000430442E00C0DA4EB1356352E4FDC45EA3A
:103F5000C323DB0A45EAC121C912B6F120050DDDF4
:103F600063FA05F6EB4086EA0305124218BF45F0F6
:103F70000105C01851F100010CD213E062FA06F5F8
:103F8000F2405540F3415A40B340F3405A40801844
:103F9000594107D349085FEA30005FEA350528BF79
:103FA00045F0010501F58011420875F1004250F11C
:103FB000000041EB04514E0016F5001F70BC38BFE5
:103FC00070470020090D090570471CEB410F10D206
:103FD00052EA43060BD0BCEB410F05D80C0DAB43A6
:103FE000661E342EB6DD02E0AB438018594170BC2A
:103FF000704770BC70470000F0B540F2FF7581EA71
:10400000030C0CF0004C15EA11541DBF15EA1357B0
:10401000AC42AF42E5E0BC41C1F31301C3F313036B
:10402000801A994143F4801304D2641E4000494130
:1040300080185941C90241EA5051B1FBF3F603FB24
:104040001611A2FB0675D7EBC020A94102D2761E3D
:1040500080185941C90241EA5051B1FBF3FE03FBFC
:104060001E11A2FB0E75D7EBC020A94103D2AEF101
:10407000010E80185941890241EA9051760546EABD
:104080008E2EB1FBF3F603FB1611A2FB0675D7EBE0
:104090008020A94102D2761E80185941C90241EA06
:1040A00050514EEA060EB1FBF3F603FB1611A2FBCC
:1040B0000675D7EBC020A94102D2761E801859415F
:1040C000C90241EA5051B1FBF3F703FB1711A2FB00
:1040D0000735D3EBC020A94167F100070CBF0042B0
:1040E00047F0010766F3D5274FEA1E31B80814F5EB
:1040F000806412DDBD0775F1004250EB0E5051EBAC
:10410000045111F5801F5CBF41EA0C01F0BD4CF079
:104110007F6141F0E0410020F0BDBD076D0840EA3D
:104120000E5041F48011D4F10104B4F120060ADAF2
:10413000C4F120060200E04001FA06F3E140184312
:10414000B24015430EE0342C13DCC6F1200445EADE
:1041500040056D0820FA06F2154321FA06F0A14049
:104160000D43002175F1004250F1000051EB0C01AC
:10417000F0BD00205FEA0C01F0BDCFB992185B41A1
:10418000B3FA83F704BFB2FA82F6BF190B3FB7F157
:1041900020062FBF02FA06F3BB40C7F1200622FA21
:1041A00006F638BF3343BA401CB1E419641E33E746
:1041B0007F4231F00041B1FA81F404BFB0FA80F6D9
:1041C000A4190B3CB4F120062FBF00FA06F1A14060
:1041D000C4F1200620FA06F638BF3143A0403C1B4C
:1041E0001AE7AC421ABF05EA1357AF4212E050EA91
:1041F00041061CBF52EA4306BFE750EA410730467A
:1042000061461CBF41EA0551F0BD52EA430C08BFAC
:10421000C143F0BD00204FF4001616EB410F98BFCC
:1042200016EB430F08BF16EB410F24BFC14305E057
:1042300016EB430F0CBF61464CEA0551F0BD000080
:10424000400D491840EA81200CD2490DA1F580614A
:10425000491C40F0004005DBD1F11F0154BFC840AC
:10426000C017704700207047014648B1B0FA80F18E
:104270008840C91CC1F58461090501EBD0214005C6
:1042800070470000B0B581EA030C0CF0004C40F21E
:10429000FF7515EA11541DBF15EA1357AC42AF4222
:1042A00039E0E41923EA455343F48013C90241F08D
:1042B000004141EA505EC7021100A7FB020200283C
:1042C0004FF00000EEFB01204FF00001E3FB07215F
:1042D00018BF42F00102401800214941E3FB0E01E2
:1042E000A4F580640F0302D252004041494154F1C9
:1042F00001046CDD470872F1004250F1000051EBFF
:104300000451A1F580115CBF41EA0C01B0BD4CEA3B
:1043100005510020B0BD05EA1357AC4214BFAF42AF
:1043200041E050EA410E1CBF52EA430E02E06146F2
:104330000020B0BD24423C441BD15FEA070EF6D0FA
:10434000090302BF01460020AEF1140EB1FA81F755
:10435000AEEB070401FA07FE0C37C7F1200100FAA3
:1043600007F7C8404EEA000E23EA455343F4801392
:10437000A2E733F00043B3FA83F704BFB2FA82FE38
:1043800077440B3FE41BB7F1200E2FBF02FA0EF368
:10439000BB40C7F1200E22FA0EFE38BF43EA0E03DF
:1043A000BA40641C82E750EA410E14BF52EA430E41
:1043B0006FF000014FF4001717EB430F8ABF194647
:1043C00017EB410FB5E74CEA05510020B0BDD4F121
:1043D0000104B4F120070FDAC4F12007520828BF06
:1043E00042F0010210FA07F501FA07F7E1BF2A438C
:1043F000E0403843E1400FE0352C98DCC7F1200461
:1044000052EA400220FA07F218BF42F0010231FAE4
:1044100007F0A1400A43002172F1004250F1000070
:1044200051EB0C01B0BD00000048704708000020AF
:10443000012000F0B7B80000841A71EB030604D223
:104440006E40001BB141121973414FF4001C1CEB6C
:10445000410F34BF7CEB430683E00C0DA4EB1356F5
:10446000362E00F37C80012E45EAC32341DC43EA6B
:10447000525312BFD20292025B08240545EAC121C1
:1044800041EA5051D2EBC020994125D407D1B0FA6E
:1044900080F610FA06F162D00020203608E0B1FA6A
:1044A00081F6B140C6F1200220FA02F21143B04079
:1044B0004FEAF474B4EB465434F001064FEA740446
:1044C0000AD8D6F50016760D04F00044F04061FAE3
:1044D00006F25040F1404840C00A40EA415021F005
:1044E000004128BF5FEA500550F1000044EBD121A4
:1044F00035E0DB0A45EAC121C90AB6F120050EDD27
:1045000042EA0242120CC5F1200603FA06F6EB401D
:1045100042EA06056D42984161F100010DE062FA40
:1045200006F5F240554063FA06FC82EA0C02F340BD
:104530005A406D42904161EB030111F4801F05D197
:10454000641E620502D06D004041494121F4801192
:10455000430875F1004350F1000041EB045170BC79
:1045600070471CEB410F15D223F0004352EA43067B
:104570000BD04FEA4C0CBCEB410F04D80C0D661E5F
:10458000342EB7DDEBE7801A994150EA410608BFA7
:104590000021E4E708BF1CEB430F28BF6FF00001C8
:1045A000DDE7000080B500F007F8024A110018208E
:1045B000ABBEFBE72600020010B500F052F8020087
:1045C00000230024E4431068A04203D0110002201D
:1045D000ABBE13605068A04203D0111D0220ABBED9
:1045E000536010BDF0B583B0040000F03AF8A100AC
:1045F00047183D680026F643B54216D100F01AF878
:104600003D68B5420FD100BF09A00090002C01D138
:10461000002000E004200190032002906946012060
:10462000ABBE05003D6000F014F8280003B0F0BDFB
:104630003A7474000C480121BFF35F8FD0E84F3FFC
:10464000C0E8421F002AF9D1BFF35F8F002BF3D1DE
:1046500070470548BFF35F8F00210170BFF35F8F84
:104660007047024870470000CC020020380100204B
:104670007FB504000D0016004FF47A7002903000F0
:10468000C0B280B2019000950123220092B2D421E1
:10469000DFF8A402FBF724FF04B070BD3EB50400B0
:1046A0000D004FF47A7002900120019000950123D3
:1046B000220092B2D421DFF88002FBF759FE3EBD02
:1046C00080B5012269460B20FFF7D2FF9DF800005C
:1046D000C0F30010002804D0DFF8600200F054F9A5
:1046E00003E0DFF85C0200F04FF99DF8000010F0E5
:1046F0000700C0B201280AD02CD3032811D00BD355
:10470000052818D012D307281FD019D322E0DFF8CC
:10471000340200F039F921E0DFF82C0200F034F91E
:104720001CE0DFF8280200F02FF917E0DFF8200284
:1047300000F02AF912E0DFF81C0200F025F90DE084
:10474000DFF8140200F020F908E0DFF8100200F0B2
:104750001BF903E0DFF8080200F016F901BD1CB5F3
:10476000040040F69800844200DB0400652C01DA66
:1047700064200400322094FBF0F08DF800006946BC
:104780000120FFF78BFF13BD10B504002000C0B25D
:10479000C0F38000002807D101224FF40051DFF858
:1047A000C401FDF78BFF06E000224FF40051DFF853
:1047B000B401FDF783FF2000C0B2C0F34000002821
:1047C00007D101224FF48041DFF89801FDF776FF11
:1047D00006E000224FF48041DFF88801FDF76EFF0C
:1047E000E00707D401224FF40041DFF87801FDF71C
:1047F00065FF06E000224FF40041DFF86801FDF795
:104800005DFF10BD80B5012269460C20FFF730FF27
:104810009DF80000C0F30210C0B2FFF7B5FF01BD64
:1048200038B5040000F07CF8642000F0C1F80122E3
:1048300069461520FFF71CFF9DF80000C0B2C009B3
:10484000C0B2002804D1DFF8200100F09DF80EE08E
:1048500002220DF102012000C0B280B2FFF708FF72
:104860009DF802009DF8031051EA00210D00280078
:1048700080B232BD10B51D20FFF7D2FF0400210029
:1048800089B2DFF8E80000F07FF8200080B210BDA8
:1048900010B52320FFF7C4FF0400210089B24908A6
:1048A00089B2DFF8CC0000F06FF8200080B210BDB4
:1048B00010B51720FFF7B4FF0400210089B2DFF81C
:1048C000B40000F061F8200080B210BD10B51920CE
:1048D000FFF7A6FF0400210089B2DFF89C0000F07A
:1048E00053F8200080B210BD10B51F20FFF798FFCD
:1048F0000400210089B2DFF8840000F045F82000B0
:1049000080B210BD10B52620FFF78AFF04002100F9
:1049100089B2DFF86C0000F037F8200080B210BDDB
:1049200080B5DFF8600000788DF80000694615203A
:10493000FFF7B4FE01BD0000C40100202C550008A3
:104940003C5500084C550008CC5500085C55000843
:104950006C550008C4540008A8540008D855000835
:104960007C55000800100240E4550008F05500088E
:10497000FC55000818550008DC5400088C55000848
:104980009C5500084E2B00080EB4C0B5024603A883
:1049900000210190009101AB0121044878440C30C2
:1049A000FEF7D8F806BC5DF810FB00BF490B00000D
:1049B00031B5FDF757FD0400009D15F1010F02D040
:1049C000044800784519FDF74DFD001BA842FAD3B5
:1049D00031BD00BF4001002080B500F011F900F0AA
:1049E00025F800F079F800F05BF84FF4FA60FFF773
:1049F000DFFFFFF73FFFFFF75BFFFFF767FFFFF703
:104A000073FFFFF77FFFFFF743FFFFF7FBFE4FF456
:104A1000FA70FFF7A4FEFFF753FE0022042170484E
:104A2000FDF74CFE0520FFF7AFFEDEE700B591B0C5
:104A30003022002105A8FDF73CFD14220021684624
:104A4000FDF737FD012005900120069002200B9014
:104A50005FF480000C9008200D90C0200E90022082
:104A60000F900420109005A8FDF726FA002801D029
:104A700000F0C4F80F200090022001900020029066
:104A80004FF4A05003904FF48050049003216846E7
:104A9000FDF7C8FB002801D000F0B0F811B000BD50
:104AA00080B5504850490160504941600021816003
:104AB0000021C1604FF4804101610021416100216A
:104AC00081610021C16100210162FBF75BFB0028CD
:104AD00001D000F093F801BD70B586B0142200211A
:104AE0006846FDF7E6FC002005904148016851F05A
:104AF00004010160016811F004010591059900218C
:104B00000591016851F080010160016811F0800198
:104B10000591059900210591016851F0010101609D
:104B2000016811F0010105910599002105910168C5
:104B300051F002010160016811F00201059105992F
:104B400000210591016851F010010160006810F02A
:104B5000100005900598274E002201213000FDF736
:104B6000ADFD1F4C002204212000FDF7A7FD224DC2
:104B700000224FF460412800FDF7A0FD01200090C5
:104B8000012001900020029000200390694630002F
:104B9000FDF79AFC02200090002001900020029076
:104BA00069462000FDF790FC042000900120019050
:104BB000002002900020039069462000FDF784FC4D
:104BC0004FF46040009001200190002002900020EE
:104BD000039069462800FDF777FC06B070BD000021
:104BE00000040240C401002000540040A0860100DF
:104BF00030380240000002400010024072B6FEE76A
:104C000080B50B48016851F400710160016851F4EE
:104C100080610160016851F4807101600320FDF73B
:104C2000EDFD0F20FDF722FEFDF7DCF8002002BDB0
:104C3000003C024010B50446AFF30080204600F06F
:104C400005F80446AFF30080204610BDF8B500F12A
:104C50000F04E408E400A0422BD2082C04D208245C
:104C600002E0083000F047F8DFF80021136819006F
:104C700005D1002007E00568A5420DD2011D086896
:104C80000028F8D11868111D00E0191D0B68834237
:104C90000BD01D68A542F8D359B10B6818680838C5
:104CA000A04208D2586808600FE000F061F80028C0
:104CB000D7D10020F2BD181908601D1D5868285171
:104CC0001E680F68361B3E601C60096800291DBF06
:104CD00048680028081D0020106003F10800F2BD9C
:104CE00010B5040006D0AFF30080204600F003F8B2
:104CF000AFF3008010BD002800D1704770B4A0F160
:104D000008021368072B2ED913F0070F2BD1DFF8F9
:104D10005C40616809B18A4203D25160626015E06B
:104D20000146486808B19042FAD308680E18B242AA
:104D300019D3964203D11B180B600A4606E0486857
:104D400010B1134498420ED350604A60506850B17D
:104D50001368D518854206D1002626600168CB1855
:104D600013604068506070BC70470000B8020020BB
:104D70000749086808B1002070470648C008C0000D
:104D800008600549C908C900091A0160704700BFD9
:104D9000C8020020D7060020D00800202DE9F041ED
:104DA00007468846387810F0030F16461D4633D064
:104DB000384600F099F878BBB8F1000F1CBFD8E96D
:104DC00000018619012D2ED13888C10415D5396A04
:104DD00007F14402384600F0A3F83A6B044602B9E2
:104DE0003A69F968384600F09BF8361B341A7A693C
:104DF000F968384600F094F8261A1EB94DB916F134
:104E0000010F09D097F903002A46314600F08EF8C9
:104E1000064616F1010F09D12320AFF300804FF0B1
:104E2000FF30BDE8F081022DE8D1EBE7388810F4BF
:104E3000405F0ED07868F86038617861B86107F13A
:104E400044017868F861396207F130000021786226
:104E50003963B8F1000F05D0D8E9020107F1340237
:104E6000C2E900013B884CF6FF6003403B80002014
:104E7000BDE8F08170B50546AFF300802888810455
:104E80002DD56E68002400E00644EA6895F9030019
:104E90003146914208D2521A00F06DF810F1010F1C
:104EA00009D00028F0D106E00022002100F063F8CC
:104EB00010F1010F00D101246868E860A861E86181
:104EC000298844B141F4007129802846AFF300805D
:104ED0004FF0FF3070BD4DF6FF700140298028462D
:104EE000AFF30080002070BDF8B5A0B9AFF300802B
:104EF00000250A4E08244FF0FF37306820B1FFF735
:104F0000B9FF002848BF3D46361D641EF5D1AFF3FA
:104F100000802846F2BDBDE8F240ABE71801002052
:104F2000914234BF511A0021084670473EB5040033
:104F30000D00012A02D100F06BF807E0022A07D128
:104F400000940020019069460C20ABBE2D1801E0B2
:104F5000002A0CD10094019569460A20ABBE0028B6
:104F600005D100222100280000F02FF801E00020E8
:104F7000C04303B030BD80B5002802D400F06AF809
:104F800002BD002002BD000010B4314A00211346CA
:104F90001C6884421EBF491C9C6884421EBF491C79
:104FA0001C69844209D09C69491C844205D0491C73
:104FB00020331029ECD310BC7047002342F8313065
:104FC00002EBC1014B6010BC704770B4204C002351
:104FD00025462E688E421EBF5B1CAE688E421EBFE9
:104FE0005B1C2E698E4209D0AE695B1C8E4205D0D7
:104FF0005B1C2035102BECD370BC7047054604EBCE
:10500000C303012A04BF59684D195D6070BC704725
:1050100010B40F4A002113461C6884421EBF491C6D
:105020009C6884421EBF491C1C6984420AD09C694A
:10503000491C844206D0491C20331029ECD310BCF3
:105040000020704702EBC100406810BC70470000B0
:105050004401002080B5002901D1002002BD0128B3
:1050600001D0022802D100F004F802BD00F011F8CE
:1050700002BD30B583B00C0015000120FFF7B2FA75
:1050800000900194029569460520ABBE281A03B032
:1050900030BD18B583B00300140000930191029451
:1050A00069460520ABBE01221900201AFFF78DFFCB
:1050B00004B010BD10B50446E068A169884251D320
:1050C000218849F202030B40022B08D008044CBF90
:1050D0004FF400704FF48440014321803BE001F421
:1050E000C042B2F5C04F06D1A168884203D3204622
:1050F000FFF7FAFE78BB208810F4406F02BF6068AB
:1051000004F14401884217D14FF40070FFF792FD7B
:10511000606030B904F144006060E060401CA06051
:105120000AE0218841F040012180E060606100F5E3
:1051300000726068A260E0616068A1682061A1619E
:10514000207841070AD502220021204600F00CF801
:1051500010F1010F02D14FF0FF3010BD208840F454
:10516000C0402080002010BD70B504460D46164694
:10517000AFF3008033462A4600212046FFF70EFE9B
:1051800005462046AFF30080284670BD82B0017806
:105190000A062FD523490B6800930022834203D1CE
:1051A000002341F8223022E04B6800930122834221
:1051B0001FBF02228B6800938342F1D0CB6800931B
:1051C000032283421FBF04220B6900938342E7D06E
:1051D0004B690093052283421FBF06228B6900930F
:1051E0008342DDD00722CB6900938342D8D002B03E
:1051F00000F01AB8002101804FF0FF3200F14401A5
:10520000C270C1604161C16100F1440300F1440218
:1052100000F130014360026182610262416202B0CA
:105220007047000018010020FFF75ABD38B5040090
:105230000ED0207810F0030F03D094F9030000285B
:1052400009D5AFF300802046FFF7A0FFAFF3008041
:105250004FF0FF3032BD2046FFF746FE0546AFF364
:1052600000802078410644BF6068FFF7DDFF002022
:10527000606094F90300022804D900F016F808B120
:105280004FF0FF35E06B48B100F01BF808B14FF06C
:10529000FF35E06BFFF7C8FF0020E0632046FFF713
:1052A00075FFAFF30080284632BD1CB502000092A6
:1052B00069460220ABBE04001000FFF765FE200027
:1052C00016BDE0B50090FEF753FC019069460E2034
:1052D000ABBE03B000BDF0B4024610689568131869
:1052E000506803EB5004C0071CD54D441AE013F876
:1052F000017B05F8017B491EF9D198B113F8011B18
:10530000C6F38106032E08BF13F8016B01EB0621DB
:105310004942801C294405D011F8016B05F8016B46
:10532000401EF9D1A3420ED013F8016B16F0030111
:1053300004BF13F8011BC91C30090F28DBD113F877
:10534000010B0F30D7E7F0BC02F10C00704738B505
:105350000C46C5B22046AFF30080E068A1698842E0
:1053600004D32046FFF7A6FE00280FD4E068401CB7
:10537000E06000F8015D2088010503D440050BD5ED
:105380000A2D09D12046FFF7AFFD28B12046AFF323
:1053900000804FF0FF3032BD2046AFF3008028463A
:1053A00032BD000038B50D4D0824286800281CBF08
:1053B000017811F0030F05D090F90310002958BFB0
:1053C000FFF734FF2D1D641EEFD1BDE838400022E9
:1053D00000214FF0FF30FFF7CEBD00BF18010020C5
:1053E000FEE7FEE7FEE7FEE7FEE77047704770471F
:1053F00080B500F00DF801BD80B50448FBF7F6F963
:1054000001BD80B50148FBF7D6FA01BDC4010020FB
:1054100003490A680348007882180A60704700BF91
:10542000C00200204001002010B50749794418311E
:10543000064C7C44163404E00A68081D1144884771
:105440000146A142F8D110BD080000002400000070
:105450005BC9FFFF8C010000440100200000000038
:1054600077FEFFFFFC020000DE00000000000020CD
:1054700000F00DF8002801D0FFF7D6FFAFF3008051
:105480000020AFF30080FFF7A7FA00F002F8012038
:10549000704700F001B800000746FFF783FF384669
:1054A000FFF780F8FBE700004368617267652054EE
:1054B00065726D696E6174696F6E20446F6E650A06
:1054C00000000000546F702D6F66662054696D6592
:1054D00072204368617267696E670A00436861728F
:1054E00067652063757272656E74203D2025640ABD
:1054F0000000000038B504460D46284600F006F8C6
:10550000A84218BF0024204632BD00000149FFF721
:105510001EBF00BF8800002056627573206375723D
:1055200072656E74203D2025640A00004465666142
:10553000756C74206D6F64653B202000486F737438
:10554000206D6F64653B2020000000005472696389
:105550006B6C65204368617267650A00466173740D
:105560002D6368617267650A000000005461706510
:1055700072204368617267650A0000004E6F7420F4
:105580004368617267696E670A0000005663656C64
:105590006C20746F70203D2025640A005663656C92
:1055A0006C20626F74203D2025640A00000000001A
:1055B00000000000010203040607080901488047B3
:1055C000014800475D570008095600085072652DD4
:1055D0006368617267650A00526573657276656417
:1055E0000A000000414443206973206F66660A0088
:1055F00056626174203D2025640A000054656D7078
:10560000203D2025640A0000AFF30080AFF3008046
:10561000FFF72EFF0000000001020304686A6C74AB
:105620007A4C0000FFF7FEBFFFF7FEBFFFF7FEBF9B
:10563000FFF7FEBFFFF7FEBFFFF7FEBFFFF7FEBF9E
:10564000FFF7FEBFFFF7FEBFFFF7FEBFFFF7FEBF8E
:10565000FFF7FEBFFFF7FEBFFFF7FEBFFFF7FEBF7E
:10566000FFF7FEBFFFF7FEBFFFF7FEBFFFF7FEBF6E
:10567000FFF7FEBFFFF7FEBFFFF7FEBFFFF7FEBF5E
:10568000FFF7FEBFFFF7FEBFFFF7FEBFFFF7FEBF4E
:10569000FFF7FEBFFFF7FEBFFFF7FEBFFFF7FEBF3E
:1056A000FFF7FEBFFFF7FEBFFFF7FEBFFFF7FEBF2E
:1056B000FFF7FEBFFFF7FEBFFFF7FEBFFFF7FEBF1E
:1056C000FFF7FEBFFFF7FEBFFFF7FEBFFFF7FEBF0E
:1056D000FFF7FEBFFFF7FEBFFFF7FEBFFFF7FEBFFE
:1056E000FFF7FEBFFFF7FEBFFFF7FEBFFFF7FEBFEE
:1056F000FFF7FEBFFFF7FEBFFFF7FEBFFFF7FEBFDE
:10570000FFF7FEBFFFF7FEBFFFF7FEBFFFF7FEBFCD
:10571000FFF7FEBFFFF7FEBFFFF7FEBFFFF7FEBFBD
:10572000FFF7FEBFFFF7FEBFFFF7FEBFFFF7FEBFAD
:10573000FFF7FEBFFFF7FEBFFFF7FEBFFFF7FEBF9D
:10574000FFF7FEBFFFF7FEBFFFF7FEBFFFF7FEBF8D
:10575000FFF7FEBFFFF7FEBFFFF7FEBF7047000079
:1057600013100001F0050724F4004F2B0008045229
:10577000FF01E3C6241410090000010400008400A6
:10578000002085045284042153A10852700CF10BAF
:105790000110070204010168020020B804526804E5
:1057A0002134610812CC44F213B8485002080202B6
:1057B00018405218042134610813140108F2110131
:0F57C0004812406C128804F206D074651402017E
:040000050800560990
:00000001FF
