:020000040800F2
:10000000C0060020C5420008D5410008D7410008BD
:10001000D9410008DB410008DD4100080000000074
:10002000000000000000000000000000DF410008A8
:10003000E141000800000000E3410008E54100083C
:10004000F9420008FD42000801430008054300088A
:10005000094300080D430008114300081543000838
:10006000194300081D4300082143000825430008E8
:10007000294300082D430008314300083543000898
:10008000394300083D430008414300084543000848
:10009000494300084D4300085143000855430008F8
:1000A000594300085D4300086143000865430008A8
:1000B000694300086D430008714300087543000858
:1000C000794300087D430008814300088543000808
:1000D00089430008ED4100088D4300089143000862
:1000E00095430008994300089D430008A143000878
:1000F000A5430008A9430008AD430008B143000828
:10010000B5430008B9430008BD430008C1430008D7
:10011000C5430008C9430008CD430008D143000887
:10012000D5430008D9430008DD430008E143000837
:10013000E5430008E9430008ED430008F1430008E7
:10014000F5430008F9430008FD4300080144000896
:1001500005440008094400080D4400081144000843
:1001600015440008194400081D44000821440008F3
:1001700025440008294400082D4400080000000020
:10018000314400082DE9F14FB0B0924604910DF1D1
:1001900042013A9A2B9199464A7000200AE01AF8D7
:1001A000011B0498309A90470028049000F0B48610
:1001B0000D98401C0D909AF8000050B12528EED102
:1001C000002100220791089209910A920B910C924A
:1001D00004E00D9800F0A2BE41F001011AF8010FF1
:1001E0002028F9D023280CD02B2804D02D2805D086
:1001F000302809D00BE041F00201EFE741F00401A3
:10020000ECE741F00801E9E741F01001E6E72A28B0
:100210000FD1D9F8002052F8040BC9F800200028AB
:100220000F9003D540420F9041F004010AF1010AFA
:1002300014E00F92DFF824380AE00F98984205DAAC
:1002400000EB800402EB4402303A0F920AF1010AFB
:100250009AF80020A2F130000A28EED39AF80000A4
:100260002E2803D04FF0FF320E9229E01AF8010F2A
:100270002A2809D1D9F8000050F8042BC9F8000049
:100280000E920AF1010A1BE02D280CBF0AF1010AA7
:10029000002000220E92DFF8C4470BE040B90E9A0E
:1002A000A24205DA02EB820503EB4503303B0E93D5
:1002B0000AF1010A9AF80030A3F130020A2AEDD3BC
:1002C000ADF84010DFF89807784400F294709AF87F
:1002D000001000F055FF08B11AF8010B8DF842002C
:1002E0009DF84200682805D19AF8000068280CD1D2
:1002F000622106E06C2804BF9AF800006C2804D143
:1003000071218DF842100AF1010A12A806901AF81C
:1003100001BBBBF125012CD01C3900F0D081091F95
:10032000022940F2CC81133900F02185093900F00F
:10033000C681891E00F0B685491E00F06385491EFE
:10034000022940F2BC81091F00F05C85491F00F0C2
:100350002881491E00F00B85491E00F0D080C91E7F
:100360000DD0891E00F00385C91E00F0008500F045
:10037000A4BD25238DF84830012100F0A9BDD9F88E
:10038000000050F8044BC9F80000002C059440F020
:10039000A3802B994878002800F099804FF0FF3413
:1003A0000FF6803000F0F8FE201A40F0B58500F01E
:1003B00090BD6D1E40F0A7853096079D12AF75B1B8
:1003C000309E17F8012B02A9304600F071FE00287C
:1003D00001D46D1EF5D10028309640F09D850A9D10
:1003E0003020002D8DF804000CDD309E012301AA81
:1003F00002A9304600F06CFE002840F08D856D1E8D
:10040000F4D13096059F089D75B1309E17F8012BE9
:1004100002A9304600F04CFE002801D46D1EF5D133
:100420000028309640F078850B9D3020002D8DF807
:1004300004000CDD309E012301AA02A9304600F021
:1004400047FE002840F068856D1EF4D1309605986F
:100450000899099D471875B1309E17F8012B02A91C
:10046000304600F025FE002801D46D1EF5D100288D
:10047000309640F051850C9D3020002D8DF8040001
:100480000CDD309E012301AA02A9304600F020FEB7
:10049000002840F041856D1EF4D130969DF8400053
:1004A00041077FF588AE2020002C8DF804007FF7EF
:1004B00082AE309D012301AA02A9284600F008FE61
:1004C000002840F02985641EF4D1309573E60FF6BC
:1004D0006040059000F0FDBC0E9D002D04D5204627
:1004E00000F07AFE044607E02A46204600F090FE1F
:1004F000002814BF041B2C46089400F0EABCD9F86D
:10050000001051F8040BC9F8001020F0000400217D
:1005100021F0FF3512ABCDE902450593DDE9022359
:1005200006993C2413B90AB90E9898B102F00F0548
:100530003035641EEEB23A2EA8BF2735120942EAC2
:1005400003721B090D5508BF002A03D005980D1929
:10055000A842EBD308190590C4F13C020E9808920A
:1005600082420ADABDF84010821A4FF6EF7001405D
:100570000A92ADF8401000F0ACBC002840F1A9840C
:100580009DF8400000F01400102840F0A2840F9B5A
:1005900007990A985B1A1B1A9A1A002A40F3998441
:1005A000E3E32B99487820B14FF0FF340FF6503039
:1005B000F8E69DF84200622861D0682817D06A28C2
:1005C0003FD06C2806D0712847D074282CD07A28C8
:1005D0001DD064E0D9F8001051F8040BC9F80010E0
:1005E000002868D14FF0FF340FF62C30DAE6D9F846
:1005F000001051F8040BC9F8001020B94FF0FF3477
:100600000FF61430CEE60D99018000F062BCD9F8E7
:10061000001051F8040BC9F8001000284BD14FF01E
:10062000FF340FF6F420BDE6D9F8001051F8040BA2
:10063000C9F8001000283ED14FF0FF340FF6D82043
:10064000B0E6D9F8001051F8040BC9F8001080B9D1
:100650004FF0FF340FF6C020A4E6D9F8001051F88F
:10066000040BC9F8001020B94FF0FF340FF6A82092
:1006700098E60D9AD317C0E9002300F02ABCD9F8F8
:10068000001051F8040BC9F8001020B94FF0FF34E6
:100690000FF6842086E60D99017000F01ABCD9F897
:1006A000001051F8040BC9F8001020B94FF0FF34C6
:1006B0000FF6642076E60D99016000F00ABCD9F8C7
:1006C0000020D21D22F00702C9F80020D2E9000163
:1006D0000832C9F80020CDE90201C80F02D00798FE
:1006E0002D210AE0BDF84000810702D507982B2193
:1006F00003E0C00705D50798202112AA1154401C19
:10070000079012A807994BF020024318DDE9020177
:10071000CDE92C01612A059321AC0BD00E9800285D
:1007200002D506200E9005E001BF4BF0200067289F
:1007300001210E91DDE9020148004015401C0A46E6
:100740000DD109030BD0ABF1610503201A2D0890E0
:1007500002D20FF6E0110DE00FF6DC110AE070B9DD
:1007600012030CD1ABF1610503201A2D08901AD3A6
:100770000FF6CC110322184600F076FDA9E3DDE95F
:100780000201CDE92E01DDE92E2323F00047B7F564
:10079000801F22F000060DD20022002F08BF002E7D
:1007A000009203D116E00FF69411E3E76A4600F0D9
:1007B000AFFD0FE0DFF8D808DFF8D81800EB1750CE
:1007C0000090DDE92E234FF0FF301940DFF8C878A4
:1007D00010403943CDE902014BF0200061280DD1D2
:1007E000059830210170821CBBF1610F05920CBF8E
:1007F0007821582141700798801C0790DDE902019B
:1008000020F0000231F0004308BF002A02D1002688
:10081000002567E14BF02008B8F1610F40F0B4808B
:100820000E98002847BF21210191401C0190019F93
:10083000DDE92C017F1C00220023DDE9024500F0E8
:100840009FFD00998DF8842038BF85F00045091F71
:10085000002F00910DF1850653DD20462946002228
:10086000002300F0A5FD4CD24800400D00F11C0310
:1008700012D0002B10DD40F2FF70834206DBDFF860
:100880001C1805F000421143002011E06FF31E51C7
:1008900041EA035120460BE024F0000035F000410E
:1008A00008BF00280FBF29461C22294600F098FDEA
:1008B00004460D4600F032FEFF1F002F804609DD82
:1008C00000F04AFE02460B462046294600F056FE3E
:1008D00004460D46F01D0721B8F1000F0CDD491E3E
:1008E0005EBF08F00F0200F8012D4FEA2818F3D57B
:1008F00002E0002200F8012D491EFAD5C61D002F86
:10090000ABDC0DF18500361A01988642D8BF30461F
:1009100000280DF1850430D4B04206DA0DF18501CE
:100920000A5C082AA8BF0F2100DA0021024621AB89
:10093000134400E0401E13F80159521E8D42F9D0B5
:100940000F2904D10DF185018B5C5B1C8B54002AAF
:1009500004D50099091D21AC401C0091411E0CD406
:100960006218ABF13A0613783033DDB23A2DA8BFE6
:10097000F318491E02F80139F5D50E99002940F106
:10098000AF80421E0E92ABE00099DFF8142747F2C9
:100990009750414391FBF2F2DDE92C45009225F09E
:1009A0000045D2F1070204DD2046294600F04DFB48
:1009B0000BE052420020DFF8EC1600F046FB024646
:1009C0000B462046294600F04BFE0446B8F1660F60
:1009D0000E9806BF009F0A3706273F18142FC8BF7E
:1009E000142730200D468DF884000DF18506002F68
:1009F00038DD2046294600F057FF01460A4606F139
:100A0000080304200A26B2FBF6F606EB860EA2EBDC
:100A10004E02303203F8012C0A22B6FBF2F202EB4E
:100A2000820EA6EB4E063036401E03F8026DE9D169
:100A3000083F002F03F10806D9DD084600F048FF03
:100A400002460B462046294600F098FD0022DFF8BA
:100A5000583600F04BFF04460D46CAE7CBCCCC0C11
:100A6000903800000DF18500361A0DF1850404E080
:100A70000098401E761E0090641C20783028F7D025
:100A8000B8F1660F02D10099491C04E0B8F1650F76
:100A90000CBF012100210E9808188642B8BF701EB5
:100AA00000281DD4B04204DA215C3429C8BF3921A2
:100AB00000DC30210246631E9D1800E0401E15F840
:100AC0000169521E8E42F9D0392902D1A15C491C1C
:100AD000A154002A04D50099491C1C46401C0091D1
:100AE0000646009D00F0D4FF406A0778DDF83880A4
:100AF00030B2002802DC01260FF248644BF02000DF
:100B0000662808BF6D1C16D0672846D128B210F1A0
:100B1000040F48DB404546DA9DF840006D1C010794
:100B200003D430B24045B8BF804628B2B8EB0008C5
:100B300048BF4FF000080FFA85FBBBF1000F00F330
:100B4000B5800898411C0891302205990A54B8F1E3
:100B5000000F03DC9DF84000010704D50898411CF4
:100B6000089105990F5418EB0B0FB8BFC8F1000599
:100B70002DB268420B90A84432B29045B8BF4646A9
:100B8000059B089836B2099632462146184400F073
:100B90006BFBA8EB06000C90D2E0BBF1610F17D104
:100BA0004FF0700B19E030B2404504DA9DF8401068
:100BB0000A0758BF8046B8F1010848BF4FF0000847
:100BC000BBF1670F14BF4FF0450B4FF0650B04E00E
:100BD000BBF1410F08BF4FF0500B0898411C089122
:100BE000B8F1000F059914F8012B0A5403DC9DF8A5
:100BF000400001071AD50898411C0891B8F1000F70
:100C000005990F5412DD761E30B280450598089B79
:100C1000B8BF464632B22146184400F025FB089979
:100C200036B271180891A8EB06000B900598089948
:100C3000084429B2002980F800B003D42B22427066
:100C4000821C04E02D2242700D46821C6D42002160
:100C50002CAB28460AE004460A2094FBF0F000EB97
:100C60008005A4EB450403F8014B491C00B20028A1
:100C7000F1DC012906DC4BF02000652804BF3020A0
:100C800002F8010B00292CAB08D1302002F8010B2F
:100C900006E0491E585C303002F8010B0029F8DCF0
:100CA000059908980844121A099249E030B229B20D
:100CB00088421CDA0598089B32B22146184400F09D
:100CC000D3FA089936B27118ABEB0606B8F1000FEB
:100CD00008910B9603DC9DF84000020704D50598A7
:100CE00047540999491C0991CDF8308028E00598AE
:100CF000089B2AB22146184400F0B6FA0898761BE1
:100D00005844B8F1000F089003DC9DF840100A0722
:100D100003D5411C089105990F5430B280450598C0
:100D2000089BB8BF464632B204EB0B01184400F0F2
:100D30009BFA089836B230180890A8EB06000B9082
:100D40009DF8400000F01400102840F0C280079A7F
:100D500008990B988A18099982180C988A18821891
:100D60000F98824280F2B580821A0A92B1E09DF813
:100D70004200622808D068280ED06A2814D06C2857
:100D80001FD0712810D01CE0D9F8001051F8040BC6
:100D9000C9F80010C0B21AE0D9F8001051F8040BDD
:100DA000C9F8001080B212E0D9F80020D21D22F05C
:100DB0000702C9F80020D2E900010832C9F8002072
:100DC00006E0D9F8001051F8040BC9F80010002112
:100DD000CDE902019DF8400001075AD5DDE9022363
:100DE000002B08BF002A54D04BF02000782850D1A7
:100DF000079812A930220A54401C431C079301F89B
:100E000000B046E09DF84200622808D068280ED065
:100E10006A2814D06C281FD0712810D01CE0D9F893
:100E2000001051F8040BC9F8001040B21AE0D9F8CC
:100E3000001051F8040BC9F8001000B212E0D9F804
:100E40000020D21D22F00702C9F80020D2E90001DB
:100E50000832C9F8002006E0D9F8001051F8040B58
:100E6000C9F80010C117CDE90201002902D5079881
:100E70002D210AE0BDF84000810702D507982B21FB
:100E800003E0C00705D50798202112AA1154401C81
:100E9000079012A807990144059102A8594600F04D
:100EA0004FF816E001200790D9F8000050F8041B15
:100EB000C9F800008DF848100BE025210122BBF194
:100EC000000F8DF84810079203D08DF849B0022129
:100ED00007910F9A07980A990C9C121A0898521AAF
:100EE0000B99121A0998521A121A9DF84000141BF5
:100EF00041073FF562AA2020002C8DF804007FF7FF
:100F00005CAA309E2546012301AA02A9304600F0C2
:100F1000DFF800283FF44DAA4FF0FF3031B0BDE8B4
:100F2000F08F00007072696E74665F733A206261C0
:100F30006420257320617267756D656E7400000012
:100F40002DE9FC4307466F293E6908BF082405D0F8
:100F500041F02000782814BF0A2410243C25D7E94A
:100F60000023642918BF69299046994605D1002BB2
:100F700003D5D8F1000869EB4909B9F1000F08BFA2
:100F8000B8F1000F0CD1386B50B9082C39D197F853
:100F90003800010735D530203B2586F83B0030E08E
:100FA0008DF80010404649462246E31700F074FDD4
:100FB0003032D0B26D1E3A28019504DB9DF8000056
:100FC000A0F151018A187255404649462246E3175E
:100FD00000F062FD80465FEA010908BFB8F1000F2A
:100FE00003D0F86871198842DCD3082C09D197F82E
:100FF0003800010705D5705D302802D06D1E302005
:101000007055C5F13C02BA617119F960386B8242C2
:1010100008DA821A3A624FF6EF70398F0140398749
:10102000BDE8F38300280ED597F8380000F01400CF
:10103000102808D17B6B7969386A5B1A1B1A9A1AD7
:10104000002AC8BF3A62BDE8F3832DE9D0430646C3
:101050000F4614464FF00008DFF8509012E0E0070A
:1010600007D542464B463046394600F03FFC06461F
:101070000F464046494642464B4600F037FC641056
:1010800080468946002CEAD130463946BDE8D083F7
:1010900002FCFFFFFFFF0F800000E03F0000F07F39
:1010A000A08601000000F03F84D797410000244053
:1010B00010B503460C461146A0689847A06020B1C1
:1010C000E06A401CE062002010BD4FF0FF3010BD10
:1010D000F8B505460E4617461C4600205CB117F8C9
:1010E000011BB068A847B06030B1F06A401CF062E4
:1010F0000020641EF3D1F2BD4FF0FF30F2BD0000BE
:101100007072696E74665F733A20256E206469732D
:10111000616C6C6F776564007072696E74663A20FA
:1011200062616420256E20617267756D656E740062
:10113000000000006E616E004E414E00696E660058
:10114000494E4600300030B4002513E050F8042B1F
:10115000D30744BFA9F101039A18091F042942F8D3
:10116000045BFAD213468C0744BF15809B1CC90749
:1011700048BF1D7050F8041B0029E7D130BC7047F0
:10118000C9B202788A421AB11CBF10F8012FF9E7E0
:1011900018BF002070472E0080B500B906A0054991
:1011A0000B681BB122220021984701E000F08CFD62
:1011B000222002BDB4020020636F6E7374726169F5
:1011C0006E742068616E646C65723A20626164209E
:1011D0006D6573736167650000F10103810704D0D9
:1011E00010F8011B820781B1FAD10268A2F1013126
:1011F000914311F0803104BF50F8042FF6E709BA8B
:10120000B1FA81F100EBD100401CC01A7047000018
:10121000C9B2830706D0521E22D310F8013B99426F
:10122000F7D11FE0083A13D302F1040241EA012189
:1012300041EA014150F8043B121F21BF4B40A3F18A
:10124000013C2CEA030C1CF0803FF3D0C9B2001F14
:10125000083210F8013B521E28BF91EA030FF8D85C
:1012600018BF0120401E704762B38B0708D0521E82
:1012700011F8013B00F8013B00F024808B07F6D108
:10128000830740F0208000BF103A07D330B4B1E8A4
:101290003810103AA0E83810F9D230BC530724BFF8
:1012A000B1E80810A0E8081044BF51F8043B40F82A
:1012B000043BD20724BF31F8022B20F8022B44BF95
:1012C0000B7803707047121F17D35B0009D151F8D8
:1012D000043B20F8023B1B0C121F20F8023BF6D205
:1012E0000BE051F8043B00F8013B1B0A20F8023BDD
:1012F0001B0C121F00F8013BF3D238BF121D521E07
:1013000024BF11F8013B00F8013BF8D870470000FA
:1013100010B5144600F002F8226010BDC1F30A5364
:1013200043B14A0012F5001F28D2A3F2FE32A1EB0E
:101330000251704750EA410C20D001F0004C31EAD4
:101340000C01B1FA81F204BFB0FA80F3D2180B3A63
:10135000B2F120032CBF00FA03F1914041EA0C01E5
:101360003EBFC2F1200C20FA0CF3194390405242C8
:1013700040F2FD33D21A01EB03517047002270474F
:101380004FF4001C1CEB410F94BF1CEB430F09E012
:1013900041EA030C50EA4C0C52EA0C0C03D299427D
:1013A00008BF9042704714BF8B42824270470000D2
:1013B0004FF4001C1CEB410F94BF1CEB430F09E0E2
:1013C00041EA030C50EA4C0C52EA0C0C03D28B425B
:1013D00008BF8242704714BF994290427047000094
:1013E000124254D440F2FF7C1CEA11530FD06345E3
:1013F00031D09B1863453CBF01EB0251704701F0AF
:10140000004141EA0C510020AFF30080704750EAE0
:10141000410320D001F0004C91EA0C011CD0B1FA3C
:1014200081F30B3B9A420DD9D21A994051EA0C0133
:10143000C3F1200C20FA0CFC61449840531C40F28C
:10144000FF7CD7E7914041EA0C01C2F1200C20FA61
:101450000CF3194390407047B0FA80F31533202BFA
:10146000E0D3202AEED3203A203B9A4209D9D21A5F
:1014700000FA03F141EA0C010020531C40F2FF7C0A
:10148000B8E700FA02F141EA0C010020704752422D
:1014900040F2FF7C1CEA11530DD06345DBD0B2EB68
:1014A000030C3CBFA1EB025170470CF1010221EA91
:1014B000035141F4801150EA410CCCD001F0004CB2
:1014C000352A27DC30B481EA0C01B2F1200309DAB5
:1014D000C2F12003044601FA03F5D0402843D1406D
:1014E0009C400CE0C3F12002450020FA03F418BF31
:1014F00044F0010421FA03F091400C43002174F1FF
:10150000004550F1000051EB0C01244230BC7FF447
:101510007BAF70476146002076E70000C1F30A53B5
:1015200040F2FE329B1A14DDD3F120034FEAE17240
:1015300008DDC90241EA505141F00040D84080180E
:101540005040704703F2E13010B1D24382F00040C6
:101550007047002070470000C11768B14840401A2A
:10156000B0FA80F29040D21CC907C2F5846241EA09
:10157000025202EBD02140057047000070B44FF0DA
:10158000004591EA030F40F1A3836B40841A71EB8D
:10159000030603D2001BB141121973414FF4001C22
:1015A0001CEB410F34BF7CEB430442E00C0DA4EB79
:1015B0001356352E4FDC45EAC323DB0A45EAC12129
:1015C000C912B6F120050DDD63FA05F6EB4086EA97
:1015D0000305124218BF45F00105C01851F1000182
:1015E0000CD213E062FA06F5F2405540F3415A403E
:1015F000B340F3405A408018594107D349085FEA85
:1016000030005FEA350528BF45F0010501F580117E
:10161000420875F1004250F1000041EB04514E00C8
:1016200016F5001F70BC38BF70470020090D090572
:1016300070471CEB410F10D252EA43060BD0BCEBB3
:10164000410F05D80C0DAB43661E342EB6DD02E00B
:10165000AB438018594170BC704770BC70470000A4
:10166000F0B540F2FF7581EA030C0CF0004C15EA6E
:1016700011541DBF15EA1357AC42AF42E5E0BC411F
:10168000C1F31301C3F31303801A994143F4801388
:1016900004D2641E4000494180185941C90241EA00
:1016A0005051B1FBF3F603FB1611A2FB0675D7EB05
:1016B000C020A94102D2761E80185941C90241EAD0
:1016C0005051B1FBF3FE03FB1E11A2FB0E75D7EBCD
:1016D000C020A94103D2AEF1010E80185941890200
:1016E00041EA9051760546EA8E2EB1FBF3F603FBF4
:1016F0001611A2FB0675D7EB8020A94102D2761EF7
:1017000080185941C90241EA50514EEA060EB1FB18
:10171000F3F603FB1611A2FB0675D7EBC020A94117
:1017200002D2761E80185941C90241EA5051B1FBDC
:10173000F3F703FB1711A2FB0735D3EBC020A94138
:1017400067F100070CBF004247F0010766F3D52799
:101750004FEA1E31B80814F5806412DDBD0775F13B
:10176000004250EB0E5051EB045111F5801F5CBF4D
:1017700041EA0C01F0BD4CF07F6141F0E0410020F6
:10178000F0BDBD076D0840EA0E5041F48011D4F160
:101790000104B4F120060ADAC4F120060200E04098
:1017A00001FA06F3E1401843B24015430EE0342C31
:1017B00013DCC6F1200445EA40056D0820FA06F264
:1017C000154321FA06F0A1400D43002175F10042B6
:1017D00050F1000051EB0C01F0BD00205FEA0C015C
:1017E000F0BDCFB992185B41B3FA83F704BFB2FAE8
:1017F00082F6BF190B3FB7F120062FBF02FA06F39E
:10180000BB40C7F1200622FA06F638BF3343BA4080
:101810001CB1E419641E33E77F4231F00041B1FA94
:1018200081F404BFB0FA80F6A4190B3CB4F1200691
:101830002FBF00FA06F1A140C4F1200620FA06F6F7
:1018400038BF3143A0403C1B1AE7AC421ABF05EA3F
:101850001357AF4212E050EA41061CBF52EA43065A
:10186000BFE750EA4107304661461CBF41EA0551D7
:10187000F0BD52EA430C08BFC143F0BD00204FF455
:10188000001616EB410F98BF16EB430F08BF16EB7F
:10189000410F24BFC14305E016EB430F0CBF614667
:1018A0004CEA0551F0BD0000400D491840EA812086
:1018B0000CD2490DA1F58061491C40F0004005DBC8
:1018C000D1F11F0154BFC840C017704700207047B6
:1018D000014648B1B0FA80F18840C91CC1F5846165
:1018E000090501EBD021400570470000B0B581EA41
:1018F000030C0CF0004C40F2FF7515EA11541DBFAB
:1019000015EA1357AC42AF4239E0E41923EA4553D4
:1019100043F48013C90241F0004141EA505EC7021E
:101920001100A7FB020200284FF00000EEFB01208F
:101930004FF00001E3FB072118BF42F001024018FD
:1019400000214941E3FB0E01A4F580640F0302D29C
:1019500052004041494154F101046CDD470872F1E5
:10196000004250F1000051EB0451A1F580115CBF21
:1019700041EA0C01B0BD4CEA05510020B0BD05EABA
:101980001357AC4214BFAF4241E050EA410E1CBFB6
:1019900052EA430E02E061460020B0BD24423C44BE
:1019A0001BD15FEA070EF6D0090302BF01460020F3
:1019B000AEF1140EB1FA81F7AEEB070401FA07FE9F
:1019C0000C37C7F1200100FA07F7C8404EEA000EB5
:1019D00023EA455343F48013A2E733F00043B3FAFC
:1019E00083F704BFB2FA82FE77440B3FE41BB7F1E2
:1019F000200E2FBF02FA0EF3BB40C7F1200E22FAD1
:101A00000EFE38BF43EA0E03BA40641C82E750EA78
:101A1000410E14BF52EA430E6FF000014FF400175D
:101A200017EB430F8ABF194617EB410FB5E74CEA96
:101A300005510020B0BDD4F10104B4F120070FDA44
:101A4000C4F12007520828BF42F0010210FA07F53E
:101A500001FA07F7E1BF2A43E0403843E1400FE0D5
:101A6000352C98DCC7F1200452EA400220FA07F234
:101A700018BF42F0010231FA07F0A1400A430021E9
:101A800072F1004250F1000051EB0C01B0BD0000BA
:101A90000048704708000020BBBBE1B1B2F5803FB1
:101AA00080F07E80022A1ED98C46B1FBF2F102FB47
:101AB00011C31B0443EA1043B3FBF2FC02FB1C33CB
:101AC00080B240EA0343B3FBF2F002FB103240EA7B
:101AD0000C4000237047022A05D98446B0FBF2F07F
:101AE00002FB10C270474AB105D100F0010249085B
:101AF0005FEA3000704700220023704700F09EB973
:101B00000B000200002100207047904271EB030C93
:101B1000F6D3B3F5803F2FD2F0B5B3FA83F7B1FA1D
:101B200081F4A7F10F0E3D1B5340CEF1200602FABF
:101B30000EF2F3415340B5F10F0746D80F3C2C4449
:101B40004140C4F12006A040F1414140B1FBF3F611
:101B500003FB1611A2FB0645001BA94102D2761E0B
:101B60008018594180EA010221FA0EF362FA0EF25E
:101B700000215A403046F0BD30B4B1FBF3FC03FB0A
:101B80001C11A2FB0C45001BA94103D2ACF1010CB6
:101B90008018594130BC02460B4660460021704710
:101BA000B2F1807F65D3F0B5B2FA82F7B1FA81F471
:101BB000C7F10F063D1B22FA06F307F1110EF241A1
:101BC00020355A40B5F10F07B8D94140C4F120067D
:101BD000A040F1414140B1FBF3FC03FB1C11A2FB0F
:101BE0000C45001BA94103D2BCF1010C80185941DE
:101BF0000F2F12D30F3FC90341EA5041B1FBF3F657
:101C000003FB1611A2FB0645D4EBC030A94102D25A
:101C1000761E8018594146EACC3C07B34140C7F1D3
:101C20002006B840F1414140B1FBF3F603FB161129
:101C3000A2FB0645001BA94102D2761E801859411D
:101C400080EA010221FA0EF3C7F1200462FA0EF2D3
:101C50000CFA07F05A402CFA04F13043F0BD80EA48
:101C6000010221FA0EF3002162FA0EF260465A4098
:101C7000F0BD8C46B1FBF2F102FB11C31B0243EA3B
:101C80001063B3FBF2FC02FB1C331B024CEA002086
:101C900043EA1063B3FBF2FC02FB1C331B024CEA69
:101CA000002043EA1063B3FBF2FC02FB1C331B026F
:101CB0004CEA002043EA1063B3FBF2FC02FB1C3247
:101CC0004CEA002000237047012000F0B9B8000062
:101CD000841A71EB030604D26E40001BB141121945
:101CE00073414FF4001C1CEB410F34BF7CEB4306E7
:101CF00083E00C0DA4EB1356362E00F37C80012EEE
:101D000045EAC32341DC43EA525312BFD202920296
:101D10005B08240545EAC12141EA5051D2EBC020BD
:101D2000994125D407D1B0FA80F610FA06F162D0B5
:101D30000020203608E0B1FA81F6B140C6F1200259
:101D400020FA02F21143B0404FEAF474B4EB465467
:101D500034F001064FEA74040AD8D6F50016760D61
:101D600004F00044F04061FA06F25040F14048406F
:101D7000C00A40EA415021F0004128BF5FEA500507
:101D800050F1000044EBD12135E0DB0A45EAC121E6
:101D9000C90AB6F120050EDD42EA0242120CC5F175
:101DA000200603FA06F6EB4042EA06056D4298412A
:101DB00061F100010DE062FA06F5F240554063FA68
:101DC00006FC82EA0C02F3405A406D42904161EBFE
:101DD000030111F4801F05D1641E620502D06D005D
:101DE0004041494121F48011430875F1004350F10D
:101DF000000041EB045170BC70471CEB410F15D241
:101E000023F0004352EA43060BD04FEA4C0CBCEBE4
:101E1000410F04D80C0D661E342EB7DDEBE7801A97
:101E2000994150EA410608BF0021E4E708BF1CEBD6
:101E3000430F28BF6FF00001DDE70000704700008E
:101E400080B500F007F8024A11001820ABBEFBE78E
:101E50002600020010B500F052F802000023002412
:101E6000E4431068A04203D011000220ABBE13600F
:101E70005068A04203D0111D0220ABBE536010BDBC
:101E8000F0B583B0040000F03AF8A10047183D68AF
:101E90000026F643B54216D100F01AF83D68B54267
:101EA0000FD100BF09A00090002C01D1002000E05C
:101EB000042001900320029069460120ABBE05007A
:101EC0003D6000F014F8280003B0F0BD3A747400CF
:101ED0000C480121BFF35F8FD0E84F3FC0E8421F9D
:101EE000002AF9D1BFF35F8F002BF3D1704705486B
:101EF000BFF35F8F00210170BFF35F8F704702480F
:101F000070470000BC0200203801002010B504001A
:101F1000002C01D1012033E0A0690028FFD194F802
:101F20003D00002805D1002084F83C00200000F08E
:101F300022FC242084F83D002068C06830F4005062
:101F40002168C860200000F03BFB2068006930F485
:101F50009040216808612068406930F02A002168BB
:101F600048612068C06850F400502168C8600020B3
:101F70002064202084F83D00202084F83E000020CA
:101F800010BD2DE9FC4706000D00170098460024FF
:101F900096F83D0020285DD1002D03D0380080B296
:101FA000002801D1012056E096F83C00012801D11B
:101FB000022050E0012086F83C00002030642120FF
:101FC00086F83D0000F01EFC8146B784F784B068B7
:101FD000B0F5805F05D13069002802D10024AA46FF
:101FE00002E02C005FF0000A002086F83C00F08C34
:101FF00000281ED0CDF800804B4600228021300002
:1020000000F0CBF9002801D0032024E0002C08D1F7
:10201000BAF80000C005C00D316848601AF1020A24
:1020200003E0207831684860641CF08C401EF08426
:10203000DDE7CDF800804B4600224021300000F063
:10204000ACF9002801D0032005E0202086F83D00EF
:10205000002000E00220BDE8F6872DE9FC470600DD
:102060000D0017009846002496F83E00202863D102
:10207000002D03D0380080B2002801D101205CE09F
:1020800096F83C00012801D1022056E0012086F894
:102090003C0000203064222086F83E00002030639F
:1020A00000F0B0FB8146B785F785B068B0F5805F7A
:1020B00005D13069002802D10024AA4602E02C0094
:1020C0005FF0000A002086F83C00F08D00282ED03A
:1020D000CDF800804B4600222021300000F05DF951
:1020E000002801D0032028E0002C08D13068406887
:1020F000C005C00DAAF800001AF1020A13E0B0688A
:10210000B0F5805F05D0B068002806D1306900289E
:1021100003D130684068207004E03068406810F0F7
:102120007F002070641CF08D401EF085CDE72020DC
:1021300086F83E00002000E00220BDE8F6872DE989
:10214000FC470600306807683068D0F80C803068BB
:10215000D0F814900020002517F00F04002C08D1AF
:10216000B80606D55FEA886003D5300000F0B7F9FD
:1021700005E1002C77D05FEAC97002D418F4907F93
:1021800071D017F00100C0B2002806D05FEAC85035
:1021900003D5306C50F001003064780708D519F091
:1021A0000100C0B2002803D0306C50F0020030644F
:1021B000B80708D519F00100C0B2002803D0306C70
:1021C00050F00400306438070BD55FEA886004D40F
:1021D00019F00100C0B2002803D0306C50F00800A4
:1021E0003064306C00283DD0B80605D55FEA8860C1
:1021F00002D5300000F073F930684069800910F0B2
:1022000001000500306C000701D4002D25D03000FE
:1022100000F0FAF83068406940061AD53068406925
:1022200030F0400031684861B06B00280DD00FF2EB
:102230001120B16B0865B06B00F038FB002811D09D
:10224000B06BB16B096D88470CE0300000F042FBC9
:1022500008E0300000F03EFB04E0300000F03AFB04
:10226000002030648BE0306B012876D1F80674D5FD
:102270005FEAC86071D50020009030680068009067
:1022800030684068009000983068406940063BD54F
:10229000B06B0068D0F804A0504680B2002832D05D
:1022A0005046B18D80B288422DD2A6F82EA0B06BD8
:1022B000C069B0F5807F1FD03068C06830F480708E
:1022C0003168C86030684069400840003168486142
:1022D0003068406930F0400031684861202086F85D
:1022E0003E00002030633068C06830F01000316874
:1022F000C860B06B00F08CFAB18DF08D091A89B20C
:10230000300000F0E8FA3AE0B08DB6F82EA0B0EB5D
:102310000A0AF08D00281FD0504680B200281BD03A
:102320003068C06830F490703168C86030684069C7
:102330004008400031684861202086F83E000020B7
:1023400030633068C06830F010003168C8605146B2
:1023500089B2300000F0BFFA11E0380606D55FEA16
:10236000086003D5300000F077F808E0780606D55D
:102370005FEA486003D5300000F0A1F8FFE7BDE850
:10238000F38710B401000022002391F83D0091F87A
:102390003E402043C0B210BC70472DE9F04105001B
:1023A0000E0090461F00069C286800683040B0422E
:1023B00001D1012000E000204146C9B2884220D16D
:1023C00014F1010FF0D0002C04D000F01BFAC01B58
:1023D0008442E9D22868C06830F4D0702968C860A7
:1023E000286840694008400029684861202085F835
:1023F0003D00202085F83E00002085F83C000320A9
:1024000000E00020BDE8F0810168C96831F49071F6
:102410000268D16001684969490849000268516150
:10242000016B012905D10168C96831F0100102680A
:10243000D160202180F83E10002101637047000028
:1024400038B50400A56B0020E8850020E88428004A
:1024500000F040FA31BD0000010091F83D00212854
:102460002BD18868B0F5805F0DD1086900280AD1AA
:10247000086A02001088C005C00D0B685860086A21
:10248000801C086205E0086A431C0B6200780B6838
:102490005860C88C401EC88480B200280BD10868E0
:1024A000C06830F080000B68D8600868C06850F0E1
:1024B00040000B68D860002000E00220704710B593
:1024C00004002068C06830F040002168C860202007
:1024D00084F83D00200000F0FFF9002010BD7CB51D
:1024E000040094F83E00222868D1A068B0F5805F0F
:1024F0000DD1206900280AD10025A66A206840680D
:10250000C005C00D3080A06A801CA06217E0A56ADB
:102510000026A068B0F5805F05D0A068002806D12D
:102520002069002803D120684068287004E02068F2
:10253000406810F07F002870A06A401CA062E08D07
:10254000401EE08580B2002836D12068C06830F097
:1025500020002168C8602068C06830F4807021685D
:10256000C860206840694008400021684861202018
:1025700084F83E00206B012819D1002020632068D8
:10258000C06830F010002168C86020680068C0068C
:1025900008D50020009020680068009020684068FE
:1025A00000900098A18D200000F095F902E0200035
:1025B00000F093F9002002E0002000E0022076BD48
:1025C000F8B504002068016931F44051E068014326
:1025D00020680161A5682069054360690543E069D9
:1025E00005432068C1685348014029432068C16001
:1025F0002068416931F44071A0690143206841615C
:1026000020684D49884203D020684C49884202D155
:1026100000F013FC01E000F004FCE169B1F5004FAB
:1026200044D16421192202FB00F366687600B3FBF3
:10263000F6F36426B3FBF6F302FB00F667687F004F
:10264000B6FBF7F602FB00F7D4F804C05FEA4C0CC7
:10265000B7FBFCF75FF0640CB7FBFCF701FB1766F8
:10266000F60032366427B6FBF7F6760016F4F876F5
:1026700016EB031602FB00F367687F00B3FBF7F36A
:1026800002FB00F267687F00B2FBF7F26427B2FB3F
:10269000F7F201FB1231C90032316422B1FBF2F1D1
:1026A00011F007018E1921688E6042E06421192221
:1026B00002FB00F36668B600B3FBF6F36426B3FBD7
:1026C000F6F302FB00F66768BF00B6FBF7F602FB05
:1026D00000F7D4F804C05FEA8C0CB7FBFCF75FF09E
:1026E000640CB7FBFCF701FB176636013236642732
:1026F000B6FBF7F616F0F00616EB031602FB00F336
:102700006768BF00B3FBF7F302FB00F26768BF0026
:10271000B2FBF7F26427B2FBF7F201FB12310901B9
:1027200032316422B1FBF2F111F00F018E192168F0
:102730008E60F1BDF369FFFF0010014000140140FD
:1027400081B0002000902A48016851F48041016066
:10275000006810F480400090009800200090254808
:10276000016851F080510160006810F080500090C5
:10277000009801B0704710B586B004001422002103
:1027800001A800F08DFB20681B4988422ED1002053
:1027900000901748016851F010010160006810F0C6
:1027A000100000900098002000901448016851F03B
:1027B00001010160006810F00100009000984FF4E2
:1027C000C06001900220029000200390032004903A
:1027D0000720059001A90A4800F06CFB00220021A7
:1027E000252000F007FD252000F019FD06B010BDE2
:1027F0004438024040380240001001403038024066
:102800000000024001480068704700BFB00200208D
:1028100070B50400A56DFFF7F5FF060094F83500CC
:10282000022806D080206065002084F83400012052
:102830003BE02068006830F01600216808602068DE
:10284000406930F0800021684861206C002802D186
:10285000A06C002805D02068006830F008002168CE
:10286000086020680068400840002168086020680F
:102870000068C0070ED5FFF7C5FF801B0628F6D3FA
:1028800020206065032084F83500002084F834009F
:1028900003200AE03F21E06D8140A960012084F817
:1028A0003500002084F83400002070BD010091F84C
:1028B0003500022803D080204865012009E005206A
:1028C00081F8350008680068400840000A68106018
:1028D0000020704770477047704770472DE9FC41F2
:1028E0000400002C01D10120ACE12078C0073FD5C5
:1028F000DFF86405016811F00C01042909D00068B3
:1029000010F00C0008280ED1DFF8500500684002D6
:1029100009D5DFF840050068800329D560680028E4
:1029200026D101208EE16068DFF8441508706068E8
:1029300000280ED0FFF766FF0500DFF818050068D5
:10294000800315D4FFF75EFF401B6528F5D30320F5
:1029500078E1FFF757FF0500DFF8F804006880030F
:1029600006D5FFF74FFF401B6528F5D3032069E12B
:102970002078800756D5DFF8E004016811F00C0FCD
:1029800009D0006810F00C00082818D1DFF8CC043A
:102990000068400213D4DFF8BC040168890704D53D
:1029A000E168012901D001204CE10168032231F0E6
:1029B000F801236913FA02F21143016032E0E06882
:1029C00000281CD00120DFF8AC140860FFF71AFFC4
:1029D0000500DFF880040168890706D4FFF712FFBD
:1029E000401B0328F5D303202CE10168032231F0BA
:1029F000F801236913FA02F21143016012E000208A
:102A0000DFF870140860FFF7FDFE0500DFF84404EE
:102A10000068800706D5FFF7F5FE401B0328F5D3B5
:102A200003200FE12078000728D56069002812D024
:102A30000120DFF844140860FFF7E4FE0500DFF82A
:102A400020040068800719D4FFF7DCFE401B032830
:102A5000F5D30320F6E00020DFF81C140860FFF730
:102A6000D1FE0500DFF8F8030068800706D5FFF700
:102A7000C9FE401B0328F5D30320E3E0207840077C
:102A800062D50026DFF8F4733868C0000CD400204B
:102A90000090386850F080503860386810F08050EE
:102AA0000090009801200600DFF8D483D8F80000D9
:102AB00050F48070C8F80000D8F80000C00513D4A6
:102AC000D8F8000050F48070C8F80000FFF79AFEB4
:102AD0000500D8F80000C00506D4FFF793FE401BA0
:102AE0000328F6D30320ADE0DFF89883A06888F8C8
:102AF0000000A06800280FD0FFF784FE0500D8F87A
:102B00000000800718D4FFF77DFE401B41F2893199
:102B10008842F4D3032095E0FFF774FE0500D8F84F
:102B20000000800708D5FFF76DFE401B41F2893198
:102B30008842F4D3032085E03000C0B2012803D1DD
:102B4000386830F080503860A069002879D0DFF80C
:102B50000803006810F00C0008284FD0A069022874
:102B600039D1DFF824830020C8F80000FFF74AFEBF
:102B70000600DFF8E0723868800106D5FFF742FEF4
:102B8000801B6528F5D303205CE0DFF8D0120A68CB
:102B9000DFF8F8020240E0690243206A0243606AFB
:102BA00052EA8012E06A52EA0062A06A4008401EBF
:102BB00052EA00420A600120C8F80000FFF722FE36
:102BC0000500386880013CD4FFF71CFE401B6528D7
:102BD000F7D3032036E00020DFF8AC120860FFF7DF
:102BE00011FE0500DFF86C020068800129D5FFF7AF
:102BF00009FE401B6528F5D3032023E0A0690128C6
:102C000001D101201EE0DFF85402016811F48000B8
:102C1000E269904213D111F03F00226A90420ED136
:102C2000C1F38810626A904209D111F44030A26A5F
:102C3000904204D111F07060E26A904201D001200C
:102C400000E00020BDE8F6812DE9F04104000D0010
:102C5000002C01D1012099E0DFF83472386810F0BF
:102C60000F00A84207D23D70386810F00F00A8424C
:102C700001D001208AE02078800719D5207840070C
:102C800005D5DFF8D401016851F4E05101602078E6
:102C9000000705D5DFF8C001016851F4604101600B
:102CA000DFF8B4110A6832F0F002A06802430A604B
:102CB0002078C00737D56068012806D1DFF8940175
:102CC0000068800311D4012060E06068022806D10A
:102CD000DFF880010068800107D4012056E05D48DC
:102CE0000068800701D4012050E0DFF86C81D8F83B
:102CF00000108908890060680143C8F80010FFF7D8
:102D000081FD0600D8F8000010F00C006168B0EBFF
:102D1000810F08D0FFF776FD801B41F28931884290
:102D2000F0D3032032E0386810F00F00854207D25C
:102D30003D70386810F00F00A84201D0012025E056
:102D40002078400706D544490A6832F4E052E0682A
:102D500002430A602078000707D53F48016831F434
:102D60006041226951EAC201016000F011F83A495C
:102D70000968484A11F0F0010909515CC8403A4914
:102D800008603A48006800F067FA0020BDE8F0816A
:102D90002DE9F04100240025002600272E48006878
:102DA00010F00C00002804D0042804D0082804D017
:102DB00031E02C4830E038482EE0DFF8A080D8F829
:102DC000000010F03F000400D8F8000040020CD5CD
:102DD000D8F80000C0F388102F49A1FB00012200A1
:102DE0000023FEF759FE05000BE0D8F80000C0F301
:102DF00088101C49A1FB000122000023FEF74CFEB5
:102E00000500D8F80000C0F30140401C4000060057
:102E1000B5FBF6F000E01348BDE8F0811248006809
:102E2000704780B5FFF7FAFF0B4909681B4A11F498
:102E3000E051890A515CC84002BD80B5FFF7EEFF42
:102E400005490968154A11F46041490B515CC840B5
:102E500002BD000000380240083802400438024039
:102E6000743802400024F400040000200000002018
:102E70000238024000004742800E4742403802407C
:102E80000070004070380240600047420080BCF093
:102E9000003C0240B442000800127A00E8420008F8
:102EA00010B5044610460A460146204600F0FAF9DD
:102EB000204610BDF8B4030000250868E84000284B
:102EC00000F0F08001260F6816FA05F007403A007E
:102ED000002A00F0E580087910F00300012804D0F2
:102EE000087910F0030002281DD19F685FF0030CE1
:102EF0002800C0B240001CFA00FC37EA0C07D1F8E9
:102F00000CC02800C0B240001CFA00FC5CEA0707B5
:102F10009F605868AE40B0434E68C6F30016AE409E
:102F2000304304005C60087910F0030003280ED0E1
:102F3000DE6803272800C0B240008740BE438F6888
:102F40002800C0B2400087403E433400DC6008796E
:102F500010F00300022818D12800C00803EB8000FD
:102F6000066A0F2715F00700C0B280008740BE43F5
:102F70000F6915F00700C0B2800087403E4334005F
:102F80002800C00803EB800004621E6803272800A5
:102F9000C0B240008740BE430F7917F003072800F6
:102FA000C0B2400087403E4334001C60486810F4C3
:102FB000403F75D000200090DFF80801066856F405
:102FC00080460660006810F4804000900098DFF8AA
:102FD000F8702800800857F820605FF00F0C15F09B
:102FE0000300C0B280001CFA00FC36EA0C06374829
:102FF000834201D1002428E03548834201D10124D5
:1030000023E03448834201D102241EE03248834247
:1030100001D1032419E03148834201D1042414E092
:103020002F48834201D105240FE02E48834201D16D
:1030300006240AE02C48834201D1072405E02B48EE
:10304000834201D1082400E00924E4B215F0030012
:10305000C0B28000844026432800800847F82060E2
:10306000234C206890434F68FF0300D51043206035
:10307000204E346894434F68BF0300D51443346036
:103080001D4E306890434F68FF0200D510433060FA
:103090001A4E346894434F68BF0200D5144334601D
:1030A0006D1C0AE7F1BC70471300DBB2002B03D0A4
:1030B0000B009BB2836103E00B009BB21B04836196
:1030C00070470000443802400838014000000240C8
:1030D0000004024000080240000C024000100240C0
:1030E0000014024000180240001C02400020024070
:1030F000003C0140043C0140083C01400C3C0140C4
:1031000010B410F00703DFF8304122684FF6FF01DA
:103110000A40DFF8281151EA03210A43226010BC5B
:103120007047DFF814010068C0F302207047010007
:1031300049B2002909D4012210F01F018A404049F8
:1031400003005BB25B0941F82320704710B4020012
:1031500052B2002A05D40A013A4B040064B21A554F
:1031600008E00A01384B040064B214F00F04234451
:1031700003F8042C10BC704770B4030013F007046C
:10318000D4F10700052801D3042001E0D4F10700A1
:10319000251D072D01D2002500E0E51E012616FAA7
:1031A00000F0401E0140A94016FA05F56D1E2A40A8
:1031B0001143080070BC704710B50400601EB0F1E8
:1031C000807F01D301200EE0601E204908600F219E
:1031D0005FF0FF30FFF7BAFF00201D4908600720AD
:1031E0001C490860002010BD10B504002000FFF746
:1031F00087FF10BD2DE9F04104000D0016000027E7
:10320000FFF78FFF8046320029004046FFF7B4FFEA
:103210000100200040B2FFF799FFBDE8F08110B532
:103220000400200040B2FFF782FF10BD10B504007B
:103230002000FFF7C1FF10BD0CED00E00000FA0513
:1032400000E100E000E400E018ED00E014E000E040
:1032500018E000E010E000E010B504004FF47A70D0
:103260000D490978B0FBF1F00C490968B1FBF0F0A9
:10327000FFF7DCFF002801D001200CE0102C09D260
:10328000002221005FF0FF30FFF7B4FF0448046024
:10329000002000E0012010BD4001002004000020BB
:1032A0000000002062F30F2262F31F42401810F06A
:1032B000030308D0C91A1FD3DB0748BF00F8012D4C
:1032C00028BF20F8022D130030B4144615461039DB
:1032D00028BF20E93C00FAD8490728BF20E90C00A4
:1032E00048BF40F8042D890028BF20F8022D48BFB0
:1032F00000F8012D30BC7047C91818BF00F8012D27
:10330000CB0728BF00F8012D704700002DE9F34FCF
:1033100083B015001E000E9F0F9CDFF8DCB35846EB
:10332000FFF72FF88DF802000020ADF8000001A88B
:10333000DFF8C813D1E90023C0E9002301A89DF8F4
:103340000C1041709DF8101081708DF807508DF8A9
:103350000960062101A800F0D7F9ADF800005FF080
:103360000208E9460DF10A0A424649465046FDF771
:103370007BFFDFF88CA301224FF400515046FFF78A
:1033800093FE4FF47A73082201A95846FEF7F9FD1F
:1033900000224FF400515046FFF786FE4FF47A7337
:1033A0002200D2B292B239005846FEF756FE05B05E
:1033B000BDE8F08F2DE9F84FDEB00025C820019060
:1033C0002CA800906D23002200210320FFF79EFF10
:1033D0009DF8B0007B2805D19DF8B100032801D1EC
:1033E000002400E001242CA82100C9B20844C179BE
:1033F0002CA82200D2B21044027A4FF4807000FB55
:1034000002112CA82200D2B21044427A5FF480301C
:1034100000FB02111D912CA82100C9B20844C17AF9
:103420002CA82200D2B21044027B4FF4807000FB23
:1034300002111C91002004280ADA2CA92200D2B221
:1034400012181144C97C1EAA42F82010401CF2E751
:10345000002008280ADA2CA92200D2B2121811443E
:10346000C97E22AA42F82010401CF2E72CA82100B5
:10347000C9B2084490F82C001B902CA82100C9B2B6
:10348000084490F833001A902CA82100C9B20844CF
:1034900090F847102CA82200D2B2104490F848208F
:1034A0004FF4807000FB02112CA82200D2B210440D
:1034B00090F849205FF4803000FB0211642091FBFA
:1034C000F0F019902CA82100C9B2084490F85710C8
:1034D0002CA82200D2B2104490F858204FF48070EB
:1034E00000FB02112CA82200D2B2104490F85920FF
:1034F0005FF4803000FB0211642091FBF0F0189023
:103500002CA82100C9B2084490F867102CA822000A
:10351000D2B2104490F868204FF4807000FB021182
:103520002CA82200D2B2104490F869205FF48030B9
:1035300000FB0211642091FBF0F52CA82100C9B218
:10354000084490F877102CA82200D2B2104490F8CA
:1035500078204FF4807000FB02112CA82200D2B218
:10356000104490F879205FF4803000FB0211642051
:1035700091FBF0F62CA82100C9B2084490F8A710DE
:103580002CA82200D2B2104490F8A8204FF48070EA
:1035900000FB02112CA82200D2B2104490F8A920FE
:1035A0005FF4803000FB0211642091FBF0F72CA83F
:1035B0002100C9B2084490F8AF102CA82200D2B262
:1035C000104490F8B0204FF4807000FB02112CA83A
:1035D0002200D2B2104490F8B1205FF4803000FB9A
:1035E0000211642091FBF0F82CA82100C9B2084414
:1035F00090F8B7102CA82200D2B2104490F8B8204E
:103600004FF4807000FB02112CA82200D2B21044AB
:1036100090F8B9205FF4803000FB0211642091FB28
:10362000F0F92CA82100C9B2084490F8BF102CA8CA
:103630002200D2B2104490F8C0204FF4807000FBFA
:1036400002112CA82200D2B2104490F8C1205FF4DD
:10365000803000FB0211642091FBF0FA2CA82100BD
:10366000C9B2084490F82BB0BBF1600B2CA8210024
:10367000C9B2084490F82E00D0F10F00179022A88C
:103680001EA9179A1692CDF854B0CDF850A0CDF8D7
:103690004C90CDF84880119710960F95189A0E927D
:1036A000199A0D921A9A0C921B9A0B92299A0A92C5
:1036B000289A0992279A0892269A0792C268069237
:1036C000826805924068049022980390C86802902E
:1036D00088680190486800901E9B1C9A1D990948B3
:1036E00000F03AF803A000F037F85FB0BDE8F08FC3
:1036F000000000000A00000064020020E042000810
:10370000000C0240E83D0008F0B403004FF6FF70E3
:103710004AF2010400220025002632000F0092B276
:10372000BFB2BA4215D2320092B29A5C5040002227
:1037300015002A0092B2082A09DAC20703D580B21E
:103740004008604001E080B240086D1CF1E7761C43
:10375000E3E780B2F0BC70470EB4C0B5024603A8E0
:1037600000210190009101AB0121044878440C3004
:10377000FCF708FD06BC5DF810FB00BF170B00004E
:1037800080B500F0D7F800F007F800F05DF800F021
:103790003FF8FFF70FFEFCE718B591B0302100228B
:1037A00005AC2000FFF77EFD142100226C462000AE
:1037B000FFF778FD012005900120069002200B9074
:1037C0005FF480000C9008200D90C0200E90022025
:1037D0000F900420109005A8FFF780F8002801D072
:1037E00000F0A6F80F200090022001900020029027
:1037F0004FF4A05003904FF480500490032168468A
:10380000FFF722FA002801D000F092F812B010BDA4
:1038100080B54248424901604FF4964141604FF4FF
:10382000805181600021C1604FF4806101610C21F1
:103830004161002181610021C161FEF767FB002821
:1038400001D000F075F801BD38B586B01421002212
:1038500001AC2000FFF726FD0020009031480168F0
:1038600051F004010160016811F004010091009918
:1038700000210091016851F080010160016811F0A0
:1038800080010091009900210091016851F0100120
:103890000160016811F01001009100990021009170
:1038A000016851F008010160016811F00801009100
:1038B000009900210091016851F001010160006848
:1038C00010F0010000900098174D00224FF4604165
:1038D0002800FFF7E9FB154C00224FF400512000AF
:1038E000FFF7E2FB4FF460400190012002900020BE
:1038F00003900020049001A92800FFF7DBFA4FF4A1
:1039000000500190012002900020039000200490BC
:1039100001A92000FFF7CEFA07B030BD64020020F5
:10392000001001403038024000100240000C0240FC
:1039300072B6FEE780B50B48016851F40071016072
:10394000016851F480610160016851F48071016087
:103950000320FFF749FC0F20FFF77EFCFEF7F0FE87
:10396000002002BD003C024010B50446AFF30080C9
:10397000204600F005F80446AFF30080204610BD55
:10398000F8B500F10F04E408E400A0422BD2082CA3
:1039900004D2082402E0083000F047F8DFF80021E4
:1039A0001368190005D1002007E00568A5420DD273
:1039B000011D08680028F8D11868111D00E0191DC4
:1039C0000B6883420BD01D68A542F8D359B10B6830
:1039D00018680838A04208D2586808600FE000F064
:1039E00061F80028D7D10020F2BD181908601D1D0C
:1039F000586828511E680F68361B3E601C600968B5
:103A000000291DBF48680028081D0020106003F130
:103A10000800F2BD10B5040006D0AFF300802046C8
:103A200000F003F8AFF3008010BD002800D170470C
:103A300070B4A0F108021368072B2ED913F0070FFA
:103A40002BD1DFF85C40616809B18A4203D2516032
:103A5000626015E00146486808B19042FAD30868F0
:103A60000E18B24219D3964203D11B180B600A46B6
:103A700006E0486810B1134498420ED350604A6083
:103A8000506850B11368D518854206D100262660CB
:103A90000168CB1813604068506070BC704700002C
:103AA000A80200200749086808B1002070470648AE
:103AB000C008C00008600549C908C900091A0160AA
:103AC000704700BFB8020020C7060020C0080020D1
:103AD0002DE9F04107468846387810F0030F164666
:103AE0001D4633D0384600F099F878BBB8F1000F86
:103AF0001CBFD8E900018619012D2ED13888C104D8
:103B000015D5396A07F14402384600F0A3F83A6B3C
:103B1000044602B93A69F968384600F09BF8361B4A
:103B2000341A7A69F968384600F094F8261A1EB9F2
:103B30004DB916F1010F09D097F903002A46314615
:103B400000F08EF8064616F1010F09D12320AFF3DD
:103B500000804FF0FF30BDE8F081022DE8D1EBE7A7
:103B6000388810F4405F0ED07868F860386178616A
:103B7000B86107F144017868F861396207F13000F3
:103B8000002178623963B8F1000F05D0D8E902014D
:103B900007F13402C2E900013B884CF6FF600340A4
:103BA0003B800020BDE8F08170B50546AFF3008092
:103BB000288881042DD56E68002400E00644EA6858
:103BC00095F903003146914208D2521A00F06DF87F
:103BD00010F1010F09D00028F0D106E000220021E9
:103BE00000F063F810F1010F00D101246868E8606B
:103BF000A861E861298844B141F400712980284610
:103C0000AFF300804FF0FF3070BD4DF6FF70014004
:103C100029802846AFF30080002070BDF8B5A0B918
:103C2000AFF3008000250A4E08244FF0FF373068BC
:103C300020B1FFF7B9FF002848BF3D46361D641E7E
:103C4000F5D1AFF300802846F2BDBDE8F240ABE706
:103C500018010020914234BF511A002108467047D4
:103C60003EB504000D00012A02D100F06BF807E018
:103C7000022A07D100940020019069460C20ABBEB7
:103C80002D1801E0002A0CD10094019569460A2004
:103C9000ABBE002805D100222100280000F02FF83B
:103CA00001E00020C04303B030BD80B5002802D43D
:103CB00000F06AF802BD002002BD000010B4314AD5
:103CC000002113461C6884421EBF491C9C68844224
:103CD0001EBF491C1C69844209D09C69491C84424E
:103CE00005D0491C20331029ECD310BC70470023A9
:103CF00042F8313002EBC1014B6010BC704770B428
:103D0000204C002325462E688E421EBF5B1CAE68E9
:103D10008E421EBF5B1C2E698E4209D0AE695B1CB1
:103D20008E4205D05B1C2035102BECD370BC704745
:103D3000054604EBC303012A04BF59684D195D60B1
:103D400070BC704710B40F4A002113461C688442AF
:103D50001EBF491C9C6884421EBF491C1C698442CA
:103D60000AD09C69491C844206D0491C2033102982
:103D7000ECD310BC0020704702EBC100406810BCBF
:103D8000704700004401002080B5002901D10020C7
:103D900002BD012801D0022802D100F004F802BDC2
:103DA00000F011F802BD30B583B00C001500012001
:103DB000FEF766F800900194029569460520ABBEB7
:103DC000281A03B030BD18B583B003001400009367
:103DD0000191029469460520ABBE01221900201A08
:103DE000FFF78DFF04B010BD416E756D3A2025645C
:103DF0003B0A5041435F6E756D3A2025643B0A557E
:103E00006E69745F6E756D3A2025632563256325A1
:103E1000633B0A534F4654646174653A2025632519
:103E2000632E256325632E25632563256325633B68
:103E30000A50524F424174696D65723A2025643BC5
:103E40000A4D666C61673A2025783B0A54303A2067
:103E500025643B0A54313A2025643B0A54323A2007
:103E600025643B0A54333A2025643B0A50303A20FB
:103E700025643B0A50313A2025643B0A50323A20EF
:103E800025643B0A50333A2025643B0A56616C7620
:103E900065733A2025783B0A44706F7765723A2043
:103EA00025783B0A0000000010B50446E068A169CF
:103EB000884251D3218849F202030B40022B08D0DB
:103EC00008044CBF4FF400704FF48440014321803C
:103ED0003BE001F4C042B2F5C04F06D1A168884270
:103EE00003D32046FFF79AFE78BB208810F4406F7A
:103EF00002BF606804F14401884217D14FF400709A
:103F0000FFF732FD606030B904F144006060E060AA
:103F1000401CA0600AE0218841F040012180E0605F
:103F2000606100F500726068A260E0616068A1688D
:103F30002061A161207841070AD502220021204694
:103F400000F00CF810F1010F02D14FF0FF3010BD5E
:103F5000208840F4C0402080002010BD70B5044689
:103F60000D461646AFF3008033462A460021204610
:103F7000FFF7AEFD05462046AFF30080284670BD32
:103F800082B001780A062FD523490B6800930022DE
:103F9000834203D1002341F8223022E04B68009392
:103FA000012283421FBF02228B6800938342F1D01B
:103FB000CB680093032283421FBF04220B69009346
:103FC0008342E7D04B690093052283421FBF06223C
:103FD0008B6900938342DDD00722CB690093834233
:103FE000D8D002B000F01AB8002101804FF0FF32A3
:103FF00000F14401C270C1604161C16100F144033C
:1040000000F1440200F1300143600261826102620A
:10401000416202B07047000018010020FFF7FABCAF
:1040200038B504000ED0207810F0030F03D094F9B7
:104030000300002809D5AFF300802046FFF7A0FF5A
:10404000AFF300804FF0FF3032BD2046FFF7E6FDB2
:104050000546AFF300802078410644BF6068FFF753
:10406000DDFF0020606094F90300022804D900F00D
:1040700016F808B14FF0FF35E06B48B100F01BF8BF
:1040800008B14FF0FF35E06BFFF7C8FF0020E06399
:104090002046FFF775FFAFF30080284632BD1CB500
:1040A0000200009269460220ABBE04001000FFF738
:1040B00005FE200016BDE0B50090FDF78DF80190DB
:1040C00069460E20ABBE03B000BDF0B402461068D6
:1040D00095681318506803EB5004C0071CD54D4475
:1040E0001AE013F8017B05F8017B491EF9D198B15C
:1040F00013F8011BC6F38106032E08BF13F8016BEA
:1041000001EB06214942801C294405D011F8016BBE
:1041100005F8016B401EF9D1A3420ED013F8016BD4
:1041200016F0030104BF13F8011BC91C30090F2846
:10413000DBD113F8010B0F30D7E7F0BC02F10C0014
:10414000704738B50C46C5B22046AFF30080E06832
:10415000A169884204D32046FFF7A6FE00280FD4A9
:10416000E068401CE06000F8015D2088010503D490
:1041700040050BD50A2D09D12046FFF74FFD28B188
:104180002046AFF300804FF0FF3032BD2046AFF342
:104190000080284632BD000038B50D4D082428683F
:1041A00000281CBF017811F0030F05D090F903100F
:1041B000002958BFFFF734FF2D1D641EEFD1BDE865
:1041C0003840002200214FF0FF30FFF76EBD00BFE6
:1041D00018010020FEE7FEE7FEE7FEE7FEE7704776
:1041E0007047704780B500F009F801BD80B50248FE
:1041F000FDF7A5FF01BD00006402002003490A6825
:104200000348007882180A60704700BFB00200209F
:104210004001002010B5074979441831064C7C4410
:10422000163404E00A68081D114488470146A1427B
:10423000F8D110BD08000000240000000BCFFFFFE4
:104240007C01000044010020000000007FFEFFFF11
:10425000E8010000E00000000000002000F00DF880
:10426000002801D0FFF7D6FFAFF300800020AFF3A6
:104270000080FFF785FA00F002F80120704700F097
:1042800001B800000746FFF787FF3846FDF7D8FD65
:10429000FBE738B504460D46284600F005F8A8426D
:1042A00018BF0024204632BD0149FFF74ABF00BFB6
:1042B000880000200000000000000000010203044C
:1042C00006070809014880470148004735440008AF
:1042D000D5420008AFF30080AFF30080FFF7BEFFC8
:1042E0007B00000000000000000000000102030449
:1042F000686A6C747A4C0000FFF7FEBFFFF7FEBFE0
:10430000FFF7FEBFFFF7FEBFFFF7FEBFFFF7FEBFE1
:10431000FFF7FEBFFFF7FEBFFFF7FEBFFFF7FEBFD1
:10432000FFF7FEBFFFF7FEBFFFF7FEBFFFF7FEBFC1
:10433000FFF7FEBFFFF7FEBFFFF7FEBFFFF7FEBFB1
:10434000FFF7FEBFFFF7FEBFFFF7FEBFFFF7FEBFA1
:10435000FFF7FEBFFFF7FEBFFFF7FEBFFFF7FEBF91
:10436000FFF7FEBFFFF7FEBFFFF7FEBFFFF7FEBF81
:10437000FFF7FEBFFFF7FEBFFFF7FEBFFFF7FEBF71
:10438000FFF7FEBFFFF7FEBFFFF7FEBFFFF7FEBF61
:10439000FFF7FEBFFFF7FEBFFFF7FEBFFFF7FEBF51
:1043A000FFF7FEBFFFF7FEBFFFF7FEBFFFF7FEBF41
:1043B000FFF7FEBFFFF7FEBFFFF7FEBFFFF7FEBF31
:1043C000FFF7FEBFFFF7FEBFFFF7FEBFFFF7FEBF21
:1043D000FFF7FEBFFFF7FEBFFFF7FEBFFFF7FEBF11
:1043E000FFF7FEBFFFF7FEBFFFF7FEBFFFF7FEBF01
:1043F000FFF7FEBFFFF7FEBFFFF7FEBFFFF7FEBFF1
:10440000FFF7FEBFFFF7FEBFFFF7FEBFFFF7FEBFE0
:10441000FFF7FEBFFFF7FEBFFFF7FEBFFFF7FEBFD0
:10442000FFF7FEBFFFF7FEBFFFF7FEBFFFF7FEBFC0
:10443000FFF7FEBF7047000013100001F0050724CE
:10444000F4000E1200080452FF01E3961114100943
:10445000000001040000840000208504528404212F
:1044600053A10852700CF10B011007020401011452
:1044700002002064045214042134610812CC44F276
:1044800013B8484003080202C40140210821042156
:10449000346108221408F211014812406C12880499
:0844A000F206D074651402015C
:04000005080042D5D8
:00000001FF
