:020000040800F2
:100000008806002019200008F11F0008F31F0008CF
:10001000F51F0008F71F0008F91F00080000000086
:10002000000000000000000000000000FB1F0008AE
:10003000FD1F000800000000FF1F0008012000084D
:100040003D20000841200008452000084920000804
:100050004D200008512000085520000859200008B4
:100060005D20000861200008652000086920000864
:100070006D20000871200008752000087920000814
:100080007D200008812000088520000889200008C4
:100090008D20000891200008952000089920000874
:1000A0009D200008A1200008A5200008A920000824
:1000B000AD200008B1200008B5200008B9200008D4
:1000C000BD200008C1200008C5200008C920000884
:1000D000CD200008D1200008D5200008D920000834
:1000E000DD200008E1200008E5200008E9200008E4
:1000F000ED200008F1200008F5200008F920000894
:10010000FD20000801210008052100080921000840
:100110000D210008112100081521000819210008EF
:100120001D2100082121000825210008292100089F
:100130002D2100083121000835210008392100084F
:100140003D210008412100084521000849210008FF
:100150004D210008512100085521000859210008AF
:100160005D2100086121000865210008692100085F
:100170006D210008712100087521000800000000B1
:100180007921000870B50400002C01D10120E1E0C4
:1001900094F83D00002805D1002084F83C002000A0
:1001A00000F0DBFD242084F83D0020680068400852
:1001B0004000216808602068006850F40040216811
:1001C00008602068006830F400402168086001F091
:1001D000A6F80100DFF880016268824208D2DFF8E9
:1001E0007C21914201D2012200E00022D2B207E03C
:1001F000DFF86C21914201D2012200E00022D2B24C
:10020000012A01D10120A5E0DFF85821B1FBF2F26B
:1002100023685B689B099B01134325686B60236817
:100220001B6A6568854201D2551C08E04FF496753B
:1002300005FB02F54FF47A76B5FBF6F56D1C9B09CC
:100240009B012B4325682B622368DB696568854227
:1002500014D2481E65686D00B0FBF5F0401C000527
:10026000000D042801D204253EE0481E65686D009B
:10027000B0FBF5F56D1C2D052D0D35E0A0680028AF
:1002800009D14D1E666803204643B5FBF6F0401CBD
:100290000005000D0AE04D1E666819204643B5FBB7
:1002A000F6F0401C0005000D50F48040000501D11F
:1002B000012519E0A068002809D14D1E66680320B9
:1002C0004643B5FBF6F56D1C2D052D0D0AE04D1EC0
:1002D000666819204643B5FBF6F56D1C2D052D0DFE
:1002E00055F4804555F40045DFF87C0003402B436E
:1002F0002068C3612068036833F0C003E0690343EA
:10030000206A03432068036020688368DFF85C008C
:10031000034020690343E06803432068836020684A
:10032000C3681B0A1B02A569606905432B4320684B
:10033000C3602068006850F0010023681860002046
:100340002064202084F83D0000202063002084F8F1
:100350003E00002070BD0000A186010080841E00C8
:1003600000093D0040420F000030FFFF007CFFFF0E
:100370002DE9FE4F05000E0017009846DDF830907D
:100380000D9CDDF838A000F0FDFF834695F83D0098
:10039000202840F0A180CDF800B019230122DFF819
:1003A0004414280000F050FB002801D0022094E003
:1003B00095F83C00012801D102208EE0012085F84B
:1003C0003C0028680068C00705D42868006850F021
:1003D0000100296808602868006830F40060296816
:1003E0000860212085F83D00402085F83E0000206F
:1003F0002864C5F824906C85688D2885DFF8E003B3
:10040000E862CDF804B0CDF800A043469BB23A00B4
:1004100092B2310089B2280000F0E8F9002801D03A
:1004200001205AE0288D002833D05A465146280032
:1004300000F0ACFB00280AD0286C042805D12868FD
:10044000006850F4007029680860012045E0686A7F
:10045000007829680861686A401C6862288D401E1F
:100460002885688D401E6885286840694007D9D571
:10047000288D0028D6D0686A007829680861686AE3
:10048000401C6862288D401E2885688D401E688546
:10049000C8E75A465146280000F0A4FB00280AD0BD
:1004A000286C042805D12868006850F40070296879
:1004B0000860012011E02868006850F40070296885
:1004C0000860202085F83D00002085F83E000020CF
:1004D00085F83C00002000E00220BDE8FE8F00000F
:1004E0002DE9F24F82B0050016001F00DDF83080C4
:1004F0000D9CDDF8389000F045FF824695F83D00F0
:10050000202840F06A81CDF800A019230122DFF8ED
:10051000D412280000F098FA002801D002205DE1F2
:1005200095F83C00012801D1022057E1012085F80F
:100530003C0028680068C00705D42868006850F0AF
:100540000100296808602868006830F400602968A4
:100550000860222085F83D00402085F83E000020FC
:100560002864C5F824806C85688D2885DFF87002C2
:10057000E862CDF804A0CDF800903B009BB23200B9
:1005800092B2BDF80810280000F0A6F9002801D0AA
:10059000012023E1288D00280FD100200090286839
:1005A0004069009028688069009000982868006879
:1005B00050F40070296808603AE0288D012815D1B0
:1005C0002868006830F48060296808600020009086
:1005D0002868406900902868806900900098286821
:1005E000006850F400702968086021E0288D022816
:1005F00015D12868006830F4806029680860286890
:10060000006850F4006029680860002000902868A5
:1006100040690090286880690090009808E00020F8
:1006200000902868406900902868806900900098D0
:10063000288D002800F0C680288D042880F099803D
:10064000288D012816D152464946280000F0F8FAB4
:10065000002801D00120C1E028680069696A08709B
:10066000686A401C6862288D401E2885688D401E7F
:100670006885DDE7288D02282DD1CDF800A04B46F6
:100680000022DFF86411280000F0DEF9002801D014
:100690000120A3E02868006850F400702968086011
:1006A00028680069696A0870686A401C6862288D59
:1006B000401E2885688D401E688528680069696A23
:1006C0000870686A401C6862288D401E2885688D05
:1006D000401E6885ACE7DFF810B1CDF800A04B46AE
:1006E00000225946280000F0AFF9002801D001206F
:1006F00074E02868006830F4806029680860286821
:100700000069696A0870686A401C6862288D401E2A
:100710002885688D401E6885CDF800A04B460022D4
:100720005946280000F090F9002801D0012055E03A
:100730002868006850F4007029680860286800691B
:10074000696A0870686A401C6862288D401E2885A6
:10075000688D401E688528680069696A0870686A43
:10076000401C6862288D401E2885688D401E688563
:100770005EE752464946280000F062FA002801D0A0
:1007800001202BE028680069696A0870686A401CCB
:100790006862288D401E2885688D401E68852868FF
:1007A000406940077FF544AF28680069696A0870AE
:1007B000686A401C6862288D401E2885688D401E2E
:1007C000688535E7202085F83D00002085F83E004B
:1007D000002085F83C00002000E00220BDE8FE8FEC
:1007E0000000FFFF02001000040001002DE9F843A3
:1007F00004000D0016001F00DDF82080DDF82490B5
:100800002068006850F4807021680860CDF800907E
:10081000434600225FF00111200000F015F9002886
:1008200008D020680068C00502D54FF4007020642D
:1008300003204FE015F0FE00216808614B46424658
:10084000DFF8F813200000F044F9002801D001205F
:1008500040E0002000902068406900902068806996
:10086000009000984A464146200000F08FF9002889
:100870000AD0206C042805D12068006850F400706C
:1008800021680860012025E0380080B2012804D1E9
:100890003000C0B2216808611BE0300080B2000A5D
:1008A000C0B2216808614A464146200000F06EF956
:1008B00000280AD0206C042805D12068006850F474
:1008C000007021680860012004E03000C0B2216897
:1008D00008610020BDE8F2832DE9FC4704000D000B
:1008E00016001F00DDF82880DDF82C9020680068D5
:1008F00050F48060216808602068006850F48070BF
:1009000021680860CDF80090434600225FF0011195
:10091000200000F099F8002808D020680068C00581
:1009200002D54FF40070206403208BE015F0FE0028
:1009300021680861DFF804A34B4642465146200077
:1009400000F0C7F8002801D001207BE000200090D3
:1009500020684069009020688069009000984A46AD
:100960004146200000F012F900280AD0206C04282B
:1009700005D12068006850F40070216808600120EB
:1009800060E0380080B2012804D13000C0B2216894
:1009900008611BE0300080B2000AC0B22168086123
:1009A0004A464146200000F0F1F800280AD0206CA9
:1009B000042805D12068006850F4007021680860A0
:1009C00001203FE03000C0B2216808614A4641463C
:1009D000200000F0DBF800280AD0206C042805D1A4
:1009E0002068006850F4007021680860012029E048
:1009F0002068006850F4807021680860CDF800908D
:100A0000434600225FF00111200000F01DF800288D
:100A100008D020680068C00502D54FF4007020643B
:100A200003200FE055F00100C0B2216808614B4679
:100A300042465146200000F04CF8002801D0012029
:100A400000E00020BDE8F6872DE9F04105000E002A
:100A500017001C00DDF818803000000CC0B201281F
:100A60000AD128684069304080B2B1B2884201D1D1
:100A700001200BE0002009E028688069304080B246
:100A8000B1B2884201D1012000E000203900C9B292
:100A900088421BD114F1010FDED000F073FCB0EBE3
:100AA0000800844201D3002CD6D1002028632020E6
:100AB00085F83D00002085F83E00286C50F02000AD
:100AC0002864002085F83C00012000E00020BDE8FB
:100AD000F081F8B505000E0014001F003000000C76
:100AE000C0B201280AD128684069304080B2B1B252
:100AF000884201D101200BE0002009E028688069CC
:100B0000304080B2B1B2884201D1012000E0002023
:100B1000002839D12868406940051AD5286800683E
:100B200050F40070296808607FF48060296848618B
:100B300000202863202085F83D00002085F83E0035
:100B4000286C50F004002864002085F83C00012047
:100B50001BE014F1010FC1D000F014FCC01B844253
:100B600001D3002CBAD100202863202085F83D0055
:100B7000002085F83E00286C50F0200028640020FA
:100B800085F83C00012000E00020F2BD70B50500B2
:100B90000C00160028684069000621D4280000F0E7
:100BA00088F8002801D001201BE014F1010FF1D0DA
:100BB00000F0E8FB801B844201D3002CEAD1002026
:100BC0002863202085F83D00002085F83E00286C31
:100BD00050F020002864002085F83C00012000E04F
:100BE000002070BD70B505000C0016002868406933
:100BF000400721D4280000F05CF8002801D0012033
:100C00001BE014F1010FF1D000F0BCFB801B84420B
:100C100001D3002CEAD100202863202085F83D0074
:100C2000002085F83E00286C50F020002864002049
:100C300085F83C00012000E0002070BD02000100AA
:100C400070B505000C0016002868406940062ED4D7
:100C500028684069C00612D57FF0100029684861F5
:100C600000202863202085F83D00002085F83E0004
:100C7000286C2864002085F83C00012018E000F072
:100C800081FB801B844201D3002CDDD1002028632E
:100C9000202085F83D00002085F83E00286C50F0AB
:100CA00020002864002085F83C00012000E000209E
:100CB00070BD010008684069400514D57FF480606C
:100CC0000A68506100200863202081F83D00002060
:100CD00081F83E00086C50F004000864002081F8A0
:100CE0003C00012000E00020704730B4002513E0F4
:100CF00050F8042BD30744BFA9F101039A18091F28
:100D0000042942F8045BFAD213468C0744BF1580CD
:100D10009B1CC90748BF1D7050F8041B0029E7D170
:100D200030BC704781B0002000902648016851F423
:100D300080410160006810F480400090009800201D
:100D400000902148016851F080510160006810F066
:100D500080500090009801B0704710B586B0040034
:100D60001422002101A800F013FB206817498842D3
:100D700025D1002000901648016851F00201016061
:100D8000006810F0020000900098C020019012202E
:100D9000029000200390032004900420059001A9F4
:100DA0000C4800F0FFFA002000900748016851F459
:100DB00000110160006810F400100090009806B067
:100DC00010BD00004438024040380240005400404A
:100DD00030380240000402402DE9FC410400002CA0
:100DE00001D10120ACE12078C0073FD5DFF84C05E8
:100DF000016811F00C01042909D0006810F00C0002
:100E000008280ED1DFF838050068400209D5DFF860
:100E100028050068800329D56068002826D10120B4
:100E20008EE16068DFF82C150870606800280ED02D
:100E300000F0A8FA0500DFF800050068800315D46B
:100E400000F0A0FA401B6528F5D3032078E100F0FC
:100E500099FA0500DFF8E0040068800306D500F089
:100E600091FA401B6528F5D3032069E120788007BB
:100E700056D5DFF8C804016811F00C0F09D00068DE
:100E800010F00C00082818D1DFF8B4040068400204
:100E900013D4DFF8A4040168890704D5E1680129A7
:100EA00001D001204CE10168032231F0F8012369EF
:100EB00013FA02F21143016032E0E06800281CD00E
:100EC0000120DFF89414086000F05CFA0500DFF8F8
:100ED00068040168890706D400F054FA401B03280F
:100EE000F5D303202CE10168032231F0F8012369D6
:100EF00013FA02F21143016012E00020DFF85814E7
:100F0000086000F03FFA0500DFF82C040068800755
:100F100006D500F037FA401B0328F5D303200FE174
:100F20002078000728D56069002812D00120DFF85A
:100F30002C14086000F026FA0500DFF808040068A9
:100F4000800719D400F01EFA401B0328F5D30320B4
:100F5000F6E00020DFF80414086000F013FA050042
:100F6000DFF8E0030068800706D500F00BFA401BAD
:100F70000328F5D30320E3E02078400762D500265C
:100F8000DFF8DC733868C0000CD4002000903868AB
:100F900050F080503860386810F080500090009811
:100FA00001200600DFF8BC83D8F8000050F4807000
:100FB000C8F80000D8F80000C00513D4D8F8000025
:100FC00050F48070C8F8000000F0DCF90500D8F893
:100FD0000000C00506D400F0D5F9401B0328F6D365
:100FE0000320ADE0DFF88083A06888F80000A068E7
:100FF00000280FD000F0C6F90500D8F800008007DF
:1010000018D400F0BFF9401B41F289318842F4D373
:10101000032095E000F0B6F90500D8F8000080073D
:1010200008D500F0AFF9401B41F289318842F4D372
:10103000032085E03000C0B2012803D1386830F0C9
:1010400080503860A069002879D0DFF8F00200688D
:1010500010F00C0008284FD0A069022839D1DFF821
:101060000C830020C8F8000000F08CF90600DFF8BF
:10107000C8723868800106D500F084F9801B6528A5
:10108000F5D303205CE0DFF8B8120A68DFF8E0026D
:101090000240E0690243206A0243606A52EA801219
:1010A000E06A52EA0062A06A4008401E52EA00422A
:1010B0000A600120C8F8000000F064F905003868F3
:1010C00080013CD400F05EF9401B6528F7D3032073
:1010D00036E00020DFF89412086000F053F90500B4
:1010E000DFF854020068800129D500F04BF9401B5D
:1010F0006528F5D3032023E0A069012801D1012050
:101100001EE0DFF83C02016811F48000E2699042C1
:1011100013D111F03F00226A90420ED1C1F3881022
:10112000626A904209D111F44030A26A904204D11F
:1011300011F07060E26A904201D0012000E00020CE
:10114000BDE8F6812DE9F04104000D00002C01D12D
:10115000012099E0DFF81C72386810F00F00A842F7
:1011600007D23D70386810F00F00A84201D001206E
:101170008AE02078800719D52078400705D5DFF868
:10118000BC01016851F4E05101602078000705D5E9
:10119000DFF8A801016851F460410160DFF89C119B
:1011A0000A6832F0F002A06802430A602078C007A3
:1011B00037D56068012806D1DFF87C01006880031C
:1011C00011D4012060E06068022806D1DFF86801D0
:1011D0000068800107D4012056E057480068800766
:1011E00001D4012050E0DFF85481D8F800108908BC
:1011F000890060680143C8F8001000F0C3F80600D9
:10120000D8F8000010F00C006168B0EB810F08D036
:1012100000F0B8F8801B41F289318842F0D30320F6
:1012200032E0386810F00F00854207D23D70386810
:1012300010F00F00A84201D0012025E020784007DF
:1012400006D53E490A6832F4E052E06802430A607B
:101250002078000707D53948016831F460412269D8
:1012600051EAC201016000F011F834490968424AAC
:1012700011F0F0010909515CC84034490860344854
:10128000006800F0B5F90020BDE8F0812DE9F041DB
:1012900000240025002600272848006810F00C00D4
:1012A000002804D0042804D0082804D031E02648BF
:1012B00030E032482EE0DFF88880D8F8000010F0E7
:1012C0003F000400D8F8000040020CD5D8F8000018
:1012D000C0F388102949A1FB00012200002300F07F
:1012E000ADF905000BE0D8F80000C0F388101649EE
:1012F000A1FB00012200002300F0A0F90500D8F8AE
:101300000000C0F30140401C40000600B5FBF6F0B1
:1013100000E00D48BDE8F0810C480068704780B5DA
:10132000FFF7FAFF05490968154A11F4E051890AE7
:10133000515CC84002BD000000380240083802403D
:1013400004380240743802400024F40008010020F0
:10135000040100200238024000004742800E47424C
:101360004038024000700040703802406000474240
:101370000080BCF0003C02400820000800127A0007
:101380003420000801480068704700BF8002002038
:1013900010B5044610460A460146204600F066FA9B
:1013A000204610BDF8B4030000250868E840002876
:1013B00000F0F08001260F6816FA05F007403A00A9
:1013C000002A00F0E580087910F00300012804D01D
:1013D000087910F0030002281DD19F685FF0030C0C
:1013E0002800C0B240001CFA00FC37EA0C07D1F814
:1013F0000CC02800C0B240001CFA00FC5CEA0707E1
:101400009F605868AE40B0434E68C6F30016AE40C9
:10141000304304005C60087910F0030003280ED00C
:10142000DE6803272800C0B240008740BE438F68B3
:101430002800C0B2400087403E433400DC60087999
:1014400010F00300022818D12800C00803EB800028
:10145000066A0F2715F00700C0B280008740BE4320
:101460000F6915F00700C0B2800087403E4334008A
:101470002800C00803EB800004621E6803272800D0
:10148000C0B240008740BE430F7917F00307280021
:10149000C0B2400087403E4334001C60486810F4EE
:1014A000403F75D000200090DFF80801066856F430
:1014B00080460660006810F4804000900098DFF8D5
:1014C000F8702800800857F820605FF00F0C15F0C6
:1014D0000300C0B280001CFA00FC36EA0C06374854
:1014E000834201D1002428E03548834201D1012400
:1014F00023E03448834201D102241EE03248834273
:1015000001D1032419E03148834201D1042414E0BD
:101510002F48834201D105240FE02E48834201D198
:1015200006240AE02C48834201D1072405E02B4819
:10153000834201D1082400E00924E4B215F003003D
:10154000C0B28000844026432800800847F820600D
:10155000234C206890434F68FF0300D51043206060
:10156000204E346894434F68BF0300D51443346061
:101570001D4E306890434F68FF0200D51043306025
:101580001A4E346894434F68BF0200D51443346048
:101590006D1C0AE7F1BC70471300DBB2002B03D0CF
:1015A0000B009BB2836103E00B009BB21B048361C1
:1015B00070470000443802400838014000000240F3
:1015C0000004024000080240000C024000100240EB
:1015D0000014024000180240001C0240002002409B
:1015E000003C0140043C0140083C01400C3C0140EF
:1015F00010B504004FF47A700D490978B0FBF1F092
:101600000C490968B1FBF0F000F0FAF9002801D0AC
:1016100001200CE0102C09D2002221005FF0FF30E5
:1016200000F0D9F904480460002000E0012010BD5A
:101630000C0100200801002004010020BBBBE1B127
:10164000B2F5803F80F07E80022A1ED98C46B1FB25
:10165000F2F102FB11C31B0443EA1043B3FBF2FC9B
:1016600002FB1C3380B240EA0343B3FBF2F002FBFF
:10167000103240EA0C4000237047022A05D9844604
:10168000B0FBF2F002FB10C270474AB105D100F086
:10169000010249085FEA30007047002200237047CA
:1016A00000F0C2B90B0002000021002070479042F8
:1016B00071EB030CF6D3B3F5803F2FD2F0B5B3FA3C
:1016C00083F7B1FA81F4A7F10F0E3D1B5340CEF121
:1016D000200602FA0EF2F3415340B5F10F0746D847
:1016E0000F3C2C444140C4F12006A040F141414050
:1016F000B1FBF3F603FB1611A2FB0645001BA94143
:1017000002D2761E8018594180EA010221FA0EF3B6
:1017100062FA0EF200215A403046F0BD30B4B1FBFF
:10172000F3FC03FB1C11A2FB0C45001BA94103D2D7
:10173000ACF1010C8018594130BC02460B466046A2
:1017400000217047B2F1807F65D3F0B5B2FA82F71D
:10175000B1FA81F4C7F10F063D1B22FA06F307F137
:10176000110EF24120355A40B5F10F07B8D941406A
:10177000C4F12006A040F1414140B1FBF3FC03FB62
:101780001C11A2FB0C45001BA94103D2BCF1010CAA
:10179000801859410F2F12D30F3FC90341EA50411E
:1017A000B1FBF3F603FB1611A2FB0645D4EBC030E8
:1017B000A94102D2761E8018594146EACC3C07B3B3
:1017C0004140C7F12006B840F1414140B1FBF3F67A
:1017D00003FB1611A2FB0645001BA94102D2761E8F
:1017E0008018594180EA010221FA0EF3C7F1200462
:1017F00062FA0EF20CFA07F05A402CFA04F1304368
:10180000F0BD80EA010221FA0EF3002162FA0EF225
:1018100060465A40F0BD8C46B1FBF2F102FB11C3A9
:101820001B0243EA1063B3FBF2FC02FB1C331B02F6
:101830004CEA002043EA1063B3FBF2FC02FB1C33CA
:101840001B024CEA002043EA1063B3FBF2FC02FBEC
:101850001C331B024CEA002043EA1063B3FBF2FC8A
:1018600002FB1C324CEA00200023704762F30F2277
:1018700062F31F42401810F0030308D0C91A1FD3A7
:10188000DB0748BF00F8012D28BF20F8022D130008
:1018900030B414461546103928BF20E93C00FAD868
:1018A000490728BF20E90C0048BF40F8042D8900F3
:1018B00028BF20F8022D48BF00F8012D30BC70472A
:1018C000C91818BF00F8012DCB0728BF00F8012D5B
:1018D000704730B40EE00268436802440830DC0709
:1018E00044BFA9F10104E31852F8045B43F8045B18
:1018F000091FF9D150F8041B0029ECD130BC704706
:1019000010B410F00703DFF8044122684FF6FF011E
:101910000A40DFF8FC1051EA03210A43226010BCA0
:101920007047DFF8E8000068C0F30220704710B489
:10193000020052B2002A05D40A01364B040064B2F8
:101940001A5508E00A01344B040064B214F00F0485
:10195000234403F8042C10BC704770B4030013F048
:101960000704D4F10700052801D3042001E0D4F1D5
:101970000700251D072D01D2002500E0E51E0126E8
:1019800016FA00F0401E0140A94016FA05F56D1E3A
:101990002A401143080070BC704710B50400601E57
:1019A000B0F1807F01D301200EE0601E1B4908606A
:1019B0000F215FF0FF30FFF7BAFF002018490860E1
:1019C000072018490860002010BD10B50400200051
:1019D000FFF796FF10BD2DE9F04104000D00160041
:1019E0000027FFF79EFF8046320029004046FFF7A0
:1019F000B4FF0100200040B2FFF799FFBDE8F0817D
:101A000010B504002000FFF7C8FF10BD0CED00E08A
:101A10000000FA0500E400E018ED00E014E000E04A
:101A200018E000E010E000E07047000038B584B036
:101A300000F002F900F03EF800F094F800F076F8BB
:101A4000012203A9002000F06EF90020002801D136
:101A5000012400E000248E226D49002000F006F9E8
:101A60006C4D8C222900072000F05DF900F0BAF9D6
:101A70004FF480722900002000F055F9664D4FF4B4
:101A80007A700290062001906448009001239A2207
:101A9000B0212800FEF724FD4FF47A700290102048
:101AA00001905F48009001238022B0212800FEF7BA
:101AB00017FDCAE718B591B03021002205AC20000F
:101AC000FFF7D4FE142100226C462000FFF7CEFE63
:101AD000012005900120069002200B905FF4800009
:101AE0000C9008200D90C0200E9002200F90042032
:101AF000109005A8FFF770F9002801D000F09AF8BF
:101B00000F20009002200190002002904FF4A0507E
:101B100003904FF48050049003216846FFF712FBB6
:101B2000002801D000F086F812B010BD80B53A4808
:101B30003C4901603C494160002181600021C16055
:101B40004FF4804101610021416100218161002148
:101B5000C16100210162FEF715FB002801D000F0F1
:101B600069F801BD10B586B01421002201AC200037
:101B7000FFF77CFE002000902C48016851F0040122
:101B80000160016811F004010091009900210091A9
:101B9000016851F080010160016811F0800100913D
:101BA000009900210091016851F010010160016865
:101BB00011F010010091009900210091016851F08D
:101BC00001010160016811F00101009100990021FB
:101BD0000091016851F002010160006810F00200FC
:101BE00000900098124C00224FF440412000FFF773
:101BF000D3FC4FF44040019001200290002003905C
:101C00000020049001A92000FFF7CCFB06B010BD16
:101C100000000020100100201002002074020020AB
:101C20006402002000540040A086010030380240C9
:101C30000010024072B6FEE780B50B48016851F40F
:101C400000710160016851F480610160016851F424
:101C5000807101600320FFF7B8FE0F20FFF7C8FC7A
:101C6000FFF760F8002002BD003C02402DE9FF4173
:101C700004000D001600310089B2200080B2411826
:101C800040F20110814202DBD4F5807006005FF063
:101C90000008300080B2102190FBF1F0804540DA5E
:101CA000300080B2103801281DDB002007004FF4FF
:101CB0007A7002901020019000950123220092B2C8
:101CC000A0214748FEF754FB002808D03800C0B2D6
:101CD0000A2804DA7F1C012000F098F8E7E7103E9C
:101CE00010351034DCE7002007004FF47A700290C2
:101CF000300080B2019000950123220092B2A02111
:101D00003748FEF735FB002808D03800C0B20A2853
:101D100004DA7F1C012000F079F8E6E718F10108E9
:101D2000B7E7BDE8FF812DE9FF4104000D00160073
:101D3000310089B2200080B2411840F20110814286
:101D400002DBD4F5807006005FF00008300080B23E
:101D5000102190FBF1F0804540DA300080B210385D
:101D600001281DDB002007004FF47A70029010203C
:101D7000019000950123220092B2A0211848FEF79D
:101D8000AFFB002808D03800C0B20A2804DA7F1C54
:101D9000012000F03BF8E7E7103E10351034DCE797
:101DA000002007004FF47A700290300080B201905A
:101DB00000950123220092B2A0210948FEF790FB72
:101DC000002808D03800C0B20A2804DA7F1C01209D
:101DD00000F01CF8E6E718F10108B7E7BDE8FF815D
:101DE0001002002070B5C0B04FF48074FF256E461D
:101DF0002A0021003000FFF739FD4FF48072694658
:101E00000020FFF733FF40B070BD000031B5FFF791
:101E1000B9FA0400009D15F1010F02D004480078C2
:101E20004519FFF7AFFA001BA842FAD331BD00BF36
:101E30000C010020506C617465612076656C6974DA
:101E4000206C6F72656D20696D7065726469657470
:101E5000206D617572697320696E206D617474699B
:101E6000732075726E6120736974206F726E617277
:101E70006520697073756D20696E20697073756D6A
:101E80002065742E20536F64616C657320717569D1
:101E9000732C20696E206E6F6E20706C61746561AA
:101EA0002069642061656E65616E20646963747584
:101EB0006D2064696374756D73742E205269737537
:101EC0007320766573746962756C756D20766573C1
:101ED000746962756C756D206F726E6172652073C6
:101EE0006974206F726E61726520736564206E651F
:101EF00063206172637520696E7465676572206323
:101F00007572737573206475692075726E612069CE
:101F10006E2061656E65616E206D617474697320F9
:101F20006F64696F2E204E6F6E2066617563696203
:101F300075732E2031000000100000000024F40012
:101F40000100000010B5074979441831064C7C4463
:101F5000163404E00A68081D114488470146A1426E
:101F6000F8D110BD08000000280000007FEDFFFF41
:101F700074010000100100200000000057F9FFFF6D
:101F800010010000B0FEFFFF000000200000000074
:101F900000F00DF8002801D0FFF7D4FFAFF3008068
:101FA0000020AFF30080FFF741FD00F002F80120B0
:101FB000704700F001B800000746384600F002F80C
:101FC000FBE7000080B5AFF30080024A1100182043
:101FD000ABBEFBE72600020003490A68034800780D
:101FE00082180A60704700BF800200200C010020A8
:101FF000FEE7FEE7FEE7FEE7FEE770477047704743
:1020000080B5FFF7E9FF01BD0000000000000000FF
:1020100001020304060708090148804701480047F8
:102020007D21000829200008AFF30080AFF3008075
:10203000FFF7AEFF0000000001020304FFF7FEBF40
:10204000FFF7FEBFFFF7FEBFFFF7FEBFFFF7FEBFC4
:10205000FFF7FEBFFFF7FEBFFFF7FEBFFFF7FEBFB4
:10206000FFF7FEBFFFF7FEBFFFF7FEBFFFF7FEBFA4
:10207000FFF7FEBFFFF7FEBFFFF7FEBFFFF7FEBF94
:10208000FFF7FEBFFFF7FEBFFFF7FEBFFFF7FEBF84
:10209000FFF7FEBFFFF7FEBFFFF7FEBFFFF7FEBF74
:1020A000FFF7FEBFFFF7FEBFFFF7FEBFFFF7FEBF64
:1020B000FFF7FEBFFFF7FEBFFFF7FEBFFFF7FEBF54
:1020C000FFF7FEBFFFF7FEBFFFF7FEBFFFF7FEBF44
:1020D000FFF7FEBFFFF7FEBFFFF7FEBFFFF7FEBF34
:1020E000FFF7FEBFFFF7FEBFFFF7FEBFFFF7FEBF24
:1020F000FFF7FEBFFFF7FEBFFFF7FEBFFFF7FEBF14
:10210000FFF7FEBFFFF7FEBFFFF7FEBFFFF7FEBF03
:10211000FFF7FEBFFFF7FEBFFFF7FEBFFFF7FEBFF3
:10212000FFF7FEBFFFF7FEBFFFF7FEBFFFF7FEBFE3
:10213000FFF7FEBFFFF7FEBFFFF7FEBFFFF7FEBFD3
:10214000FFF7FEBFFFF7FEBFFFF7FEBFFFF7FEBFC3
:10215000FFF7FEBFFFF7FEBFFFF7FEBFFFF7FEBFB3
:10216000FFF7FEBFFFF7FEBFFFF7FEBFFFF7FEBFA3
:0E217000FFF7FEBFFFF7FEBFFFF7FEBF704791
:0400000508002029A6
:00000001FF
