:020000040800F2
:1000000078080120E9A5020813970208159702084D
:10001000499702084B9702084D970208000000001C
:100020000000000000000000000000004F970208E0
:1000300051970208000000005397020855970208E4
:1000400051A7020855A7020859A702085DA7020890
:1000500061A7020865A702086197020869A702085C
:100060006DA7020871A7020875A7020879A7020800
:100070007DA7020881A7020885A7020889A70208B0
:100080008DA7020891A7020895A7020899A7020860
:100090009DA70208A1A70208A5A70208A9A7020810
:1000A000ADA70208B1A70208B5A70208B9A70208C0
:1000B000BDA70208C1A70208C5A70208C9A7020870
:1000C000CDA70208D1A70208D5A70208D9A7020820
:1000D000DDA70208E1A70208E5A70208E9A70208D0
:1000E000EDA702086B970208F1A70208F5A702081E
:1000F000F9A70208FDA7020801A8020805A802083E
:1001000009A802080DA8020811A8020815A80208EB
:1001100019A802081DA8020821A802087997020858
:1001200025A8020829A802082DA8020831A802085B
:1001300035A8020839A802083DA8020841A802080B
:1001400045A8020849A802084DA80208839702089A
:1001500051A8020855A8020859A802085DA802087B
:1001600061A8020865A8020869A802086DA802082B
:1001700071A8020875A8020879A80208000000000A
:100180007DA8020881A80208010101008601000083
:04019000FA9F8463EB
:10C0000020B1007A002818BF01F0EDBC104601F005
:10C0100055BD00002DE9F04704000E4692469846B3
:10C0200008D1DFF8980C0FF6780100F12803A3225D
:10C0300001F0D0FE46B9DFF8840C00F12803A422F9
:10C0400000F14C0101F0C6FEDDF820905FEAC970F6
:10C050004CBF04270027032001F022FF050003D175
:10C06000304602F07DF91CE085F80C900020286035
:10C070006E603189B94207DADFF8400C1CA100F18B
:10C080002803B02201F0A6FE3089C01B00212881C0
:10C0900069813046142102F00AF928B1284603F0DC
:10C0A00063FA0020BDE8F087686841682961E08A8A
:10C0B00003F02EFD29690880208B03F029FD2969F2
:10C0C0004880404603F02AFD29694860781007EB54
:10C0D0009077BF107F1D4AEA073188B203F018FD40
:10C0E000296988810020296948822846BDE8F087AF
:10C0F000702D3E746F745F6C656E203E3D206F70D6
:10C10000746C656E000000002DE9F8430E461C00BB
:10C1100080469146374608D1DFF8A00B00F128038E
:10C12000E82200F1700101F055FEDDF820503DB924
:10C13000DFF8880B20A100F12803E92201F04AFE74
:10C140004E451AD2099880070AD4A97E480614D40D
:10C150000A9828B1E86E002804BF286F00280CD088
:10C16000314601F2B7518908B9EB810F31BF4F4613
:10C1700006F2B7574FF6FC70074040464FF4207266
:10C18000394601F019FF050008BF002011D0D5F88D
:10C19000000040B1DFF8240B0FA100F1280340F2AA
:10C1A0000B1201F017FE6889801B20802E816E81A2
:10C1B0002846BDE8F28300007463705F70627566A4
:10C1C0005F707265616C6C6F633A20696E76616C4A
:10C1D00069642070636200006E65656420756E633B
:10C1E0006861696E65642070627566002DE9F04FC4
:10C1F0008DB006460020834606900590CDF830B0FD
:10C20000ADF80C000A90ADF820001F4600248246CD
:10C210000B9016B90FF2086014E006F16208B8F846
:10C220000000738E4008834234BFADF81230ADF881
:10C230001200BDF8120008B9ADF81230079131B9FB
:10C24000DFF87C0A01F0C6FD6FF00F00E4E2307DFC
:10C25000042818BF072806D002281CBF03286FF047
:10C260000A0040F0AE81ADF81020DAB1B8F8020053
:10C2700090422ED3B8F8040010282AD206F16C029E
:10C280000028516817D0002904BF1068002809D180
:10C29000DFF8280A00F128034FF4AB7200F1940193
:10C2A00001F098FDB8F80490F16E8DF80E70002939
:10C2B00000F0F28013E0002904BF10680028F1D0DC
:10C2C000DFF8F80900F1280340F2591200F1D0011B
:10C2D000E6E7708B40F08000708370E101460868EB
:10C2E0000028FBD10C46207BC1072189BDF8120034
:10C2F0004CBF042500256918884209DADFF8BC091B
:10C300000FF2345100F128034FF4F37201F062FD93
:10C31000BDF812102089091A4D1BB8F80610608963
:10C32000814209D0DFF8940900F128034FF4FA7232
:10C3300000F59C7101F04EFDB8F80600BDF81070D4
:10C34000ADF80C00002840D00146A8B2884209D2BE
:10C35000DFF868090FF2F84100F128034FF4FC728E
:10C3600001F038FDBDF80C00BDF8101005948842AE
:10C3700034BFBDF80C003846A9B28142B8BF284688
:10C3800006DBBDF80C00BDF81010884288BF0846D7
:10C3900080B20A900AA8BDF80C20B0F800A00A9953
:10C3A000A2EB0A02ADF80C206D1ABDF80C000028B3
:10C3B00018BFBA4509D0DFF804090FF2B44100F103
:10C3C00028034FF4007201F005FDBA4571DAA8B2F6
:10C3D00000281CBF2089002870D0A8B2A7EB0A074C
:10C3E000B8429DF80E00B2BF2F46BDF81070A7EB03
:10C3F0000A07C10705941BD59DF80E100191012075
:10C400000290009603ABAAB2B9B20020FFF77CFEFF
:10C410000028069000F0B080BDF80C000799ADF838
:10C420002000BAB206984068514403F0A1FB2BE00B
:10C43000616800E0014608680028FBD1087B10F025
:10C44000C00F15D1486849890144079881420FD12E
:10C45000BAF1000F09D0DFF8640800F1280340F2B8
:10C46000312200F5B47101F0B5FCB8B20B900FE0C9
:10C470000122B9B2002001F09FFD002806907BD078
:10C480000798069950444860069801F0C6FF814419
:10C49000BA441FFA8AFA0CE0B8F8060048B1DFF88F
:10C4A0001C0800F1280340F24B2200F5CA7101F08C
:10C4B00091FCBDF81000824580F20181BDF81000AA
:10C4C000BDF81220A0EB0A0081B291423ABF80B2BF
:10C4D000099009929DF80E00C1072AD5BBF1000F03
:10C4E0000CBF012000200290009603AB9DF80E00C7
:10C4F000BDF812200190099881B23620FFF704FEA2
:10C500000028054638D068890999884209DADFF899
:10C51000AC0700F1280340F2672200F5E27101F058
:10C5200059FC0798099A00EB0A01686803F020FBA0
:10C530004BE0BDF80C0048B1DFF880070FF2503136
:10C5400000F1280340F2712201F044FC099881B205
:10C550000122362001F030FD07000DD0079850442D
:10C5600078604FF420720021362001F025FD054649
:10C5700040BB384601F0F4FE708B40F080007083C1
:10C58000069808B101F0ECFEBBF1000F1CBF584645
:10C5900002F0DBFFB8F8040088B106F16C004168D6
:10C5A000002904BF0068002809D1DFF810070FF246
:10C5B000243100F128034FF44A7201F00BFC4FF0D4
:10C5C000FF3029E1394601F042FF284601F025FFFE
:10C5D00081441FFA89F0102888BF2846CAD8F06D18
:10C5E0005044009046B9DFF8D4060FF2B42100F1B0
:10C5F0002803A32201F0EEFB45B9DFF8C00600F1E5
:10C600002803A42200F14C0101F0E4FB032001F017
:10C6100047FC070003D1284601F0A2FE0FE00020EE
:10C620003873002139607D602889388179812846F6
:10C63000142101F03CFE20B1384602F095FF00279E
:10C640001AE0786841683961F08A03F061FA396963
:10C650000880308B03F05CFA39694880009803F059
:10C660005DFA396948604FF4A04003F051FA396926
:10C670008881002039694882002F05973FF47CAFFC
:10C68000BDF80C007881BBF1000F08BFDDF814B0D5
:10C690000ED0DDF8300040B9DFF8200688A100F1A7
:10C6A000280340F2AB2201F095FB0C990598086035
:10C6B0000998059A0C9250441FFA80FAF9E6002C6A
:10C6C0001CBFBDF82000002802D06189411861819B
:10C6D0000A9838B3676805460FE0398929443981DB
:10C6E000386848B978687B8907992A46184403F066
:10C6F0003FFA7889284478813F68002FEDD120895E
:10C7000061892844A942208109DADFF8B00500F1E7
:10C7100028034FF4357200F5017101F05BFB60896D
:10C72000401B6081BDF80C10A8F80610069898B15F
:10C730004CB9DFF8880500F1280340F2E12200F54A
:10C740000C7101F047FB0699606801F080FE069AC3
:10C7500021891089411823E00B9880B208B3002C7E
:10C760001CBF6068002809D1DFF8500500F12803DC
:10C7700040F2E72200F51A7101F02CFB62680B9978
:10C7800003E01389CB181381024610680028F8D102
:10C790001089538908181081CB18538120890918F2
:10C7A0002181002C0CBFC6F86CB0C4F800B0F06D4D
:10C7B000BDF810104118F165B8F80220BDF810005E
:10C7C000A8F80490121AB8F80400A8F8022080B162
:10C7D00006F16C004168002904BF0068002808D1F8
:10C7E000DFF8D8043BA100F1280340F2133201F036
:10C7F000F1FA059800281CBF006900280BD09DF8AD
:10C800000E00810707D4082003F082F90599096911
:10C810008A891043888100200DB0BDE8F08F0000A8
:10C820007463705F77726974653A20696E76616CC3
:10C8300069642070636200006D73735F6C6F636185
:10C840006C20697320746F6F20736D616C6C0000D5
:10C85000696E636F6E73697374656E74206F76654D
:10C860007273697A652076732E2073706163650038
:10C87000696E636F6E73697374656E74206F76652D
:10C880007273697A652076732E206C656E000000E5
:10C890006F76657273697A65203D3D203000000037
:10C8A0007463705F6372656174655F7365676D65FE
:10C8B0006E743A20696E76616C6964207063620000
:10C8C000707265765F73656720213D204E554C4C34
:10C8D000000000007463705F77726974653A2076B7
:10C8E000616C6964207175657565206C656E67742F
:10C8F000680000002DE9FE4F0500884609D1DFF8E9
:10C90000BC0300F1280340F24B3200F5287101F01E
:10C9100061FAEC6E002C00F0AA80B8F1000F0CD187
:10C92000DFF8980300F1280340F2533200F531712B
:10C9300001F050FA6FF005005BE32189884580F033
:10C94000928005F132073888404509D2DFF86C0340
:10C950000FF6F83100F1280340F25B3201F03AFAA9
:10C96000208948B9DFF854030FF6F03100F12803AD
:10C970004FF4577201F02EFA207B0190C0072689F0
:10C98000A6EB08064CBF4FF0040A4FF0000AB6B2FF
:10C990000AEB06014FF4207289B2362001F00CFB3D
:10C9A0005FEA000963D0606821890389D9F804C06F
:10C9B0005B1A43449BB232460CEB0A0101F00FFEB6
:10C9C000B04251D12069808903F0A2F800F03F0AFB
:10C9D0004FF0000B5FEA0A71216944BF0AF0F70AC1
:10C9E0004FF0080B5FEACA70486844BF2AF0010A9A
:10C9F0004BF0010B03F092F80199C9B2009100EBE2
:10CA000008035A4649462846FFF704FB05002ED086
:10CA1000606801F002FDB98E081AB8866068018965
:10CA2000891B89B201F0C0FB2089861B26815046F4
:10CA300003F06EF821698A891043888100206081A3
:10CA4000606801F0EAFCB98E4018B886686801F0A9
:10CA5000E4FCB98E4018B88622682A6025602868F0
:10CA600008B90021F986C3E2484601F079FC4FF08D
:10CA7000FF30BEE2F8B5040008D190480FF6EC2173
:10CA800000F128034FF47B7201F0A4F904F16C0665
:10CA90003568BDB100E0054628680028FBD128694B
:10CAA000808903F035F810F0070F0BD1012003F057
:10CAB0002FF829698A8910438881608B40F0200013
:10CAC00060835DE044B97D480FF6BC2100F1280386
:10CAD00040F2144201F07EF94FF42072002136201A
:10CAE00001F06AFA01004DD0002000900122E36DB0
:10CAF0002046FFF78FFA050044D0287C10F0030F82
:10CB000008D06E480FF6A02100F1280340F24342FE
:10CB100001F060F9288940B1684800F1280340F22B
:10CB2000444200F55F7101F055F9316811B9356083
:10CB300004E0014608680028FBD10D6004F1660797
:10CB400000207880608BE16D40F02000491C6083FC
:10CB5000E165686801F061FC39884018388080B26E
:10CB600070B17068002804BF3168002908D15348AB
:10CB700000F1280340F2674200F56A7101F02AF9DA
:10CB80000020F2BD608B40F0800060834FF0FF30EA
:10CB9000F2BD2DE9FC418846002718F0030F04463A
:10CBA00008D1464800F1280340F2134200F53A71DB
:10CBB00001F010F944B941480FF6CC1100F12803F7
:10CBC00040F2144201F006F95FEA887046BF01277F
:10CBD000042600264FF420723146362001F0ECF98D
:10CBE000050014D06889B04208DA344800F12803FF
:10CBF00040F23B4200F5507101F0ECF800974246DC
:10CC0000E36D29462046FFF705FA050007D1608B42
:10CC100040F0800060834FF0FF30BDE8F681287C53
:10CC200010F0030F08D025480FF67C1100F12803FF
:10CC300040F2434201F0CEF8288940B11F4800F18C
:10CC4000280340F2444200F55F7101F0C3F804F19B
:10CC50006C07396811B93D6004E001460868002896
:10CC6000FBD10D6004F16606002018F0030F708000
:10CC700002D0E06D401CE0655FEAC87003D5618BAF
:10CC800041F020016183686801F0C7FB31884018DA
:10CC9000308080B270B17968002904BF38680028FC
:10CCA00008D1064800F1280340F2674200F56A7196
:10CCB00001F090F80020BDE8F681000070750208D0
:10CCC000747602082DE9F04F050083B009D1DFF832
:10CCD00070080FF6EC0100F1280340F2E24201F087
:10CCE00079F8287D012809D1DFF8540800F12803DC
:10CCF00040F2E54200F5747101F06CF8DFF8440889
:10CD00000168A94200F0748105F14807388BB7F833
:10CD100000807C6A404538BF80466CB32A1D294696
:10CD20002846FFF76DF95FEA000907D0002D1CBF08
:10CD30002868002807D119F1040002D16FF0030020
:10CD400057E1006828602169486802F0E7FE696CD5
:10CD50002289401A8018804517D2398B884504BF34
:10CD6000B86A002808D105F19401487820B900225A
:10CD700001200A7048708A70A87E810740F13381D3
:10CD8000284603B0BDE8F04F30E305F194010020E0
:10CD90004870BE6A26B13068002818BF0646FAD12E
:10CDA0002169486802F0BAFE696C2289401A80182D
:10CDB0008045C0F014812169888902F0A9FE4007EE
:10CDC00009D5DFF87C070FF6100100F128034FF4B6
:10CDD000A76200F0FFFFB86AA0B16A8B12F0440F9F
:10CDE00010D1796A29B1086860B90889698E8842CA
:10CDF00008D2B88B30B1F88B102803DA12F0A00FEC
:10CE000000F0ED80287D022806D0102002F080FE80
:10CE100021698A89104388814DB940F2BA52DFF8FE
:10CE200020070FF2CC7100F1280300F0D3FF4CB9BA
:10CE3000DFF80C0700F1280340F29B5200F57E71E9
:10CE400000F0C8FF6068817B01295ED1686A02F04A
:10CE500065FE21698860688D02F05AFE2169C881EB
:10CE6000686A6A8D8218EA6201F1140A207BC107A0
:10CE70000BD52A1D494640F2B45002F03BFD40F06C
:10CE8000017002F04BFE4AF8040BB5F9300000289F
:10CE900044BF00212986686B40B9DFF8AC160868EA
:10CEA00068632169486802F039FEA86361682069F7
:10CEB0004A684B89821A92B29B1A4B810B8948604F
:10CEC0009A1A0A8100210182227BD1074CBF0421DA
:10CED000002114300844824509D0DFF864060FF2BF
:10CEE000307100F1280340F21D6200F073FF06204C
:10CEF000CDF8089001902A1DA97A0091EB7A60681C
:10CF0000294600F0D6FE010034D10020608121685E
:10CF10007962287D022804D0688B4FF6FC710840A6
:10CF200068832169486802F0F9FD8246206980899A
:10CF300002F0EEFD00F00300411E20898941C94343
:10CF4000504400EBD170B968091A48BFB860206935
:10CF5000808902F0DDFD00F00300401E8041218940
:10CF6000C04311EBD07033D000222260B86A30B9D0
:10CF7000BC622BE0698B41F08001698339E0216953
:10CF8000486802F0CBFD31698246486802F0C6FD70
:10CF9000BAEB000019D505F1700A01E0DAF800A03B
:10CFA000DAF8000058B10169486802F0B7FD21695C
:10CFB0008346486802F0B2FDBBEB0000EED4DAF81D
:10CFC00000002060CAF8004005E03460264602E018
:10CFD000204602F0C9FA7C6A002C7FF4E1AE786A40
:10CFE00008B9002139844FF67F70698B014069834D
:10CFF000002003B0BDE8F08F2DE9F843050009D10A
:10D00000DFF83C0500F1280340F2646200F244417D
:10D0100000F0E0FE05F16806B468002C47D0DFF8A8
:10D02000207507F57E7840F29B590CE034B907F182
:10D0300028034A464146384600F0CCFE6068817BB2
:10D04000012934D1246820680028EFD134B907F1D0
:10D0500028034A464146384600F0BCFE6068817BA2
:10D06000012924D171682160706808B96089308015
:10D070000020B1687160B060698B41F40061698320
:10D080002169486802F04AFD06462069808902F05D
:10D090003FFD00F00300401E21898041C04371180C
:10D0A00001EBD070E86400206863BDE8F2836FF0A4
:10D0B0000500BDE8F28310B5040009D1DFF8800453
:10D0C00000F1280340F2996200F58D6100F082FEC4
:10D0D00094F84200FF281CBF401C84F84200204600
:10D0E000BDE81040EEE510B5040009D1DFF85004AA
:10D0F0000FF2305100F1280340F2AE6200F06AFEF8
:10D100002046FFF779FF18B92046BDE81040D2E766
:10D1100010BDF8B5050009D1DFF824040FF2205145
:10D1200000F1280340F2C26200F054FE05F134061B
:10D13000F46B002C0ED009D1DFF8040400F12803B1
:10D1400040F29B5200F57E7100F044FE6068817BE6
:10D15000012902D06FF00500F2BD2068F0636C3544
:10D1600000E02D68286850B10169486802F0D6FCDB
:10D1700021690746486802F0D1FC3F1AF1D42968BA
:10D1800021602C60206808B90021B186B07BFF289F
:10D190001CBF401CB07300203060F2BD38B50400E5
:10D1A00009D1DFF89C030FF2B04100F1280340F2EF
:10D1B000FA6200F00FFE04F14805A86A08B3A07EE9
:10D1C00041071ED42046FFF7A4FFD0B9288B298839
:10D1D000814238BF084600EBD070401068806988F3
:10D1E000608EB1EB400F3CBF43006B80698800EB61
:10D1F0004000401828800020628B208642F0040204
:10D20000628331BD2DE9F84F0D468246114649191A
:10D21000143199464FF4207289B2222000F0CCFEDE
:10D22000040031D0608905F11401884208DAC4484D
:10D2300000F1280340F2257200F28C4100F0CAFD93
:10D24000DDF834800C9EDDF82CB00A98676802F097
:10D250005FFC38802D06584602F05AFC7880C7F8EB
:10D260000490504602F05AFCAD0EB8606D1D46EABF
:10D270000536B0B202F04CFCB881404602F048FCE2
:10D28000F8810020388278822046BDE8F28FF8B518
:10D29000040084B00D4616461F4608D1A84800F188
:10D2A000280340F2437200F2BC4100F093FD608D10
:10D2B0000390102102913B46228B01923246E08A74
:10D2C00000902946606AFFF79DFF18B1616A628D80
:10D2D0008A18E26205B0F0BDF0B50C0083B00546D7
:10D2E00016461F4608D1964800F128034FF4F16214
:10D2F00000F20C5100F06EFD3A4631462846FEF72A
:10D300007FFE10B96FF003050FE0002D19BFEB7A17
:10D31000A97AFF23002102900091062001903A464D
:10D320003146204600F0C5FC0546204601F018F8BD
:10D33000284603B0F0BD2DE9F84F5FEA030B8246A3
:10D340000E46914608D17E480FF22C3100F1280399
:10D3500040F2C57200F03EFD0A9D45B978480FF2D3
:10D36000343100F1280340F2C67200F033FD30463C
:10D3700002F0D4FB80464FF420721421222000F0EA
:10D380001BFE060030D07089142808DA6C4800F1C2
:10D39000280340F2257200F28C4100F01BFD0C9F27
:10D3A0000B98746802F0B4FB2080384602F0B0FBA2
:10D3B0006080C4F80480484602F0B0FBA06045F2EB
:10D3C000140002F0A5FBA0814DF2160002F0A0FBB4
:10D3D000E0812B460020208260825A46314650462A
:10D3E00001B0BDE8F04F77E7BDE8F18F10B504005C
:10D3F00008D153480FF2B82100F1280340F2EB7234
:10D4000000F0E8FC206D02F089FB034600220021B9
:10D410002046FFF73CFF010006D1608B40F003007F
:10D4200060836FF0010010BD231D22462046FFF7E8
:10D4300053FF628B010012BF42F003024FF6FC71F2
:10D440000A40628310BD000010B5040007D13C48BB
:10D450009FA100F1280340F6250200F0BBFC206DDF
:10D46000401E02F05BFB0346002200212046FFF72E
:10D470000EFF010002D14FF0FF3010BD231D2246E8
:10D480002046BDE8104027E72DE9F041040008D10F
:10D490002B4800F128034FF4056200F5A76100F066
:10D4A00099FCE66E16B90020BDE8F08194F896006C
:10D4B000FF281CBF401C84F896003069808902F068
:10D4C00027FBC00704D531894D1EAD41ED0F00E0AB
:10D4D00000253069436885F0010200212046FFF7EE
:10D4E000D6FE5FEA000808BF4FF0FF3026D0D8F81C
:10D4F00004704DB1112002F00BFBBA894CF2FF0110
:10D500000A401043B88109E07068318903895B1AC9
:10D510009BB2012207F1140101F061F831694868FA
:10D5200002F0FCFA216D401C091A48BF2065231D3A
:10D53000224641462046BDE8F041CDE6BDE8F081F7
:10D5400070750208B8E500202C01002073706C692A
:10D5500074203C3D206D7373000000007573656797
:10D560002D3E6C656E203E20300000007463705FBD
:10D5700073656E645F66696E3A20696E76616C6988
:10D5800064207063620000007463705F656E717583
:10D590006575655F666C6167733A20696E76616C6C
:10D5A00069642070636200007365672D3E74637068
:10D5B000686472206E6F7420616C69676E656400C8
:10D5C0007463705F6F75747075743A20696E7661FC
:10D5D0006C69642070636200525354206E6F742033
:10D5E0006578706563746564206865726521000004
:10D5F0007463705F6F75747075745F7365676D6564
:10D600006E743A20696E76616C69642070636200A2
:10D610006F7074696F6E73206E6F742066696C6CC6
:10D62000656400007463705F7265786D69745F7221
:10D63000746F3A20696E76616C6964207063620071
:10D640007463705F7265786D69743A20696E766193
:10D650006C696420706362007463705F7265786DDA
:10D6600069745F666173743A20696E76616C69648F
:10D6700020706362000000007463705F7273743A1C
:10D6800020696E76616C6964206C6F63616C5F69A0
:10D69000700000007463705F7273743A20696E7674
:10D6A000616C69642072656D6F74655F69700000FC
:10D6B0007463705F73656E645F656D7074795F61CC
:10D6C000636B3A20696E76616C69642070636200F6
:10D6D0007463705F6B656570616C6976653A20692B
:10D6E0006E76616C696420706362000070472DE99A
:10D6F000F84F5FEA000904D10FF2443000F06AFBF2
:10D700003DE00B9C200004D1DFF8000300F062FB39
:10D7100035E009B9DFF8F8120AB9DFF8F4220BB9DD
:10D72000DFF8EC320FF2B9260C980A9DDFF8D8B278
:10D73000C9F81460002709F13106C9F80470C9F866
:10D740000870C9F80C70A9F8287009F1240A37701C
:10D75000CAF80070C9F81C70C9F82050DFF8B4721C
:10D760000FF2BC2A3D78F570C9F81000484600F069
:10D770009EF84846A04700280FF2E02504D000207C
:10D78000BDE8F28F401CF0704FF00008F078FF28E1
:10D7900004BF0021F1707C681BE04C4506D1534664
:10D7A0004FF4C7722946584600F014FB08F10108EF
:10D7B000B8F5807F07DB53464FF4C8720BF14C017C
:10D7C000584600F007FBF07894F834108142D9D025
:10D7D0002468002CE1D1F178FE290CBF0021491CFE
:10D7E00039704846796801607860BDE8F28F7CB591
:10D7F0000C000546164609D10FF224230FF27021C2
:10D80000DFF804024FF4E77200F0E4FA4EB90FF2C9
:10D8100010230FF25C21DFF8F00140F2CF1200F08C
:10D82000D9FA20686968884229D000903046696832
:10D830003160694602F095F86946304602F042FCD4
:10D84000002C0CBF00202068686045B96E480FF2BC
:10D85000D0134FF45C7200F17C0100F0BBFA95F834
:10D86000311001F00500052807D1686828B10807C4
:10D8700003D5291D284603F0DAF8012076BD0020E3
:10D8800076BD0A6883689A4204D001B9002282609A
:10D8900001207047002070470A68C3689A4204D08C
:10D8A00001B90022C26001207047002070472DE9B5
:10D8B000FC410C00804617461E4608BF544C07B971
:10D8C000534F06B9524E002C1CBF2068002806D1C9
:10D8D0006A4621464046FFF78AFF012500E0002501
:10D8E000002239464046FFF7CCFF00223146404631
:10D8F000FFF7D2FF25B96A4621464046FFF777FF7A
:10D90000BDE8F381434988607047002804BF0FF2E7
:10D91000701000F05FBA90F83120D1070ED442F0B9
:10D92000010202F00501052980F8312006D1416885
:10D9300021B1110744BF011D03F079B870470028D9
:10D9400004BF0FF2581000F045BA90F83110CA0722
:10D9500007D501F0FE0180F83110090748BF02F039
:10D96000ADBD704710B5040004D1BDE810402A4891
:10D9700000F030BA94F8310041071AD440F00400A6
:10D9800084F83100204603F0F9FB94F8311001F0DF
:10D990000500052807D1606828B1080703D5211DB7
:10D9A000204603F044F8E16919B12046BDE8104073
:10D9B000084710BD002804BF184800F00BBA00F15A
:10D9C0001C014A7D530706D502F0FB024A7509681F
:10D9D000002918BF0847704700B1C16170470000B7
:10D9E0006FF00B00704701000BD00A48406800E060
:10D9F000006830B190F834305B1CDBB29942F7D14B
:10DA000070470020704700003099020858990208BA
:10DA100048A70208C8E7002024A3020848A3020878
:10DA2000453A5C4769744875625C6C7769705C73F1
:10DA300072635C636F72655C6E657469662E630009
:10DA40006E657469665F6164643A20696E76616CC4
:10DA50006964206E65746966000000006E65746913
:10DA60006620616C7265616479206164646564003C
:10DA7000696E76616C696420706F696E746572009E
:10DA80006E657469665F7365745F75703A20696E60
:10DA900076616C6964206E65746966006E65746990
:10DAA000665F7365745F646F776E3A20696E766146
:10DAB0006C6964206E6574696600000070B4DFF8FC
:10DAC000F01204680A6800E01268B2B192F83130CE
:10DAD00003F005010529F7D151680029F4D09568B4
:10DAE00005EA040629408E4204D09907ECD4D36895
:10DAF0009C42E9D170BC10467047AE49096859B1E3
:10DB000091F8312002F00502052A05D14A68002A61
:10DB10001CBF00787F2802D170BC0020704770BC09
:10DB2000084670472DE9F843054688466E68317807
:10DB3000080904284BD1880000F03C09708801F0E6
:10DB4000E7FF29898842044603D22146284600F08F
:10DB50002BFB688948453ADB2989A14237D3B9F1C3
:10DB6000140F34DB3069944F7861F0687A6938615A
:10DB700002F0F00198F83100E02906D1C10702D582
:10DB8000D8F80400A0B9002439E0C00709D5D8F8B6
:10DB9000040030B182420BD04146104604F02AFA0C
:10DBA00030B9387D00247F2829D08148046824E0DA
:10DBB0005FEA080423D0386940B1414604F01AFAFC
:10DBC00028B9387C00F0F000E02800D014BB2846CB
:10DBD00000F0C6FB28E044450ED094F83100C107A0
:10DBE0000AD5606840B17A698242E4D02146104685
:10DBF00004F000FA0028DED12468002CEBD1707A02
:10DC0000112802BFB11C31F80900B0F5884FD2D1FC
:10DC10004446DBE7F0884FF63F71084208D02846BB
:10DC200004F0F0FA050002D10020BDE8F2836E682E
:10DC30003C60C7F80480BE6049463078800000F040
:10DC40003C00B881284600F05DFB707A01280DD0B9
:10DC5000062806D011280ED14146284601F0F5FFCE
:10DC60001EE04146284604F02BFE19E041462846B6
:10DC700005F0BCFE14E07869214604F0BBF960B9F8
:10DC8000387D00F0F000E02807D04946284600F033
:10DC900065FB0221284605F03CFF284600F060FBAA
:10DCA000002038607860B860B88138617861BDE87C
:10DCB000F28330B583B00C46089D22B100291ABF0B
:10DCC000096800292C1D02959DF818109DF81C501C
:10DCD00000910195214600F003F803B030BD00002B
:10DCE0002DE9FC4106468846B07B012814461F46B4
:10DCF00007D0324834A100F128034FF4557200F0E8
:10DD000069F8ACB31421304600F0D1FA98BB7089A1
:10DD10007568142808D2294800F1280340F2893296
:10DD200000F14C0100F056F8099808992F726872BA
:10DD300045222068224F28612A706970308901F0DD
:10DD4000E7FE68800020E880388801F0E1FEA880C6
:10DD50003888401CB8F1000F388003D11948016899
:10DD6000E96002E0D8F80000E860002169810AE07B
:10DD70007089142803DA6FF00100BDE8F68171683C
:10DD8000086900906C460A9B188D48B13189884219
:10DD900006D222461946304604F016FCBDE8F6814C
:10DDA00018465B69224631469847BDE8F681000077
:10DDB000CCE70020D0E7002098E70020989B0208DD
:10DDC0006AE8002048A70208702D3E726566203D73
:10DDD0003D2031000EB4C0B5024603A800210190D9
:10DDE000009101AB0121044878440C3005F0E4FEB9
:10DDF00006BC5DF810FB00BF8DC60100C2680021A3
:10DE000011608368C188DB1C9B089B00002900D13E
:10DE1000704730B414681C601360491E85882B4419
:10DE2000F8D130BC7047F0B43D4A09211368DC6872
:10DE3000002020609D68D888ED1CAD08AD0030B191
:10DE400026682E602560401E9F883D44F8D1121D33
:10DE5000491EEBD1F0BC704710B5C068046874B1BE
:10DE60002168016014F0030007D02E482EA340F271
:10DE7000191200F12801FFF7ADFF204610BD002068
:10DE800010BD000080B548B90FF29C032EA12548B3
:10DE90004FF49E72FFF79EFF002002BD0CE00000D1
:10DEA00080B5092805DB00BF2CA0FFF793FF0020F9
:10DEB00002BD1B4951F82000BDE80240CCE700003C
:10DEC00038B504460D4615F0030007D00FF258038D
:10DED0002AA1144840F26D12FFF77CFFE068016848
:10DEE0002960056031BD000040B900BF0FF2380362
:10DEF00015A10C4840F29512FFF76CBF002918BF1E
:10DF0000FFF7DEBF70470928A4BF0FF29000FFF7AC
:10DF100061BF19B1024A52F82000D1E770470000F2
:10DF200000A30208A8A00208453A5C476974487536
:10DF3000625C6C7769705C7372635C636F72655C62
:10DF40006D656D702E630000696E76616C6964208A
:10DF5000706F6F6C20646573630000006D656D7099
:10DF60005F6D616C6C6F633A2074797065203C2042
:10DF70004D454D505F4D4158000000006D656D707E
:10DF80005F667265653A206D656D2070726F7065B1
:10DF9000726C7920616C69676E6564006D656D7087
:10DFA0005F667265653A2074797065203C204D4546
:10DFB0004D505F4D415800002DE9F84F1646012E97
:10DFC00018BF412E05468B4606D0B6F5C17F0AD054
:10DFD000B6F5207F64D09DE0002000F0A6F804464E
:10DFE0002046BDE8F28F0024A146DFF894A60FF288
:10DFF000D868ADF800600820FFF752FF060041D056
:10E00000EF1C4FF6FC7140F2EC500F40C71B1FFA9B
:10E010008BF1BAB2914238BF5F4600203060A6F85B
:10E0200008B0701900F11003DB1C9B089B007360A3
:10E0300077810021BDF80000307371730120B07347
:10E04000F173307910F0030F07D0434640F201120C
:10E050000AF128015046FFF7BDFEED1C40F2EC50DE
:10E06000AD08B0EB850507D1434640F203120AF133
:10E0700058015046FFF7AEFE002C0CBF3446C9F8DD
:10E08000006004E014B3204600F06AF91EE0ABEB38
:10E09000070B00251FFA8BF00028B146ABD19FE794
:10E0A000EA1CC91C92088908920002EB810202F165
:10E0B000100092B2B2EB810F24BF82B2B2EB810F9B
:10E0C00004D380B206F0A8FE040000D1A2E1002033
:10E0D0002060A4F808B0601900F11001C91C89087B
:10E0E0008900616000200121A173A4F80AB02673A1
:10E0F0006073E073217911F0030F3FF471AFDFF823
:10E1000080050FF2C45340F2231200F18C01FFF797
:10E1100061FE65E70FF2B0530FF2CC51DFF86005F6
:10E1200040F22712FFF756FED0E770B51646412E93
:10E1300018BF012E04460D4609D00FF28C530FF282
:10E14000C451DFF83C054FF4A572FFF743FE0720EA
:10E15000FFF7A6FE48B1002101600122446005815D
:10E160004581067341738273C17370BD30B4C01CA6
:10E17000039C800801EB8005AC4238BF002011D31E
:10E18000029C002C14BF04EB8000002000241C60C3
:10E190005860198159810220587301211A739973AB
:10E1A000DC73184630BC70472DE9F04704000E467A
:10E1B00009D10FF214530FF26051DFF8C4044FF489
:10E1C000CC72FFF707FE2589AE423ED2AD1BADB241
:10E1D0000FF25C57DFF8A8940FF2EC4A40F2AF1848
:10E1E0000CE0361A2089401B2081B6B224682CB975
:10E1F0005346424639464846FFF7ECFD6089B04237
:10E20000EFDB207B10F00F0F16D16089864213D010
:10E21000617B880710D46168091B711889B2204698
:10E2200006F072FD040007D1534640F2BD120FF212
:10E2300018514846FFF7CEFD66816089208120682D
:10E2400008B100F08DF800202060BDE8F087F8B537
:10E2500058B90FF274430FF20C51DFF8240440F266
:10E26000DF12FFF7B7FD0120F2BDB1F5803FFAD212
:10E27000D9B104890B46E418A5B29EB2B542F2D3D7
:10E28000077B3D0607D542684942114400F110055D
:10E29000A94205D2E7E7002AE5D042684942114485
:10E2A0004160048141895B1843810020F2BD70B553
:10E2B00058B90FF214430FF2AC41DFF8C40340F237
:10E2C000DF12FFF787FD012070BDB1F5803FFAD264
:10E2D00009B9002070BD03890A469B189CB295B20B
:10E2E000AC42F0D3067B3406EDD54568494229445B
:10E2F00000F11004A142E6D3416003814189521824
:10E300004281E6E710B550B90FF2BC330FF2544129
:10E31000DFF86C0340F24B22FFF75CFD0BE0B1F538
:10E32000803F08D289B143898AB2934205DA0FF25D
:10E330004040FFF74FFD012010BD4468214441607B
:10E340009B1A018943818A1A0281002010BD0B00AB
:10E3500058BFFFF77CBF5B421946D3E70122F6E7BF
:10E360002DE9F84F0500DFF818630FF25C3B08D188
:10E370005B464FF437720FF2EC313046FFF72AFD5F
:10E3800048E006F1B8000027009040F2FF280FF2A5
:10E39000004940F2F12AA87B28B95B46524649461B
:10E3A0003046FFF717FDA87B401EA873C0B270BBB4
:10E3B000697B287B2C688A0700F00F000BD5286941
:10E3C00028B900995B4642463046FFF703FD2969AC
:10E3D0002846884718E0022802D12946082003E091
:10E3E000012804D129460720FFF78DFD0CE018B95C
:10E3F000284606F0DFFB07E05B4640F20F320FF2E3
:10E40000A8313046FFF7E6FC7F1C2500C3D1F8B2E7
:10E41000BDE8F28F0020BDE8F28F0146002001E048
:10E420000968401C0029FBD180B2704770B1817B24
:10E43000491C8173C9B249B90FF28C230FF27C31A8
:10E44000DFF83C0240F24232FFF7C4BC704738B5F7
:10E4500004000D4618BF002D0AD1BDE83240DFF898
:10E460002402FFF7B7BC21892A895118218104466B
:10E4700020680028F7D120896189884209D0DFF817
:10E4800000020FF2442340F2623200F58A71FFF776
:10E49000A1FC206848B10FF230230FF23431DFF8CD
:10E4A000E00140F26332FFF795FC21892889411889
:10E4B0002181256031BD10B50C46FFF7C8FF20460D
:10E4C000BDE81040B2E780B531B90FF21430FFF764
:10E4D00081FC6FF00F0002BD0A89BDE800500023E7
:10E4E0002DE9F8430D000446164699464FF0000802
:10E4F00002D02989914207D2DFF88C01FFF76AFC2C
:10E500006FF00F00BDE8F2831CB120899919884291
:10E5100002DADFF87801F1E76F896089A7EB080775
:10E52000A0EB0900874288BF0746B0B2B8426968CD
:10E53000606834BFB7B2BFB23A464144484401F0C4
:10E5400017FB6189B944F61B4945B84408D20FF25C
:10E5500078130FF2A8214A4840F2FA32FFF73AFC4A
:10E560006889404508D20FF260130FF2A821444891
:10E5700040F2FB32FFF72EFC6889804505D32D68F9
:10E580004FF000080DB9B0B2E0B96089814502BF13
:10E590004FF000092468002C01D1B0B2A8B92DB108
:10E5A00068892989884201D1286888B92CB1608995
:10E5B0002189884201D1206850B9B0B20028ABD17E
:10E5C000BDE8F2830FF2682098E70FF2742095E718
:10E5D0002F48FFF7FFFB6FF00500BDE8F2832DE940
:10E5E000F8430024064689461746A04616B90FF29E
:10E5F000602003E0B9F1000F18D12648FFF7EAFBCD
:10E600000020BDE8F283ED1AADB2B8B29BB2A842C9
:10E61000B8BF05467068C118A0B22A46484401F048
:10E62000A7FA3668A8442C197F1B0023B8B250B152
:10E6300007E098B275890028E5D0A842E3D3366890
:10E640005B1B002EF5D11FFA88F0BDE8F2830000B5
:10E6500038B515460A462989FFF7AEFC040001D1FA
:10E66000002032BD2946FFF72EFF38B116A30FF266
:10E670000021034840F24652FFF7ACFB204632BD72
:10E680007C81020858820208E4820208188302088A
:10E69000488302086CA3020880B500F006F8002841
:10E6A00001D4C0B202BD002002BD02E0891A006898
:10E6B00089B230B142899142F8DA02D24068405CB6
:10E6C00070474FF0FF307047453A5C4769744875B2
:10E6D000625C6C7769705C7372635C636F72655CBB
:10E6E000706275662E630000706275665F616C6CA7
:10E6F0006F633A206572726F6E656F7573207479FF
:10E7000070650000696E76616C6964207062756680
:10E710005F74797065000000706275665F72656194
:10E720006C6C6F633A207020213D204E554C4C009C
:10E73000706275665F7265616C6C6F633A20712000
:10E74000213D204E554C4C006D656D5F7472696DB6
:10E750002072657475726E65642071203D3D204E97
:10E76000554C4C007020213D204E554C4C00000073
:10E77000696E6372656D656E745F6D61676E6974F5
:10E78000756465203C3D20702D3E6C656E00000078
:10E79000706275665F667265653A20702D3E7265BF
:10E7A00066203E2030000000696E76616C6964204E
:10E7B000706275662074797065000000706275661D
:10E7C00020726566206F766572666C6F7700000058
:10E7D000702D3E6E657874203D3D204E554C4C00AA
:10E7E000706275665F636F70793A20696E76616CEE
:10E7F000696420736F757263650000006F666673ED
:10E8000065745F746F203C3D20705F746F2D3E6CAB
:10E81000656E00006F66667365745F66726F6D206B
:10E820003C3D20705F66726F6D2D3E6C656E000022
:10E83000705F66726F6D20213D204E554C4C00007C
:10E84000705F746F20213D204E554C4C000000003D
:10E85000706275665F636F70795F70617274696111
:10E860006C3A20696E76616C69642062756600009E
:10E87000706275665F636F7079206661696C65644C
:10E880000000000080B506F0D5FBC0F30D00DFF8F6
:10E890003817A0F58040088001BD10B50446207DE2
:10E8A000012808D1DFF82437DFF82417DFF8240720
:10E8B000D422FFF78FFA2146BDE810400120FFF770
:10E8C00022BB80B500F0BCFDDFF80C070178491CC5
:10E8D0000170C80703D5BDE8014000F09FBB01BD32
:10E8E0002DE9F043040083B00D4609D1DFF8DC3692
:10E8F0000FF2F811DFF8DC064FF4AF72FFF76AFA97
:10E90000217D002D49D0042918BF072945D1606F0A
:10E91000002802BF208D41F2D06290423DD0A07EFF
:10E92000C10609D4DFF8A4360FF2E011DFF8A4061F
:10E930004FF4B272FFF74EFA208B0290221DE18A4B
:10E94000009201912346626A216D2046FEF7F3FC96
:10E95000204600F047FFDFF884160869A04203D183
:10E96000C068086106E0104620B1C268A242FAD130
:10E97000E268C2600020E06001220A70DFF86016E1
:10E980000868A04205D104F073FF002003B0BDE881
:10E99000F0832046FFF781FFF7E719B102295CD029
:10E9A00015D364E0E08A0028F3D0DFF830168868D9
:10E9B000A04203D1C068886006E0084620B1C16863
:10E9C000A142FAD1E168C1600020E060E1E7DFF830
:10E9D0000496DFF8F8859CB94FEA080340F211125B
:10E9E0005EA14846FFF7F6F90020017D012907D016
:10E9F0004FEA08034FF489724BA14846FFF7EAF942
:10EA00000FF2AC470326386805686CB94346FF220D
:10EA100009F128014846FFF7DDF905E0A86FA0429B
:10EA200004BF0021A967ED68002DF7D13F1D761EB8
:10EA3000E9D12146DFF8740A00F0FAFE207D0128B2
:10EA400006D143465FF0DF023DA14846FFF7C2F919
:10EA500021460220FFF757FA97E7DFF88055214655
:10EA600005F1100000F0E4FE0120287091E7204637
:10EA700003B0BDE8F04300BF38B5050040F00980A1
:10EA8000DFF8483535A1DFF84C054FF4CE72FFF7BB
:10EA9000A1F9287D032804D004280AD0072813D020
:10EAA00019E02846FDF7E6FF040007D10520287588
:10EAB00005E02846FDF7DEFF0400F7D06CB92846D4
:10EAC000FEF700F9204632BD2846FDF7D3FF0400CB
:10EAD000F4D10920EBE7002032BD14F1010FF1D190
:10EAE000688B40F008006883F5E700007463705F8E
:10EAF000636C6F73655F73687574646F776E3A20CB
:10EB0000696E76616C696420706362007063622D67
:10EB10003E666C61677320262054465F5258434C12
:10EB20004F534544000000007063622D3E737461D2
:10EB30007465203D3D204C495354454E0000000073
:10EB40007463705F667265655F6C697374656E3A55
:10EB500020214C495354454E000000007063622050
:10EB6000213D204E554C4C0080B528B908A0FFF738
:10EB700031F96FF00F0002BD017D012903D0418BF7
:10EB800041F0100141830121BDE80440A8E60000E6
:10EB90007463705F636C6F73653A20696E76616C45
:10EBA00069642070636200002DE9F04F040083B0B7
:10EBB0008B4606D10DF10C0DBDE8F04F33A0FFF7E9
:10EBC00009B9207D012809D1DFF80804DFF8FC33FA
:10EBD00040F2412200F15001FFF7FCF8217D0A29A3
:10EBE00009D12146DFF8500900F022FE204603B08B
:10EBF000BDE8F04F51E60025266D676AD4F88C8099
:10EC0000D4F81090E08AAA4689B9E0B1DFF8CC13B5
:10EC10008868A04203D1C068886006E0084620B139
:10EC2000C168A142FAD1E168C160E5600BE05D46D0
:10EC30008246DFF8A8B321460BF1100000F0F8FD82
:10EC400001208BF80000206F08B100F07EFCE06E20
:10EC500008B100F07AFC5DB1208B0290211D00917B
:10EC6000CDF804A023463A4631462046FEF763FB22
:10EC70002046FFF712FEB8F1000F03D06FF00C0131
:10EC80004846C04703B0BDE8F08F00007463705F72
:10EC90006162616E646F6E3A20696E76616C696460
:10ECA000207063620000000001217DE7F8B50C00D0
:10ECB0000646154608BFDFF8C84A16B91EA000F080
:10ECC0003FBC307D30B1DFF8BC0AFFF783F86FF04E
:10ECD0000500F2BD280006D100F0BAF805001CD1ED
:10ECE0006FF00100F2BD0FF2C41704233868026808
:10ECF00000E0D26872B1D08AA842FAD13AB1116864
:10ED000029B124B12068002818BF8142F1D16FF0E9
:10ED10000700F2BD3F1D5B1EE8D1002C1EBF20681E
:10ED200000283060DFF8B402F5828168F160866007
:10ED300006F0DDF90020F2BD7463705F62696E64F5
:10ED40003A20696E76616C6964207063620000002D
:10ED500070B5040008D1DFF8E4079C4B40F2A732FD
:10ED600000F18401FFF736F8218D656A628E68181C
:10ED700040F66936B242E36AA8BF40F66832C01A6C
:10ED8000821A01D4618570BDE81A002802DD0020D6
:10ED900060850DE05D1BB5F5803F08D3DFF82C32B0
:10EDA00004A1DFF8980740F2B732FFF713F8658542
:10EDB000002070BD6E65775F7263765F616E6E5F17
:10EDC000776E64203C3D2030786666666600000001
:10EDD00038B504000D4604D1BDE8324016A0FEF758
:10EDE000F9BF207D012807D17A48784B4FF475721E
:10EDF00000F1A801FEF7EEFF208D2D18ADB241F213
:10EE0000D1618D4201DA854203DA41F2D06020857A
:10EE100000E025852046FFF79BFF40F2B451884271
:10EE200008D3608B40F0020060832046BDE832408A
:10EE3000FDF748BF31BD00007463705F7265637693
:10EE400065643A20696E76616C6964207063620063
:10EE50002DE9F0415C4C2288002317464FF44045D1
:10EE60004FF6FF787F1CB8B2404508BF2F460FF21F
:10EE70003C0C0421DCF80000006800E0C06868B1C8
:10EE8000B0F816E0BEB2B645F8D15B1C98B2B0F54A
:10EE9000804FE7DB27800020BDE8F081491E0CF1A0
:10EEA000040CE7D11046BDE8F081000034010020D9
:10EEB00030010020380100203C0100202DE9F04104
:10EEC00004001F4608BF0FF21C1002D039B900BF62
:10EED0004BA0FEF77FFF6FF00F00BDE8F081207DB3
:10EEE00038B1DFF8C00AFEF775FF6FF00900BDE822
:10EEF000F081086860602283207A10B1FEF773FD0C
:10EF000002E0201DFEF7DAFD050003D0216839B9C3
:10EF1000281D03D16FF00300BDE8F0816868206010
:10EF2000B4F81680B8F1000F07D1FFF791FFE08227
:10EF300018B96FF00100BDE8F081204600F0CAFC6E
:10EF4000002104F148066162B060221D401E606429
:10EF50003061706141F2D060616A60852085E16254
:10EF6000308329464FF40670608600F0C3FC60864B
:10EF7000022101203080F7632046FDF70AFE0500DC
:10EF80001ED10220B8F1000F2075144F0ED0B868C2
:10EF9000A04203D1C068B86006E0084620B1C1684D
:10EFA000A142FAD1E168C1600020E0603869E06008
:10EFB0003C6106F09CF8012038702046FDF782FE87
:10EFC0002846BDE8F0810000D4020020DCF90008EA
:10EFD000C8F90008CC7A020876E800202801002051
:10EFE000B8E500207463705F636F6E6E6563743A9A
:10EFF00020696E76616C69642070636200000000B5
:10F000007463705F636F6E6E6563743A20696E76C9
:10F01000616C696420697061646472002DE9F84F65
:10F020008AB0DFF81895DFF88069706809F5F87123
:10F03000099109F5E27209F5C671401C0892079121
:10F04000706009F5AC7209F59471707806920591BB
:10F05000401C09F1FC0209F1D00170700492039187
:10F060003569002401E02C46ED68002D00F0948104
:10F07000287D38B903990FF6641340F2BF42484621
:10F08000FEF7A8FE287D012807D104990FF64C133E
:10F090004FF498624846FEF79DFE287D0A2807D166
:10F0A00005990FF6381340F2C1424846FEF792FE2A
:10F0B0007078A97F8142D6D0A8774FF0000A287DCA
:10F0C0000228D04605F1400706D1B8780628A8BF27
:10F0D0004FF0010A80F2A780B8780C281DDA05F1FC
:10F0E000940B9BF80100002847D0386B38B1069983
:10F0F0000FF6E80340F2D5424846FEF76BFEF86A89
:10F1000038B907990FF6D40340F2D6424846FEF7C5
:10F1100061FE9BF802000C2802DB4FF0010A75E04B
:10F120009BF801100FF6E010014411F8010C9BF858
:10F1300000108142BCBF491C8BF800109BF80010E6
:10F14000814263DB398C0029284604D1FEF79CF903
:10F1500000285BD107E0FDF7CDFB20B92846FDF77D
:10F16000B1FD002852D09BF801008BF800800728E1
:10F170004CD2401C8BF8010048E0B5F9300001008A
:10F1800005D447F6FF7290421CBF401C2886B5F993
:10F190003000B7F90010884238DB2846FDF72CFF15
:10F1A00018B1386B90BBF86A80B3287D022814D060
:10F1B000B878B5F93C10B5F93E200C2802EBE10215
:10F1C00028BF0C200FF63011085602FA00F047F65F
:10F1D000FF718842A8BF0846388005F14000A5F8B5
:10F1E000308005F140010289088C824288BF0246C6
:10F1F00052087A81688E41008BB29A4238BF798179
:10F200003881A7F82A802846FDF755FF287D062873
:10F2100009D1A87EC10606D57068296A401A292836
:10F2200028BF0AF1010A687A010730D5287D042831
:10F2300018BF07282BD17168286ADFF87027DFF81C
:10F2400070C7081A396D5218A2FB0CC31B0A8342FF
:10F2500004D20AF1010A4FF0010818E005F1940BFD
:10F26000DFF850379BF8032003FB0211DFF840273B
:10F27000A1FB02EC4FEA1C21814208D22846FEF78E
:10F28000E3F820B99BF80300401C8BF80300287DAD
:10F29000032804D17068296A401A292805E0092842
:10F2A00006D17068296A401AF12828BF0AF1010ABC
:10F2B0005FFA8AF0002851D0D7F84CA0284600F019
:10F2C00091FA002C30690CD0854207D108990FF2D1
:10F2D0000C7340F26E524846FEF77CFDE868E06031
:10F2E0000BE0A84207D009990FF2F06340F2725286
:10F2F0004846FEF76FFDE8683061B8F1000F0BD0AB
:10F30000288B02902A1DE98A009201912B466A6A95
:10F3100039692846FEF70FF8D5F810802F46387D5A
:10F32000ED68012807D10FF2B4630FF29C61D4227B
:10F330004846FEF74FFD39460120FEF7E4FD002068
:10F34000BAF1000F30703FF490AE6FF00C01404600
:10F35000D047307800283FF488AE81E62C46207FE5
:10F36000617FED68401C2077C0B28842FFF47DAE1B
:10F37000002020773070D4F888204AB120692146D7
:10F380009047317800297FF46BAE00287FF46DAE92
:10F390002046FDF797FC68E609F51D71029109F515
:10F3A000137275690FF2206A0FF2306B019209F542
:10F3B00007710024009140F2A2571AE0A84206D03B
:10F3C00002995B4640F2B4524846FEF703FDE868F6
:10F3D0007061A84698F81400ED68012805D15B46D5
:10F3E000D42251464846FEF7F5FC41460120FEF77F
:10F3F0008AFD15B3287D0A2805D000995B463A4658
:10F400004846FEF7E7FC7068296A401AF12811D3D4
:10F41000284600F0E7F97069002CCFD0854206D16C
:10F4200001995B464FF4B6624846FEF7D3FCE868A4
:10F43000E060CEE72C46ED68DBE70BB0BDE8F08F6F
:10F4400070B5DFF864556878401C68702C6924E05A
:10F45000A077608BC1070AD540F002006083204688
:10F46000FDF730FC608B4FF6FC7108406083608BC9
:10F47000010706D54FF6F772104060832046FFF76C
:10F48000FBFAE668606F38B100212970204600F071
:10F490000FF828780028D9D134462CB16878A17F9C
:10F4A0008142D5D1E468F8E770BD00003401002046
:10F4B000F8B5040002D1DFF8000541E0656FD4F82B
:10F4C00080606F7B002060672EB1206900232A4690
:10F4D0002146B0470BE03DB129892046FFF778FC73
:10F4E0002846FEF73DFF04E02046FFF73DFB010004
:10F4F00016D1B8061ED5208D41F2D06188421CBFBE
:10F50000401C2085D4F88050A5B12069002300223A
:10F510002146A8476FF00C06B0420BD13046F2BD31
:10F520006FF00C01884201D10846F2BD65676FF0AB
:10F530000400F2BD0020F2BD3C010020CC7A02089C
:10F54000FEF748FC6FF00F00F2BD38B5040009E08B
:10F550002568606808B1FEF703FF21460320FEF727
:10F56000D2FC2C00F4D131BD10B5040009D0606884
:10F5700008B1FEF7F5FE2146BDE810400320FEF776
:10F58000C2BC10BD10B50800144602D10FF26C4089
:10F590000EE03CB12189FFF71BFC2046FEF7E0FEA0
:10F5A000002010BD002BFBD1BDE81040FFF7DCBAF6
:10F5B000FEF710FC6FF00F0010BDF8B505460120F6
:10F5C000FEF76EFC040040F08780DFF8DC633069F2
:10F5D00000280AE0418BC4680A0705D54FF6F77387
:10F5E00019404183FFF748FA2000F3D1706974682D
:10F5F0000021002206E0036AE31A8B4224BF194669
:10F600000246C0680028F6D11AB101211046FFF762
:10F61000CBFA0120FEF744FC04005DD13069746828
:10F620000021002209E0037D092B05D1036AE31ABA
:10F630008B4224BF19460246C0680028F3D11AB194
:10F6400000211046FFF7B0FA0120FEF729FC040064
:10F6500042D1306974680021002209E0037D082B43
:10F6600005D1036AE31A8B4224BF19460246C068DB
:10F670000028F3D11AB100211046FFF795FA0120B6
:10F68000FEF70EFC040027D1802DA8BF7F2001DAF1
:10F6900028001DD0411E3069C9B20023002210E0AD
:10F6A000447D8C4207DB0BD17768D0F820C0A7EBF4
:10F6B0000C079F4204D37168036ACB1A02462146A5
:10F6C000C0680028ECD11AB101211046FFF76CFA8E
:10F6D0000120FEF7E5FB04461CB39821204605F007
:10F6E000E5FDFF2004F148014FF40673657541F212
:10F6F000D0628A83E07263860620A4F84000E08727
:10F7000062854FF0FF30228520860123A6480B80BA
:10F71000456825624078A0774A80A848A84A8A634D
:10F7200088642046F2BD000000BF402045E700B1DC
:10F730000161704738B504000D460DD0207D0128C9
:10F7400008D1A0480FF2942340F2E27200F527712D
:10F75000FEF740FBC4F8805031BD38B504000D46BB
:10F760000CD0207D012808D196480FF2702340F27A
:10F77000F67200F53171FEF72DFBE56731BD000033
:10F7800048A702083CA2020838B50C4670B100F147
:10F7900014052878012808D18A480FF240234FF435
:10F7A000016200F53B71FEF715FBAC6731BD70B52A
:10F7B00004000D46164605D1BDE870400FF25820F2
:10F7C000FEF708BB207D012808D10FF210230FF2AD
:10F7D00060217C4840F64202FEF7FCFAC4F88850EB
:10F7E000667770BD38B5040005D1BDE832400FF230
:10F7F0006020FEF7EFBA207D00281CBF0A280128F0
:10F8000014D004F16805E86818B1FEF7A9FD0020DE
:10F81000E8604FF0FF3121866868FFF796FEA86820
:10F82000FFF793FE00206860A860288031BD0000CB
:10F8300038B50C00054607D168A30FF230216148A6
:10F8400040F68702FEF7C6FA45B900BF63A30FF280
:10F8500038215C4840F68802FEF7BCFA2868A042CE
:10F8600003D1C068286006E0084620B1C168A14203
:10F87000FAD1E168C1600020E0602046FFF7B2FFE6
:10F88000207D0A280DD0012820D0608BC10708D523
:10F8900040F0020060832046FDF714FA207D012825
:10F8A00014D0E06E40B100BF0FF230137EA1454886
:10F8B00040F69702FEF78EFA206F38B10FF21C1354
:10F8C0007FA1404840F69802FEF784FA0020207598
:10F8D000E08231BD80B538B90FF200137FA13948FD
:10F8E00040F6B302FEF776FA2F4A9069516808187D
:10F8F000906102BD38B505460C4642B9DFF8C40038
:10F9000036A340F6C90200F54571FEF763FA002CF4
:10F910001CBF208D002807D02828CCBF2838002005
:10F9200080B2854288BF0546284632BD70B50500C5
:10F930000C460AD1DFF88C0028A340F6041200F52B
:10F940004F71FEF747FA00E034464CB12068296851
:10F95000E668884202BF01212046FFF725F9F3E758
:10F9600070BD70B504001CBF206800280D4618D07B
:10F970000D4E31692046FFF7D9FFB1682046FFF7E9
:10F98000D5FF002D1CBF286800280AD0F06806E0CB
:10F9900001682268914204BF2B680360C068002898
:10F9A000F6D170BDE4A1020828010020B84C0A007D
:10F9B000986E1283F824010064A2020800DD6D0035
:10F9C00085F50008CC7A02087463705F667265651D
:10F9D0003A204C495354454E00000000453A5C47DC
:10F9E00069744875625C6C7769705C7372635C63A0
:10F9F0006F72655C7463702E630000007463705FE7
:10FA0000726563765F6E756C6C3A20696E76616CB8
:10FA100069642070636200007463705F706F6C6C67
:10FA20003A20696E76616C69642070636200000040
:10FA3000696E76616C696420736F636B65742073A3
:10FA40007461746520666F7220706F6C6C000000CA
:10FA50007463705F7063625F70757267653A206986
:10FA60006E76616C69642070636200007463705F1D
:10FA70007063625F72656D6F76653A20696E76615C
:10FA80006C696420706362007463705F7063625FAE
:10FA900072656D6F76653A20696E76616C69642077
:10FAA0007063626C69737400756E73656E74207335
:10FAB00065676D656E7473206C65616B696E670058
:10FAC000756E61636B6564207365676D656E7473D5
:10FAD000206C65616B696E67000000007463705F85
:10FAE0006E6578745F6973733A20696E76616C69CC
:10FAF000642070636200000001020304050607072A
:10FB0000070707070700000003060C18306078009D
:10FB10000146000A40EA012080B27047014608020F
:10FB200000F47F000A0A40EA016002F47F421043B9
:10FB300040EA1160704730B4002513E050F8042B00
:10FB4000D30744BFA9F101039A18091F042942F8F9
:10FB5000045BFAD213468C0744BF15809B1CC9076F
:10FB600048BF1D7050F8041B0029E7D130BC704716
:10FB700062B38B0708D0521E11F8013B00F8013B1D
:10FB800000F024808B07F6D1830740F0208000BF6F
:10FB9000103A07D330B4B1E83810103AA0E8381062
:10FBA000F9D230BC530724BFB1E80810A0E8081010
:10FBB00044BF51F8043B40F8043BD20724BF31F85E
:10FBC000022B20F8022B44BF0B7803707047121FE2
:10FBD00017D35B0009D151F8043B20F8023B1B0C02
:10FBE000121F20F8023BF6D20BE051F8043B00F85C
:10FBF000013B1B0A20F8023B1B0C121F00F8013BC3
:10FC0000F3D238BF121D521E24BF11F8013B00F879
:10FC1000013BF8D8704703681AB95A1E02600846BB
:10FC20007047197811B94FF0FF307047591C0160C7
:10FC30001878704780B505F0FDF9C0F30D00DFF8C6
:10FC4000B814A0F58040088001BD2DE9F14F82B0C5
:10FC50000E4640B90FF2BC430FF2D841DFF89C04C6
:10FC6000CF22FEF7B7F846B90FF2A8430FF2DC41F6
:10FC7000DFF88804D022FEF7ADF802984189082900
:10FC8000C0F2A8804468DFF8787439687869DFF8D2
:10FC90006C8402F0AFF981462088FFF739FF824675
:10FCA0006088FFF735FFDFF850144C6800904FF084
:10FCB000000B00250FE0002C1CBF206800282CD072
:10FCC000796911F1010F1FBFB268104011408842DD
:10FCD00023D0A346E468002C47D0608A009988426C
:10FCE000F7D13EB90FF22C43882208F14C0140466F
:10FCF000FEF770F8207A30B1796891F83420521C00
:10FD0000D2B29042E5D1B9F1000FD4D1002C1FBF7F
:10FD10002068002879698842DBD1207C41070FD414
:10FD20006DB1B9F1000F0BD0786910F1010F07D157
:10FD300070682968814203D02268824200D125463A
:10FD4000A08A5045C5D1606800281CBF3969884227
:10FD5000BFD1BBF1000F0ED0E168DFF89C03CBF8F8
:10FD60000C104168E160446005E02C0003D170682C
:10FD7000796988422DD102980821FEF7C3FA58B953
:10FD8000A4B1A5692DB3CDF800A0029AE06907F1EE
:10FD900010032146A847C7E00FF278330FF2C831AD
:10FDA0004FF4B8724046FEF715F812E0B9F1000FB3
:10FDB0000FD1387D00F0F000E0280AD0B7F90C1020
:10FDC0000298083109B2FEF7C9FA0298032103F03C
:10FDD000A0FE029803B0BDE8F04FFEF7C1BA7CB5B3
:10FDE00010B90FF2A0300BE011B90FF2B43007E0F8
:10FDF00012B90FF2C83003E0069D35B90FF2DC30BE
:10FE0000FDF7E8FF6FF00F0076BD0468002C1ABF05
:10FE100004F0F006E02E2C1D06D06E68B44202D02D
:10FE20006FF0030076BD04460194009500F002F8DF
:10FE300076BD00002DE9F04F060083B0994608BF5B
:10FE40000FF2B83014D05FEA010B08BF0FF2CC30CC
:10FE50000ED05FEA020A08BFAA4809D0DDF8348054
:10FE6000B8F1000F08BFA84802D00C9F2FB9A748CF
:10FE7000FDF7B0FF6FF00F0056E0708A38B900222E
:10FE80003146304600F053F8002805464BD1BBF808
:10FE9000080000F1080189B281420CD308215846BC
:10FEA000FEF705FA90B14FF4207208212220FEF7E8
:10FEB00083F8040002D14FF0FF3035E0BBF80800B2
:10FEC00028B159462046FEF7F6FA00E05C46608904
:10FED000082808D2DFF824028EA340F20E3200F187
:10FEE000E001FDF777FF6568708AFFF711FE288053
:10FEF0004846FFF70DFE68800020E8802089FFF764
:10FF000007FEA8800297112001905246B17A009115
:10FF10004146F37A2046FDF7E3FE05465C451CBFEB
:10FF20002046FEF71DFA284603B0BDE8F08F2DE904
:10FF3000F0470346144601B975493BB90FF2FC205E
:10FF4000FDF748FF6FF00F00BDE8F0876A4E776855
:10FF50000025384600E0C06810B18342FBD101257E
:10FF600020002CD134884FF0000EA0464FF44042C0
:10FF70004FF6FF7C404600F1010880B2604508BFA3
:10FF80009046384600E0C06878B1B0F812901FFA89
:10FF900088FAD145F7D10EF1010E1FFA8EF0B0F5B7
:10FFA000804FE7DBA6F8008021E020001FD001E0B1
:10FFB0006346114600290CBF002008681BE0384644
:10FFC0009C460A4600E0C0680028F1D08445FAD07B
:10FFD000418AA142F7D113680168994218BF002AEB
:10FFE00018BF002B03D0002818BF0029EBD16FF0F9
:10FFF0000700BDE8F08718605C820DB9DF607360B0
:020000040801F1
:100000000020BDE8F087000070B504000D461646DC
:1000100006D100BF8FA0FDF7DDFE6FF00F0070BDB1
:1000200015B900BF92A0F6E7608A30B900222146D8
:100030002046FFF77CFF0100F1D128682E4960605F
:10004000A682207C40F0040020744A68104600E03C
:10005000C06818B18442FBD1002070BDE2604C60E2
:1000600070BD002804BF0FF22420FDF7B3BE8161EC
:10007000C2617047002804BF0FF22820FDF7AABE16
:100080001D494A68824203D1D2684A6008E00A46A4
:1000900032B1D1680029FAD08142F8D1C168D1606B
:1000A00001460020FDF72FBF10B5FFE70020FDF748
:1000B000F7FE040004D0202105F0FCF8FF20E072D8
:1000C000204610BD002800D1704730B40268002AD5
:1000D00018BF00290DD00A685AB1074B5A6806E0CC
:1000E00013680468A34204BF0D681560D268002A33
:1000F000F6D130BC7047000044010020288F020870
:1001000098E700209C8F0208C08F0208E48F020845
:1001100048A70208453A5C4769744875625C6C7789
:1001200069705C7372635C636F72655C7564702E7A
:10013000630000007564705F696E7075743A2069C1
:100140006E76616C69642070627566007564705FBC
:10015000696E7075743A20696E76616C6964206EA0
:100160006574696600000000706275665F72656D97
:100170006F76655F686561646572206661696C654C
:10018000640A00007564705F73656E64746F5F6904
:10019000663A20696E76616C696420706362000063
:1001A0007564705F73656E64746F5F69663A206929
:1001B0006E76616C69642070627566007564705F4C
:1001C00073656E64746F5F69663A20696E76616C00
:1001D0006964206473745F69700000007564705F07
:1001E00073656E64746F5F69663A20696E76616CE0
:1001F0006964206E65746966000000007564705F54
:1002000073656E64746F5F69665F7372633A2069C9
:100210006E76616C69642070636200007564705F63
:1002200073656E64746F5F69665F7372633A2069A9
:100230006E76616C69642070627566007564705FCB
:1002400062696E643A20696E76616C6964207063DD
:10025000620000007564705F636F6E6E6563743A70
:1002600020696E76616C6964207063620000000032
:100270007564705F636F6E6E6563743A20696E7645
:10028000616C696420697061646472007564705F98
:10029000726563763A20696E76616C69642070637A
:1002A000620000007564705F72656D6F76653A205C
:1002B000696E76616C6964207063620010B5DFF866
:1002C000741700EB400201EBC204206818B1FEF77E
:1002D00047F800202060002104F10C0021756182A4
:1002E000A16061600622BDE81040DFF84C17FFF7FF
:1002F0003FBC70B50025DFF84467DFF8444730782D
:1003000028B336F8020C401C26F8020C80B2B0F577
:10031000967F06DA3078012807D136F8021C0529C5
:1003200003DB2846FFF7CAFF11E0032808BF0420BB
:1003300002D0042802D10220307008E0012806D142
:1003400056F80C0C2246A6F1100100F05FFB6D1C64
:1003500018360A2DD3DB70BD2DE9F24F84B0002191
:100360000A2603900292ADF80410B246B346B04696
:100370000025DFF8C076DFF8CC9600913C7D0FFABF
:100380008BF00A2804BF002CAB4638D0BCB3012C3C
:1003900009D008DC09F168034FF4927209F12801D1
:1003A0004846FDF717FD039840B101687A6891420D
:1003B00004D1029880B1B96888420DD0012C15D1C2
:1003C00038680028788A09D0BDF80410884216D30E
:1003D000A846ADF8040012E028B26CE0BDF80210A7
:1003E00088420CD32E46ADF8020008E007DD788A7B
:1003F000BDF80010884224BFAA46ADF800006D1C6D
:1004000018370A2DBADB9DF81000039C029D810766
:1004100005D40FFA8BF10A2904D1C00705D44FF097
:10042000FF3048E00FFA8BFB2DDB0FFA8AF00A2829
:1004300011DA83460BEB4B02DFF8F815D20088582F
:1004400090B109F1680340F26D120FF20061484665
:10045000FDF7C0FC08E036B20A2EB2BFB3460FFA71
:1004600088FBBBF10A0FDADA5846FFF727FFBBF12A
:100470000A0F08DB09F1680340F283120FF2E4511E
:100480004846FDF7A7FCDFF8AC150BEB4B0201EB80
:10049000C206307D40B109F1680340F2851209F1CE
:1004A00090014846FDF796FC0CB120687060002171
:1004B0007182B560584605B0BDE8F08FF8B50646C4
:1004C000DFF87075DFF870550A24387D98B1B86888
:1004D000B04210D1386818B1FDF742FF00203860F3
:1004E000002139757982B960796007F10C002946DD
:1004F0000622FFF73DFB1837641EE6D1F1BD2DE95A
:10050000F8430C0086B0804604D10FF27C50FDF712
:1005100061FC88E0D8F804703888B0F5807F04BFAB
:10052000387906287CD17879042804BF788808288F
:1005300076D107F10E0004A902680A6007F11800DD
:1005400005A902680A60606820B1824202D10125D3
:10055000A94602E000254FF0020994F83000062871
:1005600009D0DFF8E00400F1680340F2A91200F1BD
:10057000BC01FDF72FFC0498A8B3214601F03AFD19
:1005800088BB049800F0F000E0282CD022464946B1
:1005900004A8FFF7E1FE002825D4DFF8981400EB4B
:1005A000400201EBC20602233375B460062207F154
:1005B000080106F10C00FFF7DBFA00207082D6F884
:1005C0000090B9F1000F0ED030604FF4006100913F
:1005D00007F1080304F12A024946204604F0BEFE52
:1005E0004846FDF7BDFEF888B0F5807F07D0B0F52E
:1005F000007F02BF04A9204600F0EEFD10E07DB1AF
:10060000022004A9231D0390029107F10802009320
:10061000019204F12A0304F12A01204600F090F926
:100620004046FDF79DFE07B0BDE8F0837CB504466B
:100630000D46DFF8000402EB420100EBC106327DFB
:10064000022A09DADFF8FC0300F1680340F2EF2226
:1006500000F58271FDF7BEFB307D022818D1708A4B
:1006600040F21D11884207DBDFF8D423311D2046FC
:1006700000F0CCF960B909E0B0F5877F08DB06F13E
:100680000C02311D204600F0C1F908B90320307575
:100690004FF40061009106F10C0304F12A0229468F
:1006A000204604F05BFE76BDF0B50400174683B02B
:1006B0000D463E4609D1DFF88C030FF2CC3100F134
:1006C000680340F21E32FDF785FB4DB9DFF8740375
:1006D0000FF2C43100F1680340F21F32FDF77AFBDC
:1006E0004FB9DFF860030FF2903100F168034FF467
:1006F0004872FDF76FFB3868214601F07BFC60B162
:10070000DFF83C334FF40060009004F12A022946E0
:10071000204604F023FE03B0F0BD386800F0F0017D
:10072000E02915D101208DF8040000215E228DF80A
:1007300005108DF8062001AB787800F07F008DF869
:100740000700B8788DF80800F8788DF80900D9E727
:10075000A168636801EA000219408A421EBF80B2A4
:100760004FF6A961884203D0E068F0B104F10C06AD
:10077000B54BB04F1A7802EB4201C800391891F816
:1007800014C0BCF1020F14DB07F1080E5EF8000084
:10079000A04202BFD6F800C04868844509D1294666
:1007A0002046FFF743FF03B0F0BD6FF0030003B036
:1007B000F0BD0022204631463C7D022C06DBBC68A1
:1007C000844202BF0E687C68A64208D0521C1837CB
:1007D0000A2AF1DB2A4600F007F803B0F0BD1A70D0
:1007E0002946D2B2DDE700002DE9F84F8146884660
:1007F0001446D8F8000049464FF0FF3B01F0FAFBE1
:10080000DA46002548B9D8F8000000F0F001E029E8
:1008100018BFB8F1000F00D018B96FF00F00BDE895
:10082000F28F4A4601214046FFF796FD0646002E0C
:1008300048BF40B200F182807F2E08D3DFF8040267
:1008400098A100F1680340F2C132FDF7C3FAF6B295
:10085000784906EB460201EBC207387D18B901253D
:100860003D75C7F80890387D012809D008DC754827
:1008700000F1680340F2CF3200F59A71FDF7AAFA51
:1008800005B9C4B96E4A4146484600F0BFF88246F1
:10089000002804BF387D012802D10DB900207882DC
:1008A000002C4AD007D167487BA100F1680340F2D1
:1008B000E932FDF78FFA387D01280EDD62480670B7
:1008C0004FF40061009107F10C0309F12A0221465F
:1008D000484604F043FD82462FE02ED14FEA04053E
:1008E00074A6DFF860A140F2F93900E02D68FDB18F
:1008F00068892989884208D1286830B10AF16803DB
:100900004A4631465046FDF765FA287B4106EDD54B
:1009100022464FF420710E20FDF79AFE04465CB18A
:10092000386808B1FDF71CFD3C604FF0000A04E098
:100930002046FDF77BFDF2E7DA465046BDE8F28F30
:100940002DE9F8430400884691461E4607D13D48EC
:100950004DA100F1680340F25F42FDF73BFA4FF40E
:1009600020721C210E20FDF727FB050008BF4FF069
:10097000FF3049D068891C2808DA324800F1680342
:1009800040F26B4200F5AE71FDF724FA0B986F68E8
:10099000FFF7BEF8F88094F83000062808D0294800
:1009A00000F1680340F2724200F5C871FDF712FAD7
:1009B0003146062207F10800FFF7DAF80999062206
:1009C00007F11200FFF7D4F80898026807F10E014A
:1009D0004B460A6007F118010A9802680A6008206D
:1009E0004FF480723A807880062139710420787142
:1009F00040F60601009142462946204604F0AEFC2E
:100A00002846FDF7ADFC0020BDE8F28338B584B080
:100A1000012303930291051D074C0194009500F1F9
:100A20002A0300F12A01FFF78BFF05B030BD044A0D
:100A3000ECE70000ECD9002038A7020800DA00201B
:100A4000C85301084887020875E800206172705F8A
:100A50007461626C655B695D2E71203D3D204E5571
:100A60004C4C000069203C204152505F5441424CA4
:100A7000455F53495A4500006970616464722021E2
:100A80003D204E554C4C00006E6574696620213D3A
:100A9000204E554C4C0000007120213D204E554CFD
:100AA0004C00000074797065206F766572666C6F1B
:100AB000770000006E6F207061636B657420717544
:100AC0006575657320616C6C6F776564210000004B
:100AD00038B5DFF8404B207930BBA06840B1DFF873
:100AE000380B00F15003EA2200F12801FDF772F9FA
:100AF000FFF7DAFAA06010B94FF0FF3032BD417A4B
:100B0000DFF8185B41F02001417244222946FFF7CB
:100B10000EFAA06843222946FFF776FAA068DFF8AC
:100B2000001B0022FFF79DFA2079401C2071002055
:100B300032BD10B5DFF8DC4A207948B9DFF8D80AB1
:100B400000F150034FF4827200F17401FDF742F995
:100B50002079401E2071C0B220B9A068FFF78AFA40
:100B60000020A06010BD10B5446A6179082904D046
:100B7000082200216271A1712181002204F11C016F
:100B8000FFF732FEA079FF281CBF401CA071012096
:100B9000208110BD2DE9F04F5FEA000883B005D138
:100BA00069A0FDF717F96FF00F00E9E0D8F82450BD
:100BB00035B900BF6BA0FDF70DF96FF00500DFE060
:100BC0006879012804D0012100206971A871288169
:100BD00002AB03222946404601F014F95FEA0009FE
:100BE00000F09280D9F80400DFF8284ADFF828BA2C
:100BF00000F1F00ABDF8080002233922514600F046
:100C0000D3FEADF808005146B8F8282000F0FCFEED
:100C1000ADF8080004233222514600F0C5FEADF8BD
:100C20000800E869FEF77AFF0246BDF80800514661
:100C300000F003FFADF8080004233622514600F00F
:100C4000B3FEADF80800A869FEF768FF0246BDF8DC
:100C50000800514600F0F1FEADF8080003233722EA
:100C6000514600F0A1FEADF8080007462678442F53
:100C700008D30BF1500340F2A5520BF58071584692
:100C8000FDF7A8F80AF807607F1CADF80870BDF8FA
:100C900008706678442F08D30BF1500340F2A55238
:100CA0000BF580715846FDF795F80AF807607F1C30
:100CB000ADF80870BDF80860A778442E08D30BF192
:100CC000500340F2A5520BF580715846FDF782F8AB
:100CD0000AF80670761CADF808604A46BDF80800B0
:100CE000514601F01DF9DFF83409DFF8482B019077
:100CF000CDF800804323A0684946FFF79BF8804663
:100D00004846FDF72DFB01E04FF0FF38A879FF289A
:100D10001CBF401CA871A879062811DA012202FA2A
:100D200000F04FF47A7110FB01F080B200F2F31082
:100D3000DFF8043B80FB0393581100EBD07000E018
:100D40007820288100F072BD646863705F73656C01
:100D50006563743A206E6574696620213D204E55A6
:100D60004C4C0000646863705F73656C6563743A33
:100D7000206468637020213D204E554C4C000000DB
:100D800003B0BDE8F08F2DE9F04D84B0DFF8AC0A78
:100D9000DFF884180468DFF87CA80191BC31039166
:100DA000019800F5D871029124E0C88908B3421E69
:100DB000CA811ED1656A687901281CBF0A280528E6
:100DC00017D1204600F084FBA989688A081A00EB35
:100DD000D071491000290CDDE9810AE01420288136
:100DE000A98A688A081A00EBD07149100029C8BF87
:100DF00029822468002C00F00981616A00291CBF47
:100E000048790028F5D0888A60B14A8A521C4A8203
:100E100092B2824206D1204600F012FD204600F038
:100E200069F9E6E7088A0028BFD0421E0A82BCD1D1
:100E3000656A6879012818BF0A2803D0052818BFF9
:100E40000428D6D1042804D0042100206971A87197
:100E5000288125B9DFF8AC0BFCF7BCFFBEE04FF4EE
:100E600020724FF49A713620FDF7A6F85FEA000869
:100E700000F0B480B8F80A00B0F59A7F07D2019864
:100E8000029900F1500340F27372FCF7A3FF6879F6
:100E9000032808D1A87918B904F0CCF8CAF80C00D6
:100EA000DAF80C1029604FF49A71D8F804603046D3
:100EB00004F000FA01203070707004F12A07B8794C
:100EC000B0702868FEF72AFE70606879052812BFA6
:100ED00004286068F060397831770122787870777B
:100EE000B978B177F878F077397986F82010787981
:100EF000DFF8881BC6F8EC1086F8210006F1F00137
:100F0000352008704A700220032200F067FDD8F8EF
:100F1000041001F1F00702233922394600F044FDA4
:100F2000228D394600F070FD0646401D442807D941
:100F30000198039900F1500340F29952FCF74AFFDF
:100F40003720B855761CB3B20322FA54761CB0B2DF
:100F50009AF800B0442808D3019800F1500340F2F9
:100F6000A55200F58071FCF735FFB0B2761C07F88A
:100F700000B0B0B29AF801B0442808D3019800F14B
:100F8000500340F2A55200F58071FCF723FFB0B288
:100F9000761C07F800B0B0B29AF802B0442808D323
:100FA000019800F1500340F2A55200F58071FCF762
:100FB00011FFB0B2761C07F800B042463946B0B215
:100FC00000F0AEFFDAF80800DFF868280094432349
:100FD0004146FEF704FF4046FDF7C2F9A879FF2815
:100FE0001CBF401CA871A8790A28BFF6F7AE4FF4C1
:100FF0007A7210FB02F080B200F2F310DFF83818BA
:1010000080FB0131481100EBD070E8E604B0BDE888
:10101000F08D10B5DFF82408046803E0204600F0E6
:101020003FF92468B4B3606A0028FAD00189022924
:1010300002DB491E0181F4E70129F2D1002101817F
:10104000606A41790C2918BF0629E7D001290CD123
:1010500080790528204602DCFFF79CFDE1E700F0DF
:10106000EFFB204600F046F8DBE7082909D180793C
:101070000228204602DAFFF776FDD2E700F0B6F943
:10108000CFE70329CDD1807902282046C7DA00F0C6
:10109000C9FAC6E710BD38B5446ADFF8E459002044
:1010A000206200226262E87808B16869A06228794B
:1010B000002812BFA869A06A4008E0626879002889
:1010C00011BFE869A06AC0EBC000C00820630869CE
:1010D000E061A87930B1286AFEF720FD2062012086
:1010E000E07100E0E271E87918B1686AFEF716FD78
:1010F000606231BD38B5050008BF0FF2941005D00D
:1011000095F83100C10706D4DFF87809FCF762FED4
:101110006FF00F0032BD288D6C6AB0F5107F29DBAF
:1011200034B9342003F078FE040023D06C6203E06D
:10113000207908B1FFF7FDFC3421204604F0B6F811
:10114000FFF7C6FCB0B90120207195F831104807AF
:1011500009D46179022904D0022000216071A171B3
:101160002181002032BD284600F09AF820B128469F
:1011700000F066FB4FF0FF3032BD000038B5054689
:101180006C6AF4B1607901001BD0C11E022901D93B
:10119000C91F05D10023A3712846BDE8324041E2B2
:1011A0000D2808DBDFF8700406A100F1500340F2BF
:1011B0007232FCF70FFE0020A0712846BDE83240D5
:1011C0006EE031BD696E76616C696420646863703D
:1011D0002D3E7374617465002DE9F841040083B0FD
:1011E00004D100BF2AA0FCF7F5FD4DE0676A380086
:1011F0004AD07E1D3278082A02BF0968F869814208
:1012000042D10C2A04D00C20002130707170398139
:1012100002AB04223946204600F0F4FD05002CD034
:10122000686800F1F008BDF8080004233222414646
:1012300000F0BAFBADF8080007F108004069FEF7BE
:101240006DFC0246BDF80800414600F0F6FBADF823
:1012500008002A46414600F063FE00944323DFF86D
:10126000BC03DFF8B043DFF8CC2501902946A06825
:10127000FEF7E0FD2846FDF773F87078FF281CBFE5
:10128000401C70701420388104B0BDE8F08100006B
:101290006E6574696620213D204E554C4C0000005F
:1012A0002DE9F04F824683B0DAF82460717900208E
:1012B0000629F06104D0062000217071B1713181DE
:1012C00002AB01223146504600F09CFD5FEA000966
:1012D0006CD0D9F80400CF4CDFF83CB30190022366
:1012E000F03000900146BDF80800392200F05CFBA8
:1012F000ADF80800BAF82820009900F085FBADF899
:10130000080003230099372200F04EFBADF80800D7
:1013100007462578442F40F2A55807D30BF1500318
:1013200042460BF580715846FCF754FD019800F1D8
:10133000F0010091CD557F1CADF80870BDF8085044
:101340006778442D07D30BF1500342460BF58071AB
:101350005846FCF73FFD009847556D1CADF8085006
:10136000BDF80850A778442D07D30BF1500342462F
:101370000BF580715846FCF72DFD009847556D1C04
:10138000ADF808500099BDF808004A4600F0C8FDC5
:10139000A248DFF8A0240190CDF800A04323A06864
:1013A0004946FEF747FD4846FCF7DAFFB079FF28CB
:1013B0001CBF401CB071B079062811DA012202FA74
:1013C00000F04FF47A7110FB01F080B200F2F310DC
:1013D000DFF82C3B80FB0393581100EBD07000E04A
:1013E0007820308103B00020BDE8F08F3EB510B901
:1013F0000FF6783003E0416A29B90FF68C30FCF71C
:10140000E9FC03B030BD00224A824FF6FF738A6ABE
:1014100012F1010F0DD01E32DFF8E85AA2FB05547D
:1014200062099A4288BF1A468A828A8A0AB90124C6
:101430008C82CA6A12F1010F0FD01E32DFF8C45A33
:10144000A2FB055462099A4288BF1A464A814A891A
:101450000AB901244C814A89CA810A6B12F1010F31
:101460000FD01E32DFF89C5AA2FB055462099A4243
:1014700088BF1A468A818A890AB901248C818A899F
:101480000A828A894C89944202D30AB100224A8195
:10149000CA790AB10A6A03E00A7F802A02DAFF22C7
:1014A000009204E0C02AA8BF6FF07F4300934A6A0D
:1014B00001924B790A2B04D00A2200234A718B71C6
:1014C0000B8101AB6A461C31FCF7F1F903B030BD6A
:1014D0002DE9F04F824683B0DAF824607079052850
:1014E00004D0052100207171B071308101AB03225D
:1014F0003146504600F086FC5FEA00096CD0D9F80E
:101500000400444CDFF810B102900223F030009048
:101510000146BDF80400392200F046FAADF8040097
:10152000BAF82820009900F06FFAADF80400032300
:101530000099372200F038FAADF804000746257804
:10154000442F40F2A55807D30BF1500342460BF548
:1015500080715846FCF73EFC029800F1F0010091C2
:10156000CD557F1CADF80470BDF804506778442D4C
:1015700007D30BF1500342460BF580715846FCF738
:1015800029FC009847556D1CADF80450BDF8045077
:10159000A778442D07D30BF1500342460BF5807119
:1015A0005846FCF717FC009847556D1CADF80450E1
:1015B0000099BDF804004A4600F0B2FCCDF800A046
:1015C0004323A06806F118024946FEF708FC82464C
:1015D0004846FCF7C5FE01E04FF0FF3AB079FF281E
:1015E0001CBF401CB071B0790A280DDA4FF4FA62C2
:1015F00010FB02F080B200F2F3108F4980FB013142
:10160000481100EBD07000E02820308103B0504634
:10161000BDE8F08F180100208083020848A7020867
:10162000891A01082DE9FE4F8046D8F824406079D8
:10163000032804D0032100206171A0712081B8F13A
:10164000000F1CD10FF66C10FCF7C4FB4FF0FF38F5
:10165000A079FF281CBF401CA071A0790A2880F245
:10166000E3804FF47A7210FB02F080B200F2F310C4
:10167000714980FB0131481100EBD070D5E014B9FD
:101680000FF65010E0E74FF420724FF49A713620B5
:10169000FCF792FC0700D9D07889DFF86CB8B0F578
:1016A0009A7F08D20BF1500340F273720BF5D87198
:1016B0005846FCF78FFB6079DFF85098032808D173
:1016C000A07918B903F0B6FCC9F80C00D9F80C00E1
:1016D00020604FF49A717D68284603F0EBFD0120ED
:1016E0002870687008F12A06B079A8702068FEF7A3
:1016F00015FA68606079052812BF0428D8F804003C
:10170000E86031782977012270786877B178A97715
:10171000F078E877317985F820107079D749C5F8E5
:10172000EC1085F8210005F1F001352008704A70B1
:101730000220032200F052F901970223796801F197
:10174000F0073922394600F02FF90546801C44285D
:1017500008D90BF1500340F2AD520BF59C7158467D
:10176000FCF738FB022078556D1CABB24022FA54CE
:101770006D1C042332223946A8B200F015F9054643
:10178000E069FEF7CBF902463946284600F055F9E4
:1017900003233722394600F007F999F800A04428BE
:1017A000064640F2A55507D30BF150032A460BF528
:1017B00080715846FCF70EFB07F806A0761CB0B205
:1017C00099F801A0442807D30BF150032A460BF5E2
:1017D00080715846FCF7FEFAB0B2761C07F800A0FC
:1017E000B0B299F802A0442807D30BF150032A465F
:1017F0000BF580715846FCF7EDFAB0B2761C07F88D
:1018000000A03946019AB0B200F08AFB0199D9F8DC
:101810000800084ACDF800804323FEF7E0FA80462E
:101820000198FCF79DFD13E71420208103B040468A
:10183000BDE8F08F4CA70208D34D6210CCE7002022
:101840002DE9FE4305466C6A002C1CBF6079002818
:1018500000F0A780A06901900021A161E1612162EF
:1018600061622163E162A162A18261822182E181E0
:10187000284600F06CFB0028607900F0878018B1E2
:1018800000216171A171218125B90FF22870FCF747
:10189000A1FA73E04FF420724FF49A713620FCF7EE
:1018A0008BFB5FEA000869D0B8F80A00B0F59A7FB0
:1018B00009D2DFF8540600F1500340F2737200F5CC
:1018C000D871FCF787FAA079DFF8409618B903F0D1
:1018D000B1FBC9F80C004FF49A71D9F80C002060E4
:1018E00005F12A07D8F80460304603F0E3FC012034
:1018F00030707070B879B0702068FEF70FF97060C2
:1019000001226868F0603978317778787077B97833
:10191000B177F878F077397986F8201078795749D7
:10192000C6F8EC1086F8210006F1F00135200870A9
:101930004A700220072200F051F8D8F8041001F193
